{
  "_format": "hh-sol-artifact-1",
  "contractName": "Marketplace",
  "sourceName": "contracts/Marketplace.sol",
  "abi": [
    {
      "inputs": [
        {
          "internalType": "string",
          "name": "_name",
          "type": "string"
        },
        {
          "internalType": "string",
          "name": "_description",
          "type": "string"
        },
        {
          "internalType": "uint256",
          "name": "_price",
          "type": "uint256"
        },
        {
          "internalType": "uint256",
          "name": "_stock",
          "type": "uint256"
        },
        {
          "internalType": "string",
          "name": "_imageURL",
          "type": "string"
        },
        {
          "internalType": "string",
          "name": "_category",
          "type": "string"
        }
      ],
      "name": "addProduct",
      "outputs": [],
      "stateMutability": "nonpayable",
      "type": "function"
    },
    {
      "inputs": [
        {
          "internalType": "uint256",
          "name": "_productId",
          "type": "uint256"
        },
        {
          "internalType": "uint256",
          "name": "_userId",
          "type": "uint256"
        },
        {
          "internalType": "uint256",
          "name": "_rating",
          "type": "uint256"
        },
        {
          "internalType": "string",
          "name": "_comment",
          "type": "string"
        }
      ],
      "name": "addReview",
      "outputs": [],
      "stateMutability": "nonpayable",
      "type": "function"
    },
    {
      "inputs": [
        {
          "internalType": "uint256",
          "name": "_productId",
          "type": "uint256"
        }
      ],
      "name": "buyProduct",
      "outputs": [],
      "stateMutability": "payable",
      "type": "function"
    },
    {
      "inputs": [
        {
          "internalType": "uint256",
          "name": "_productId",
          "type": "uint256"
        }
      ],
      "name": "deleteProduct",
      "outputs": [],
      "stateMutability": "nonpayable",
      "type": "function"
    },
    {
      "inputs": [
        {
          "internalType": "uint256",
          "name": "_productId",
          "type": "uint256"
        }
      ],
      "name": "getReviews",
      "outputs": [
        {
          "components": [
            {
              "internalType": "uint256",
              "name": "reviewId",
              "type": "uint256"
            },
            {
              "internalType": "uint256",
              "name": "userId",
              "type": "uint256"
            },
            {
              "internalType": "uint256",
              "name": "productId",
              "type": "uint256"
            },
            {
              "internalType": "uint256",
              "name": "rating",
              "type": "uint256"
            },
            {
              "internalType": "string",
              "name": "comment",
              "type": "string"
            },
            {
              "internalType": "uint256",
              "name": "createdAt",
              "type": "uint256"
            }
          ],
          "internalType": "struct Marketplace.Review[]",
          "name": "",
          "type": "tuple[]"
        }
      ],
      "stateMutability": "view",
      "type": "function"
    },
    {
      "inputs": [
        {
          "internalType": "string",
          "name": "_walletAddress",
          "type": "string"
        }
      ],
      "name": "getUserId",
      "outputs": [
        {
          "internalType": "uint256",
          "name": "",
          "type": "uint256"
        }
      ],
      "stateMutability": "view",
      "type": "function"
    },
    {
      "inputs": [
        {
          "internalType": "uint256",
          "name": "_userId",
          "type": "uint256"
        }
      ],
      "name": "getUsername",
      "outputs": [
        {
          "internalType": "string",
          "name": "",
          "type": "string"
        }
      ],
      "stateMutability": "view",
      "type": "function"
    },
    {
      "inputs": [
        {
          "internalType": "string",
          "name": "_walletAddress",
          "type": "string"
        }
      ],
      "name": "isUserRegistered",
      "outputs": [
        {
          "internalType": "bool",
          "name": "",
          "type": "bool"
        }
      ],
      "stateMutability": "view",
      "type": "function"
    },
    {
      "inputs": [],
      "name": "productCount",
      "outputs": [
        {
          "internalType": "uint256",
          "name": "",
          "type": "uint256"
        }
      ],
      "stateMutability": "view",
      "type": "function"
    },
    {
      "inputs": [
        {
          "internalType": "uint256",
          "name": "",
          "type": "uint256"
        },
        {
          "internalType": "uint256",
          "name": "",
          "type": "uint256"
        }
      ],
      "name": "productReviews",
      "outputs": [
        {
          "internalType": "uint256",
          "name": "",
          "type": "uint256"
        }
      ],
      "stateMutability": "view",
      "type": "function"
    },
    {
      "inputs": [
        {
          "internalType": "uint256",
          "name": "",
          "type": "uint256"
        }
      ],
      "name": "products",
      "outputs": [
        {
          "internalType": "uint256",
          "name": "productId",
          "type": "uint256"
        },
        {
          "internalType": "string",
          "name": "name",
          "type": "string"
        },
        {
          "internalType": "string",
          "name": "description",
          "type": "string"
        },
        {
          "internalType": "uint256",
          "name": "price",
          "type": "uint256"
        },
        {
          "internalType": "uint256",
          "name": "stock",
          "type": "uint256"
        },
        {
          "internalType": "string",
          "name": "imageURL",
          "type": "string"
        },
        {
          "internalType": "string",
          "name": "category",
          "type": "string"
        },
        {
          "internalType": "uint256",
          "name": "createdAt",
          "type": "uint256"
        },
        {
          "internalType": "uint256",
          "name": "updatedAt",
          "type": "uint256"
        },
        {
          "internalType": "address payable",
          "name": "seller",
          "type": "address"
        }
      ],
      "stateMutability": "view",
      "type": "function"
    },
    {
      "inputs": [
        {
          "internalType": "string",
          "name": "_username",
          "type": "string"
        },
        {
          "internalType": "string",
          "name": "_email",
          "type": "string"
        },
        {
          "internalType": "string",
          "name": "_walletAddress",
          "type": "string"
        }
      ],
      "name": "registerUser",
      "outputs": [],
      "stateMutability": "nonpayable",
      "type": "function"
    },
    {
      "inputs": [],
      "name": "reviewCount",
      "outputs": [
        {
          "internalType": "uint256",
          "name": "",
          "type": "uint256"
        }
      ],
      "stateMutability": "view",
      "type": "function"
    },
    {
      "inputs": [
        {
          "internalType": "uint256",
          "name": "",
          "type": "uint256"
        }
      ],
      "name": "reviews",
      "outputs": [
        {
          "internalType": "uint256",
          "name": "reviewId",
          "type": "uint256"
        },
        {
          "internalType": "uint256",
          "name": "userId",
          "type": "uint256"
        },
        {
          "internalType": "uint256",
          "name": "productId",
          "type": "uint256"
        },
        {
          "internalType": "uint256",
          "name": "rating",
          "type": "uint256"
        },
        {
          "internalType": "string",
          "name": "comment",
          "type": "string"
        },
        {
          "internalType": "uint256",
          "name": "createdAt",
          "type": "uint256"
        }
      ],
      "stateMutability": "view",
      "type": "function"
    },
    {
      "inputs": [
        {
          "internalType": "uint256",
          "name": "_productId",
          "type": "uint256"
        },
        {
          "internalType": "string",
          "name": "_name",
          "type": "string"
        },
        {
          "internalType": "string",
          "name": "_description",
          "type": "string"
        },
        {
          "internalType": "uint256",
          "name": "_price",
          "type": "uint256"
        },
        {
          "internalType": "uint256",
          "name": "_stock",
          "type": "uint256"
        },
        {
          "internalType": "string",
          "name": "_imageURL",
          "type": "string"
        },
        {
          "internalType": "string",
          "name": "_category",
          "type": "string"
        }
      ],
      "name": "updateProduct",
      "outputs": [],
      "stateMutability": "nonpayable",
      "type": "function"
    },
    {
      "inputs": [],
      "name": "userCount",
      "outputs": [
        {
          "internalType": "uint256",
          "name": "",
          "type": "uint256"
        }
      ],
      "stateMutability": "view",
      "type": "function"
    },
    {
      "inputs": [
        {
          "internalType": "uint256",
          "name": "",
          "type": "uint256"
        }
      ],
      "name": "users",
      "outputs": [
        {
          "internalType": "uint256",
          "name": "userId",
          "type": "uint256"
        },
        {
          "internalType": "string",
          "name": "username",
          "type": "string"
        },
        {
          "internalType": "string",
          "name": "email",
          "type": "string"
        },
        {
          "internalType": "string",
          "name": "walletAddress",
          "type": "string"
        }
      ],
      "stateMutability": "view",
      "type": "function"
    }
  ],
  "bytecode": "0x608060405234801561001057600080fd5b5061242c806100206000396000f3fe6080604052600436106100fe5760003560e01c8063c4ec4f0511610095578063e83ddcea11610064578063e83ddcea14610356578063ed90c7b714610398578063eff5924f146103c1578063f18d18cc146103ec578063f2943dce14610429576100fe565b8063c4ec4f051461029c578063d637dcfa146102c5578063db1ef71f146102ee578063e0f6ef871461032b576100fe565b80638642269e116100d15780638642269e146101dd5780639d4a2255146101f9578063a8cc778414610236578063c33d392f14610273576100fe565b806307973ccf1461010357806310ed96fa1461012e578063365b98b2146101575780637acc0b2014610197575b600080fd5b34801561010f57600080fd5b50610118610466565b60405161012591906113f7565b60405180910390f35b34801561013a57600080fd5b5061015560048036038101906101509190611598565b61046c565b005b34801561016357600080fd5b5061017e6004803603810190610179919061161b565b6105a6565b60405161018e94939291906116c7565b60405180910390f35b3480156101a357600080fd5b506101be60048036038101906101b9919061161b565b61076e565b6040516101d49a99989796959493929190611762565b60405180910390f35b6101f760048036038101906101f2919061161b565b610a02565b005b34801561020557600080fd5b50610220600480360381019061021b919061161b565b610b39565b60405161022d91906119be565b60405180910390f35b34801561024257600080fd5b5061025d600480360381019061025891906119e0565b610d3e565b60405161026a9190611a44565b60405180910390f35b34801561027f57600080fd5b5061029a60048036038101906102959190611a5f565b610daf565b005b3480156102a857600080fd5b506102c360048036038101906102be9190611b71565b610e33565b005b3480156102d157600080fd5b506102ec60048036038101906102e79190611c6e565b610f9a565b005b3480156102fa57600080fd5b50610315600480360381019061031091906119e0565b61103e565b60405161032291906113f7565b60405180910390f35b34801561033757600080fd5b506103406110fa565b60405161034d91906113f7565b60405180910390f35b34801561036257600080fd5b5061037d6004803603810190610378919061161b565b611100565b60405161038f96959493929190611d15565b60405180910390f35b3480156103a457600080fd5b506103bf60048036038101906103ba919061161b565b6111c4565b005b3480156103cd57600080fd5b506103d661126c565b6040516103e391906113f7565b60405180910390f35b3480156103f857600080fd5b50610413600480360381019061040e919061161b565b611272565b6040516104209190611d7d565b60405180910390f35b34801561043557600080fd5b50610450600480360381019061044b9190611d9f565b61131a565b60405161045d91906113f7565b60405180910390f35b60035481565b6001821015801561047e575060058211155b6104bd576040517f08c379a00000000000000000000000000000000000000000000000000000000081526004016104b490611e2b565b60405180910390fd5b600460008154809291906104d090611e7a565b91905055506040518060c0016040528060045481526020018481526020018581526020018381526020018281526020014281525060056000600454815260200190815260200160002060008201518160000155602082015181600101556040820151816002015560608201518160030155608082015181600401908161055691906120ce565b5060a0820151816005015590505060066000858152602001908152602001600020600454908060018154018082558091505060019003906000526020600020016000909190919091505550505050565b60026020528060005260406000206000915090508060000154908060010180546105cf90611ef1565b80601f01602080910402602001604051908101604052809291908181526020018280546105fb90611ef1565b80156106485780601f1061061d57610100808354040283529160200191610648565b820191906000526020600020905b81548152906001019060200180831161062b57829003601f168201915b50505050509080600201805461065d90611ef1565b80601f016020809104026020016040519081016040528092919081815260200182805461068990611ef1565b80156106d65780601f106106ab576101008083540402835291602001916106d6565b820191906000526020600020905b8154815290600101906020018083116106b957829003601f168201915b5050505050908060030180546106eb90611ef1565b80601f016020809104026020016040519081016040528092919081815260200182805461071790611ef1565b80156107645780601f1061073957610100808354040283529160200191610764565b820191906000526020600020905b81548152906001019060200180831161074757829003601f168201915b5050505050905084565b600160205280600052604060002060009150905080600001549080600101805461079790611ef1565b80601f01602080910402602001604051908101604052809291908181526020018280546107c390611ef1565b80156108105780601f106107e557610100808354040283529160200191610810565b820191906000526020600020905b8154815290600101906020018083116107f357829003601f168201915b50505050509080600201805461082590611ef1565b80601f016020809104026020016040519081016040528092919081815260200182805461085190611ef1565b801561089e5780601f106108735761010080835404028352916020019161089e565b820191906000526020600020905b81548152906001019060200180831161088157829003601f168201915b5050505050908060030154908060040154908060050180546108bf90611ef1565b80601f01602080910402602001604051908101604052809291908181526020018280546108eb90611ef1565b80156109385780601f1061090d57610100808354040283529160200191610938565b820191906000526020600020905b81548152906001019060200180831161091b57829003601f168201915b50505050509080600601805461094d90611ef1565b80601f016020809104026020016040519081016040528092919081815260200182805461097990611ef1565b80156109c65780601f1061099b576101008083540402835291602001916109c6565b820191906000526020600020905b8154815290600101906020018083116109a957829003601f168201915b5050505050908060070154908060080154908060090160009054906101000a900473ffffffffffffffffffffffffffffffffffffffff1690508a565b60006001600083815260200190815260200160002090508060030154341015610a60576040517f08c379a0000000000000000000000000000000000000000000000000000000008152600401610a57906121ec565b60405180910390fd5b6000816004015411610aa7576040517f08c379a0000000000000000000000000000000000000000000000000000000008152600401610a9e90612258565b60405180910390fd5b806004016000815480929190610abc90612278565b91905055508060090160009054906101000a900473ffffffffffffffffffffffffffffffffffffffff1673ffffffffffffffffffffffffffffffffffffffff166108fc349081150290604051600060405180830381858888f19350505050158015610b2b573d6000803e3d6000fd5b504281600801819055505050565b6060600060066000848152602001908152602001600020805480602002602001604051908101604052809291908181526020018280548015610b9a57602002820191906000526020600020905b815481526020019060010190808311610b86575b505050505090506000815167ffffffffffffffff811115610bbe57610bbd61146d565b5b604051908082528060200260200182016040528015610bf757816020015b610be461134b565b815260200190600190039081610bdc5790505b50905060005b8251811015610d335760056000848381518110610c1d57610c1c6122a1565b5b602002602001015181526020019081526020016000206040518060c001604052908160008201548152602001600182015481526020016002820154815260200160038201548152602001600482018054610c7690611ef1565b80601f0160208091040260200160405190810160405280929190818152602001828054610ca290611ef1565b8015610cef5780601f10610cc457610100808354040283529160200191610cef565b820191906000526020600020905b815481529060010190602001808311610cd257829003601f168201915b50505050508152602001600582015481525050828281518110610d1557610d146122a1565b5b60200260200101819052508080610d2b90611e7a565b915050610bfd565b508092505050919050565b600080600190505b6003548111610da457828051906020012060026000838152602001908152602001600020600301604051610d7a9190612373565b604051809103902003610d91576001915050610daa565b8080610d9c90611e7a565b915050610d46565b50600090505b919050565b600060016000898152602001908152602001600020905086816001019081610dd791906120ce565b5085816002019081610de991906120ce565b5084816003018190555083816004018190555082816005019081610e0d91906120ce565b5081816006019081610e1f91906120ce565b504281600801819055505050505050505050565b600080815480929190610e4590611e7a565b919050555060405180610140016040528060005481526020018781526020018681526020018581526020018481526020018381526020018281526020014281526020014281526020013373ffffffffffffffffffffffffffffffffffffffff168152506001600080548152602001908152602001600020600082015181600001556020820151816001019081610edb91906120ce565b506040820151816002019081610ef191906120ce565b50606082015181600301556080820151816004015560a0820151816005019081610f1b91906120ce565b5060c0820151816006019081610f3191906120ce565b5060e0820151816007015561010082015181600801556101208201518160090160006101000a81548173ffffffffffffffffffffffffffffffffffffffff021916908373ffffffffffffffffffffffffffffffffffffffff160217905550905050505050505050565b60036000815480929190610fad90611e7a565b9190505550604051806080016040528060035481526020018481526020018381526020018281525060026000600354815260200190815260200160002060008201518160000155602082015181600101908161100991906120ce565b50604082015181600201908161101f91906120ce565b50606082015181600301908161103591906120ce565b50905050505050565b600080600190505b60035481116110b95782805190602001206002600083815260200190815260200160002060030160405161107a9190612373565b6040518091039020036110a65760026000828152602001908152602001600020600001549150506110f5565b80806110b190611e7a565b915050611046565b506040517f08c379a00000000000000000000000000000000000000000000000000000000081526004016110ec906123d6565b60405180910390fd5b919050565b60005481565b600560205280600052604060002060009150905080600001549080600101549080600201549080600301549080600401805461113b90611ef1565b80601f016020809104026020016040519081016040528092919081815260200182805461116790611ef1565b80156111b45780601f10611189576101008083540402835291602001916111b4565b820191906000526020600020905b81548152906001019060200180831161119757829003601f168201915b5050505050908060050154905086565b600160008281526020019081526020016000206000808201600090556001820160006111f09190611381565b6002820160006112009190611381565b600382016000905560048201600090556005820160006112209190611381565b6006820160006112309190611381565b600782016000905560088201600090556009820160006101000a81549073ffffffffffffffffffffffffffffffffffffffff0219169055505050565b60045481565b606060026000838152602001908152602001600020600101805461129590611ef1565b80601f01602080910402602001604051908101604052809291908181526020018280546112c190611ef1565b801561130e5780601f106112e35761010080835404028352916020019161130e565b820191906000526020600020905b8154815290600101906020018083116112f157829003601f168201915b50505050509050919050565b6006602052816000526040600020818154811061133657600080fd5b90600052602060002001600091509150505481565b6040518060c001604052806000815260200160008152602001600081526020016000815260200160608152602001600081525090565b50805461138d90611ef1565b6000825580601f1061139f57506113be565b601f0160209004906000526020600020908101906113bd91906113c1565b5b50565b5b808211156113da5760008160009055506001016113c2565b5090565b6000819050919050565b6113f1816113de565b82525050565b600060208201905061140c60008301846113e8565b92915050565b6000604051905090565b600080fd5b600080fd5b61142f816113de565b811461143a57600080fd5b50565b60008135905061144c81611426565b92915050565b600080fd5b600080fd5b6000601f19601f8301169050919050565b7f4e487b7100000000000000000000000000000000000000000000000000000000600052604160045260246000fd5b6114a58261145c565b810181811067ffffffffffffffff821117156114c4576114c361146d565b5b80604052505050565b60006114d7611412565b90506114e3828261149c565b919050565b600067ffffffffffffffff8211156115035761150261146d565b5b61150c8261145c565b9050602081019050919050565b82818337600083830152505050565b600061153b611536846114e8565b6114cd565b90508281526020810184848401111561155757611556611457565b5b611562848285611519565b509392505050565b600082601f83011261157f5761157e611452565b5b813561158f848260208601611528565b91505092915050565b600080600080608085870312156115b2576115b161141c565b5b60006115c08782880161143d565b94505060206115d18782880161143d565b93505060406115e28782880161143d565b925050606085013567ffffffffffffffff81111561160357611602611421565b5b61160f8782880161156a565b91505092959194509250565b6000602082840312156116315761163061141c565b5b600061163f8482850161143d565b91505092915050565b600081519050919050565b600082825260208201905092915050565b60005b83811015611682578082015181840152602081019050611667565b60008484015250505050565b600061169982611648565b6116a38185611653565b93506116b3818560208601611664565b6116bc8161145c565b840191505092915050565b60006080820190506116dc60008301876113e8565b81810360208301526116ee818661168e565b90508181036040830152611702818561168e565b90508181036060830152611716818461168e565b905095945050505050565b600073ffffffffffffffffffffffffffffffffffffffff82169050919050565b600061174c82611721565b9050919050565b61175c81611741565b82525050565b600061014082019050611778600083018d6113e8565b818103602083015261178a818c61168e565b9050818103604083015261179e818b61168e565b90506117ad606083018a6113e8565b6117ba60808301896113e8565b81810360a08301526117cc818861168e565b905081810360c08301526117e0818761168e565b90506117ef60e08301866113e8565b6117fd6101008301856113e8565b61180b610120830184611753565b9b9a5050505050505050505050565b600081519050919050565b600082825260208201905092915050565b6000819050602082019050919050565b61184f816113de565b82525050565b600082825260208201905092915050565b600061187182611648565b61187b8185611855565b935061188b818560208601611664565b6118948161145c565b840191505092915050565b600060c0830160008301516118b76000860182611846565b5060208301516118ca6020860182611846565b5060408301516118dd6040860182611846565b5060608301516118f06060860182611846565b50608083015184820360808601526119088282611866565b91505060a083015161191d60a0860182611846565b508091505092915050565b6000611934838361189f565b905092915050565b6000602082019050919050565b60006119548261181a565b61195e8185611825565b93508360208202850161197085611836565b8060005b858110156119ac578484038952815161198d8582611928565b94506119988361193c565b925060208a01995050600181019050611974565b50829750879550505050505092915050565b600060208201905081810360008301526119d88184611949565b905092915050565b6000602082840312156119f6576119f561141c565b5b600082013567ffffffffffffffff811115611a1457611a13611421565b5b611a208482850161156a565b91505092915050565b60008115159050919050565b611a3e81611a29565b82525050565b6000602082019050611a596000830184611a35565b92915050565b600080600080600080600060e0888a031215611a7e57611a7d61141c565b5b6000611a8c8a828b0161143d565b975050602088013567ffffffffffffffff811115611aad57611aac611421565b5b611ab98a828b0161156a565b965050604088013567ffffffffffffffff811115611ada57611ad9611421565b5b611ae68a828b0161156a565b9550506060611af78a828b0161143d565b9450506080611b088a828b0161143d565b93505060a088013567ffffffffffffffff811115611b2957611b28611421565b5b611b358a828b0161156a565b92505060c088013567ffffffffffffffff811115611b5657611b55611421565b5b611b628a828b0161156a565b91505092959891949750929550565b60008060008060008060c08789031215611b8e57611b8d61141c565b5b600087013567ffffffffffffffff811115611bac57611bab611421565b5b611bb889828a0161156a565b965050602087013567ffffffffffffffff811115611bd957611bd8611421565b5b611be589828a0161156a565b9550506040611bf689828a0161143d565b9450506060611c0789828a0161143d565b935050608087013567ffffffffffffffff811115611c2857611c27611421565b5b611c3489828a0161156a565b92505060a087013567ffffffffffffffff811115611c5557611c54611421565b5b611c6189828a0161156a565b9150509295509295509295565b600080600060608486031215611c8757611c8661141c565b5b600084013567ffffffffffffffff811115611ca557611ca4611421565b5b611cb18682870161156a565b935050602084013567ffffffffffffffff811115611cd257611cd1611421565b5b611cde8682870161156a565b925050604084013567ffffffffffffffff811115611cff57611cfe611421565b5b611d0b8682870161156a565b9150509250925092565b600060c082019050611d2a60008301896113e8565b611d3760208301886113e8565b611d4460408301876113e8565b611d5160608301866113e8565b8181036080830152611d63818561168e565b9050611d7260a08301846113e8565b979650505050505050565b60006020820190508181036000830152611d97818461168e565b905092915050565b60008060408385031215611db657611db561141c565b5b6000611dc48582860161143d565b9250506020611dd58582860161143d565b9150509250929050565b7f496e76616c696420726174696e672076616c7565000000000000000000000000600082015250565b6000611e15601483611653565b9150611e2082611ddf565b602082019050919050565b60006020820190508181036000830152611e4481611e08565b9050919050565b7f4e487b7100000000000000000000000000000000000000000000000000000000600052601160045260246000fd5b6000611e85826113de565b91507fffffffffffffffffffffffffffffffffffffffffffffffffffffffffffffffff8203611eb757611eb6611e4b565b5b600182019050919050565b7f4e487b7100000000000000000000000000000000000000000000000000000000600052602260045260246000fd5b60006002820490506001821680611f0957607f821691505b602082108103611f1c57611f1b611ec2565b5b50919050565b60008190508160005260206000209050919050565b60006020601f8301049050919050565b600082821b905092915050565b600060088302611f847fffffffffffffffffffffffffffffffffffffffffffffffffffffffffffffffff82611f47565b611f8e8683611f47565b95508019841693508086168417925050509392505050565b6000819050919050565b6000611fcb611fc6611fc1846113de565b611fa6565b6113de565b9050919050565b6000819050919050565b611fe583611fb0565b611ff9611ff182611fd2565b848454611f54565b825550505050565b600090565b61200e612001565b612019818484611fdc565b505050565b5b8181101561203d57612032600082612006565b60018101905061201f565b5050565b601f8211156120825761205381611f22565b61205c84611f37565b8101602085101561206b578190505b61207f61207785611f37565b83018261201e565b50505b505050565b600082821c905092915050565b60006120a560001984600802612087565b1980831691505092915050565b60006120be8383612094565b9150826002028217905092915050565b6120d782611648565b67ffffffffffffffff8111156120f0576120ef61146d565b5b6120fa8254611ef1565b612105828285612041565b600060209050601f8311600181146121385760008415612126578287015190505b61213085826120b2565b865550612198565b601f19841661214686611f22565b60005b8281101561216e57848901518255600182019150602085019450602081019050612149565b8683101561218b5784890151612187601f891682612094565b8355505b6001600288020188555050505b505050505050565b7f4e6f7420656e6f7567682066756e647300000000000000000000000000000000600082015250565b60006121d6601083611653565b91506121e1826121a0565b602082019050919050565b60006020820190508181036000830152612205816121c9565b9050919050565b7f50726f64756374206f7574206f662073746f636b000000000000000000000000600082015250565b6000612242601483611653565b915061224d8261220c565b602082019050919050565b6000602082019050818103600083015261227181612235565b9050919050565b6000612283826113de565b91506000820361229657612295611e4b565b5b600182039050919050565b7f4e487b7100000000000000000000000000000000000000000000000000000000600052603260045260246000fd5b600081905092915050565b60008190508160005260206000209050919050565b600081546122fd81611ef1565b61230781866122d0565b9450600182166000811461232257600181146123375761236a565b60ff198316865281151582028601935061236a565b612340856122db565b60005b8381101561236257815481890152600182019150602081019050612343565b838801955050505b50505092915050565b600061237f82846122f0565b915081905092915050565b7f55736572206e6f7420666f756e64000000000000000000000000000000000000600082015250565b60006123c0600e83611653565b91506123cb8261238a565b602082019050919050565b600060208201905081810360008301526123ef816123b3565b905091905056fea2646970667358221220d83fe4493f1970024c8594703b21e06c68af952d066e64780aaeb14c826d72a464736f6c63430008110033",
  "linkReferences": {},
  "deployedLinkReferences": {}
}