{
  "_format": "hh-sol-artifact-1",
  "contractName": "Marketplace",
  "sourceName": "contracts/Marketplace.sol",
  "abi": [
    {
      "inputs": [
        {
          "internalType": "string",
          "name": "_name",
          "type": "string"
        },
        {
          "internalType": "string",
          "name": "_description",
          "type": "string"
        },
        {
          "internalType": "uint256",
          "name": "_price",
          "type": "uint256"
        },
        {
          "internalType": "uint256",
          "name": "_stock",
          "type": "uint256"
        },
        {
          "internalType": "string",
          "name": "_imageURL",
          "type": "string"
        },
        {
          "internalType": "string",
          "name": "_category",
          "type": "string"
        }
      ],
      "name": "addProduct",
      "outputs": [],
      "stateMutability": "nonpayable",
      "type": "function"
    },
    {
      "inputs": [
        {
          "internalType": "uint256",
          "name": "_productId",
          "type": "uint256"
        },
        {
          "internalType": "uint256",
          "name": "_userId",
          "type": "uint256"
        },
        {
          "internalType": "uint256",
          "name": "_rating",
          "type": "uint256"
        },
        {
          "internalType": "string",
          "name": "_comment",
          "type": "string"
        }
      ],
      "name": "addReview",
      "outputs": [],
      "stateMutability": "nonpayable",
      "type": "function"
    },
    {
      "inputs": [
        {
          "internalType": "uint256",
          "name": "_productId",
          "type": "uint256"
        }
      ],
      "name": "buyProduct",
      "outputs": [],
      "stateMutability": "payable",
      "type": "function"
    },
    {
      "inputs": [
        {
          "internalType": "uint256",
          "name": "_productId",
          "type": "uint256"
        }
      ],
      "name": "deleteProduct",
      "outputs": [],
      "stateMutability": "nonpayable",
      "type": "function"
    },
    {
      "inputs": [
        {
          "internalType": "uint256",
          "name": "_productId",
          "type": "uint256"
        }
      ],
      "name": "getReviews",
      "outputs": [
        {
          "components": [
            {
              "internalType": "uint256",
              "name": "reviewId",
              "type": "uint256"
            },
            {
              "internalType": "uint256",
              "name": "userId",
              "type": "uint256"
            },
            {
              "internalType": "uint256",
              "name": "productId",
              "type": "uint256"
            },
            {
              "internalType": "uint256",
              "name": "rating",
              "type": "uint256"
            },
            {
              "internalType": "string",
              "name": "comment",
              "type": "string"
            },
            {
              "internalType": "uint256",
              "name": "createdAt",
              "type": "uint256"
            }
          ],
          "internalType": "struct Marketplace.Review[]",
          "name": "",
          "type": "tuple[]"
        }
      ],
      "stateMutability": "view",
      "type": "function"
    },
    {
      "inputs": [
        {
          "internalType": "address",
          "name": "_walletAddress",
          "type": "address"
        }
      ],
      "name": "getUserId",
      "outputs": [
        {
          "internalType": "uint256",
          "name": "",
          "type": "uint256"
        }
      ],
      "stateMutability": "view",
      "type": "function"
    },
    {
      "inputs": [
        {
          "internalType": "string",
          "name": "_walletAddress",
          "type": "string"
        }
      ],
      "name": "isUserRegistered",
      "outputs": [
        {
          "internalType": "bool",
          "name": "",
          "type": "bool"
        }
      ],
      "stateMutability": "view",
      "type": "function"
    },
    {
      "inputs": [],
      "name": "productCount",
      "outputs": [
        {
          "internalType": "uint256",
          "name": "",
          "type": "uint256"
        }
      ],
      "stateMutability": "view",
      "type": "function"
    },
    {
      "inputs": [
        {
          "internalType": "uint256",
          "name": "",
          "type": "uint256"
        },
        {
          "internalType": "uint256",
          "name": "",
          "type": "uint256"
        }
      ],
      "name": "productReviews",
      "outputs": [
        {
          "internalType": "uint256",
          "name": "",
          "type": "uint256"
        }
      ],
      "stateMutability": "view",
      "type": "function"
    },
    {
      "inputs": [
        {
          "internalType": "uint256",
          "name": "",
          "type": "uint256"
        }
      ],
      "name": "products",
      "outputs": [
        {
          "internalType": "uint256",
          "name": "productId",
          "type": "uint256"
        },
        {
          "internalType": "string",
          "name": "name",
          "type": "string"
        },
        {
          "internalType": "string",
          "name": "description",
          "type": "string"
        },
        {
          "internalType": "uint256",
          "name": "price",
          "type": "uint256"
        },
        {
          "internalType": "uint256",
          "name": "stock",
          "type": "uint256"
        },
        {
          "internalType": "string",
          "name": "imageURL",
          "type": "string"
        },
        {
          "internalType": "string",
          "name": "category",
          "type": "string"
        },
        {
          "internalType": "uint256",
          "name": "createdAt",
          "type": "uint256"
        },
        {
          "internalType": "uint256",
          "name": "updatedAt",
          "type": "uint256"
        },
        {
          "internalType": "address payable",
          "name": "seller",
          "type": "address"
        }
      ],
      "stateMutability": "view",
      "type": "function"
    },
    {
      "inputs": [
        {
          "internalType": "string",
          "name": "_username",
          "type": "string"
        },
        {
          "internalType": "string",
          "name": "_email",
          "type": "string"
        },
        {
          "internalType": "string",
          "name": "_walletAddress",
          "type": "string"
        }
      ],
      "name": "registerUser",
      "outputs": [],
      "stateMutability": "nonpayable",
      "type": "function"
    },
    {
      "inputs": [],
      "name": "reviewCount",
      "outputs": [
        {
          "internalType": "uint256",
          "name": "",
          "type": "uint256"
        }
      ],
      "stateMutability": "view",
      "type": "function"
    },
    {
      "inputs": [
        {
          "internalType": "uint256",
          "name": "",
          "type": "uint256"
        }
      ],
      "name": "reviews",
      "outputs": [
        {
          "internalType": "uint256",
          "name": "reviewId",
          "type": "uint256"
        },
        {
          "internalType": "uint256",
          "name": "userId",
          "type": "uint256"
        },
        {
          "internalType": "uint256",
          "name": "productId",
          "type": "uint256"
        },
        {
          "internalType": "uint256",
          "name": "rating",
          "type": "uint256"
        },
        {
          "internalType": "string",
          "name": "comment",
          "type": "string"
        },
        {
          "internalType": "uint256",
          "name": "createdAt",
          "type": "uint256"
        }
      ],
      "stateMutability": "view",
      "type": "function"
    },
    {
      "inputs": [
        {
          "internalType": "uint256",
          "name": "_productId",
          "type": "uint256"
        },
        {
          "internalType": "string",
          "name": "_name",
          "type": "string"
        },
        {
          "internalType": "string",
          "name": "_description",
          "type": "string"
        },
        {
          "internalType": "uint256",
          "name": "_price",
          "type": "uint256"
        },
        {
          "internalType": "uint256",
          "name": "_stock",
          "type": "uint256"
        },
        {
          "internalType": "string",
          "name": "_imageURL",
          "type": "string"
        },
        {
          "internalType": "string",
          "name": "_category",
          "type": "string"
        }
      ],
      "name": "updateProduct",
      "outputs": [],
      "stateMutability": "nonpayable",
      "type": "function"
    },
    {
      "inputs": [],
      "name": "userCount",
      "outputs": [
        {
          "internalType": "uint256",
          "name": "",
          "type": "uint256"
        }
      ],
      "stateMutability": "view",
      "type": "function"
    },
    {
      "inputs": [
        {
          "internalType": "uint256",
          "name": "",
          "type": "uint256"
        }
      ],
      "name": "users",
      "outputs": [
        {
          "internalType": "uint256",
          "name": "userId",
          "type": "uint256"
        },
        {
          "internalType": "string",
          "name": "username",
          "type": "string"
        },
        {
          "internalType": "string",
          "name": "email",
          "type": "string"
        },
        {
          "internalType": "string",
          "name": "walletAddress",
          "type": "string"
        }
      ],
      "stateMutability": "view",
      "type": "function"
    },
    {
      "inputs": [
        {
          "internalType": "address",
          "name": "",
          "type": "address"
        }
      ],
      "name": "walletToUserId",
      "outputs": [
        {
          "internalType": "uint256",
          "name": "",
          "type": "uint256"
        }
      ],
      "stateMutability": "view",
      "type": "function"
    }
  ],
  "bytecode": "0x608060405234801561001057600080fd5b506123f3806100206000396000f3fe6080604052600436106100fe5760003560e01c8063a8cc778411610095578063e0f6ef8711610064578063e0f6ef8714610368578063e83ddcea14610393578063ed90c7b7146103d5578063eff5924f146103fe578063f2943dce14610429576100fe565b8063a8cc7784146102b0578063c33d392f146102ed578063c4ec4f0514610316578063d637dcfa1461033f576100fe565b80634bb54384116100d15780634bb54384146101d45780637acc0b20146102115780638642269e146102575780639d4a225514610273576100fe565b806307973ccf1461010357806310ed96fa1461012e5780632b956ff714610157578063365b98b214610194575b600080fd5b34801561010f57600080fd5b50610118610466565b6040516101259190611375565b60405180910390f35b34801561013a57600080fd5b5061015560048036038101906101509190611516565b61046c565b005b34801561016357600080fd5b5061017e600480360381019061017991906115f7565b6105a6565b60405161018b9190611375565b60405180910390f35b3480156101a057600080fd5b506101bb60048036038101906101b69190611624565b610670565b6040516101cb94939291906116d0565b60405180910390f35b3480156101e057600080fd5b506101fb60048036038101906101f691906115f7565b610838565b6040516102089190611375565b60405180910390f35b34801561021d57600080fd5b5061023860048036038101906102339190611624565b610850565b60405161024e9a9998979695949392919061174b565b60405180910390f35b610271600480360381019061026c9190611624565b610ae4565b005b34801561027f57600080fd5b5061029a60048036038101906102959190611624565b610c1b565b6040516102a791906119a7565b60405180910390f35b3480156102bc57600080fd5b506102d760048036038101906102d291906119c9565b610e20565b6040516102e49190611a2d565b60405180910390f35b3480156102f957600080fd5b50610314600480360381019061030f9190611a48565b610e91565b005b34801561032257600080fd5b5061033d60048036038101906103389190611b5a565b610f15565b005b34801561034b57600080fd5b5061036660048036038101906103619190611c57565b61107c565b005b34801561037457600080fd5b5061037d611120565b60405161038a9190611375565b60405180910390f35b34801561039f57600080fd5b506103ba60048036038101906103b59190611624565b611126565b6040516103cc96959493929190611cfe565b60405180910390f35b3480156103e157600080fd5b506103fc60048036038101906103f79190611624565b6111ea565b005b34801561040a57600080fd5b50610413611292565b6040516104209190611375565b60405180910390f35b34801561043557600080fd5b50610450600480360381019061044b9190611d66565b611298565b60405161045d9190611375565b60405180910390f35b60035481565b6001821015801561047e575060058211155b6104bd576040517f08c379a00000000000000000000000000000000000000000000000000000000081526004016104b490611df2565b60405180910390fd5b600460008154809291906104d090611e41565b91905055506040518060c001604052806004548152602001848152602001858152602001838152602001828152602001428152506005600060045481526020019081526020016000206000820151816000015560208201518160010155604082015181600201556060820151816003015560808201518160040190816105569190612095565b5060a0820151816005015590505060066000858152602001908152602001600020600454908060018154018082558091505060019003906000526020600020016000909190919091505550505050565b600080600760008473ffffffffffffffffffffffffffffffffffffffff1673ffffffffffffffffffffffffffffffffffffffff1681526020019081526020016000205403610629576040517f08c379a0000000000000000000000000000000000000000000000000000000008152600401610620906121b3565b60405180910390fd5b600760008373ffffffffffffffffffffffffffffffffffffffff1673ffffffffffffffffffffffffffffffffffffffff168152602001908152602001600020549050919050565b600260205280600052604060002060009150905080600001549080600101805461069990611eb8565b80601f01602080910402602001604051908101604052809291908181526020018280546106c590611eb8565b80156107125780601f106106e757610100808354040283529160200191610712565b820191906000526020600020905b8154815290600101906020018083116106f557829003601f168201915b50505050509080600201805461072790611eb8565b80601f016020809104026020016040519081016040528092919081815260200182805461075390611eb8565b80156107a05780601f10610775576101008083540402835291602001916107a0565b820191906000526020600020905b81548152906001019060200180831161078357829003601f168201915b5050505050908060030180546107b590611eb8565b80601f01602080910402602001604051908101604052809291908181526020018280546107e190611eb8565b801561082e5780601f106108035761010080835404028352916020019161082e565b820191906000526020600020905b81548152906001019060200180831161081157829003601f168201915b5050505050905084565b60076020528060005260406000206000915090505481565b600160205280600052604060002060009150905080600001549080600101805461087990611eb8565b80601f01602080910402602001604051908101604052809291908181526020018280546108a590611eb8565b80156108f25780601f106108c7576101008083540402835291602001916108f2565b820191906000526020600020905b8154815290600101906020018083116108d557829003601f168201915b50505050509080600201805461090790611eb8565b80601f016020809104026020016040519081016040528092919081815260200182805461093390611eb8565b80156109805780601f1061095557610100808354040283529160200191610980565b820191906000526020600020905b81548152906001019060200180831161096357829003601f168201915b5050505050908060030154908060040154908060050180546109a190611eb8565b80601f01602080910402602001604051908101604052809291908181526020018280546109cd90611eb8565b8015610a1a5780601f106109ef57610100808354040283529160200191610a1a565b820191906000526020600020905b8154815290600101906020018083116109fd57829003601f168201915b505050505090806006018054610a2f90611eb8565b80601f0160208091040260200160405190810160405280929190818152602001828054610a5b90611eb8565b8015610aa85780601f10610a7d57610100808354040283529160200191610aa8565b820191906000526020600020905b815481529060010190602001808311610a8b57829003601f168201915b5050505050908060070154908060080154908060090160009054906101000a900473ffffffffffffffffffffffffffffffffffffffff1690508a565b60006001600083815260200190815260200160002090508060030154341015610b42576040517f08c379a0000000000000000000000000000000000000000000000000000000008152600401610b399061221f565b60405180910390fd5b6000816004015411610b89576040517f08c379a0000000000000000000000000000000000000000000000000000000008152600401610b809061228b565b60405180910390fd5b806004016000815480929190610b9e906122ab565b91905055508060090160009054906101000a900473ffffffffffffffffffffffffffffffffffffffff1673ffffffffffffffffffffffffffffffffffffffff166108fc349081150290604051600060405180830381858888f19350505050158015610c0d573d6000803e3d6000fd5b504281600801819055505050565b6060600060066000848152602001908152602001600020805480602002602001604051908101604052809291908181526020018280548015610c7c57602002820191906000526020600020905b815481526020019060010190808311610c68575b505050505090506000815167ffffffffffffffff811115610ca057610c9f6113eb565b5b604051908082528060200260200182016040528015610cd957816020015b610cc66112c9565b815260200190600190039081610cbe5790505b50905060005b8251811015610e155760056000848381518110610cff57610cfe6122d4565b5b602002602001015181526020019081526020016000206040518060c001604052908160008201548152602001600182015481526020016002820154815260200160038201548152602001600482018054610d5890611eb8565b80601f0160208091040260200160405190810160405280929190818152602001828054610d8490611eb8565b8015610dd15780601f10610da657610100808354040283529160200191610dd1565b820191906000526020600020905b815481529060010190602001808311610db457829003601f168201915b50505050508152602001600582015481525050828281518110610df757610df66122d4565b5b60200260200101819052508080610e0d90611e41565b915050610cdf565b508092505050919050565b600080600190505b6003548111610e8657828051906020012060026000838152602001908152602001600020600301604051610e5c91906123a6565b604051809103902003610e73576001915050610e8c565b8080610e7e90611e41565b915050610e28565b50600090505b919050565b600060016000898152602001908152602001600020905086816001019081610eb99190612095565b5085816002019081610ecb9190612095565b5084816003018190555083816004018190555082816005019081610eef9190612095565b5081816006019081610f019190612095565b504281600801819055505050505050505050565b600080815480929190610f2790611e41565b919050555060405180610140016040528060005481526020018781526020018681526020018581526020018481526020018381526020018281526020014281526020014281526020013373ffffffffffffffffffffffffffffffffffffffff168152506001600080548152602001908152602001600020600082015181600001556020820151816001019081610fbd9190612095565b506040820151816002019081610fd39190612095565b50606082015181600301556080820151816004015560a0820151816005019081610ffd9190612095565b5060c08201518160060190816110139190612095565b5060e0820151816007015561010082015181600801556101208201518160090160006101000a81548173ffffffffffffffffffffffffffffffffffffffff021916908373ffffffffffffffffffffffffffffffffffffffff160217905550905050505050505050565b6003600081548092919061108f90611e41565b919050555060405180608001604052806003548152602001848152602001838152602001828152506002600060035481526020019081526020016000206000820151816000015560208201518160010190816110eb9190612095565b5060408201518160020190816111019190612095565b5060608201518160030190816111179190612095565b50905050505050565b60005481565b600560205280600052604060002060009150905080600001549080600101549080600201549080600301549080600401805461116190611eb8565b80601f016020809104026020016040519081016040528092919081815260200182805461118d90611eb8565b80156111da5780601f106111af576101008083540402835291602001916111da565b820191906000526020600020905b8154815290600101906020018083116111bd57829003601f168201915b5050505050908060050154905086565b6001600082815260200190815260200160002060008082016000905560018201600061121691906112ff565b60028201600061122691906112ff565b6003820160009055600482016000905560058201600061124691906112ff565b60068201600061125691906112ff565b600782016000905560088201600090556009820160006101000a81549073ffffffffffffffffffffffffffffffffffffffff0219169055505050565b60045481565b600660205281600052604060002081815481106112b457600080fd5b90600052602060002001600091509150505481565b6040518060c001604052806000815260200160008152602001600081526020016000815260200160608152602001600081525090565b50805461130b90611eb8565b6000825580601f1061131d575061133c565b601f01602090049060005260206000209081019061133b919061133f565b5b50565b5b80821115611358576000816000905550600101611340565b5090565b6000819050919050565b61136f8161135c565b82525050565b600060208201905061138a6000830184611366565b92915050565b6000604051905090565b600080fd5b600080fd5b6113ad8161135c565b81146113b857600080fd5b50565b6000813590506113ca816113a4565b92915050565b600080fd5b600080fd5b6000601f19601f8301169050919050565b7f4e487b7100000000000000000000000000000000000000000000000000000000600052604160045260246000fd5b611423826113da565b810181811067ffffffffffffffff82111715611442576114416113eb565b5b80604052505050565b6000611455611390565b9050611461828261141a565b919050565b600067ffffffffffffffff821115611481576114806113eb565b5b61148a826113da565b9050602081019050919050565b82818337600083830152505050565b60006114b96114b484611466565b61144b565b9050828152602081018484840111156114d5576114d46113d5565b5b6114e0848285611497565b509392505050565b600082601f8301126114fd576114fc6113d0565b5b813561150d8482602086016114a6565b91505092915050565b600080600080608085870312156115305761152f61139a565b5b600061153e878288016113bb565b945050602061154f878288016113bb565b9350506040611560878288016113bb565b925050606085013567ffffffffffffffff8111156115815761158061139f565b5b61158d878288016114e8565b91505092959194509250565b600073ffffffffffffffffffffffffffffffffffffffff82169050919050565b60006115c482611599565b9050919050565b6115d4816115b9565b81146115df57600080fd5b50565b6000813590506115f1816115cb565b92915050565b60006020828403121561160d5761160c61139a565b5b600061161b848285016115e2565b91505092915050565b60006020828403121561163a5761163961139a565b5b6000611648848285016113bb565b91505092915050565b600081519050919050565b600082825260208201905092915050565b60005b8381101561168b578082015181840152602081019050611670565b60008484015250505050565b60006116a282611651565b6116ac818561165c565b93506116bc81856020860161166d565b6116c5816113da565b840191505092915050565b60006080820190506116e56000830187611366565b81810360208301526116f78186611697565b9050818103604083015261170b8185611697565b9050818103606083015261171f8184611697565b905095945050505050565b600061173582611599565b9050919050565b6117458161172a565b82525050565b600061014082019050611761600083018d611366565b8181036020830152611773818c611697565b90508181036040830152611787818b611697565b9050611796606083018a611366565b6117a36080830189611366565b81810360a08301526117b58188611697565b905081810360c08301526117c98187611697565b90506117d860e0830186611366565b6117e6610100830185611366565b6117f461012083018461173c565b9b9a5050505050505050505050565b600081519050919050565b600082825260208201905092915050565b6000819050602082019050919050565b6118388161135c565b82525050565b600082825260208201905092915050565b600061185a82611651565b611864818561183e565b935061187481856020860161166d565b61187d816113da565b840191505092915050565b600060c0830160008301516118a0600086018261182f565b5060208301516118b3602086018261182f565b5060408301516118c6604086018261182f565b5060608301516118d9606086018261182f565b50608083015184820360808601526118f1828261184f565b91505060a083015161190660a086018261182f565b508091505092915050565b600061191d8383611888565b905092915050565b6000602082019050919050565b600061193d82611803565b611947818561180e565b9350836020820285016119598561181f565b8060005b8581101561199557848403895281516119768582611911565b945061198183611925565b925060208a0199505060018101905061195d565b50829750879550505050505092915050565b600060208201905081810360008301526119c18184611932565b905092915050565b6000602082840312156119df576119de61139a565b5b600082013567ffffffffffffffff8111156119fd576119fc61139f565b5b611a09848285016114e8565b91505092915050565b60008115159050919050565b611a2781611a12565b82525050565b6000602082019050611a426000830184611a1e565b92915050565b600080600080600080600060e0888a031215611a6757611a6661139a565b5b6000611a758a828b016113bb565b975050602088013567ffffffffffffffff811115611a9657611a9561139f565b5b611aa28a828b016114e8565b965050604088013567ffffffffffffffff811115611ac357611ac261139f565b5b611acf8a828b016114e8565b9550506060611ae08a828b016113bb565b9450506080611af18a828b016113bb565b93505060a088013567ffffffffffffffff811115611b1257611b1161139f565b5b611b1e8a828b016114e8565b92505060c088013567ffffffffffffffff811115611b3f57611b3e61139f565b5b611b4b8a828b016114e8565b91505092959891949750929550565b60008060008060008060c08789031215611b7757611b7661139a565b5b600087013567ffffffffffffffff811115611b9557611b9461139f565b5b611ba189828a016114e8565b965050602087013567ffffffffffffffff811115611bc257611bc161139f565b5b611bce89828a016114e8565b9550506040611bdf89828a016113bb565b9450506060611bf089828a016113bb565b935050608087013567ffffffffffffffff811115611c1157611c1061139f565b5b611c1d89828a016114e8565b92505060a087013567ffffffffffffffff811115611c3e57611c3d61139f565b5b611c4a89828a016114e8565b9150509295509295509295565b600080600060608486031215611c7057611c6f61139a565b5b600084013567ffffffffffffffff811115611c8e57611c8d61139f565b5b611c9a868287016114e8565b935050602084013567ffffffffffffffff811115611cbb57611cba61139f565b5b611cc7868287016114e8565b925050604084013567ffffffffffffffff811115611ce857611ce761139f565b5b611cf4868287016114e8565b9150509250925092565b600060c082019050611d136000830189611366565b611d206020830188611366565b611d2d6040830187611366565b611d3a6060830186611366565b8181036080830152611d4c8185611697565b9050611d5b60a0830184611366565b979650505050505050565b60008060408385031215611d7d57611d7c61139a565b5b6000611d8b858286016113bb565b9250506020611d9c858286016113bb565b9150509250929050565b7f496e76616c696420726174696e672076616c7565000000000000000000000000600082015250565b6000611ddc60148361165c565b9150611de782611da6565b602082019050919050565b60006020820190508181036000830152611e0b81611dcf565b9050919050565b7f4e487b7100000000000000000000000000000000000000000000000000000000600052601160045260246000fd5b6000611e4c8261135c565b91507fffffffffffffffffffffffffffffffffffffffffffffffffffffffffffffffff8203611e7e57611e7d611e12565b5b600182019050919050565b7f4e487b7100000000000000000000000000000000000000000000000000000000600052602260045260246000fd5b60006002820490506001821680611ed057607f821691505b602082108103611ee357611ee2611e89565b5b50919050565b60008190508160005260206000209050919050565b60006020601f8301049050919050565b600082821b905092915050565b600060088302611f4b7fffffffffffffffffffffffffffffffffffffffffffffffffffffffffffffffff82611f0e565b611f558683611f0e565b95508019841693508086168417925050509392505050565b6000819050919050565b6000611f92611f8d611f888461135c565b611f6d565b61135c565b9050919050565b6000819050919050565b611fac83611f77565b611fc0611fb882611f99565b848454611f1b565b825550505050565b600090565b611fd5611fc8565b611fe0818484611fa3565b505050565b5b8181101561200457611ff9600082611fcd565b600181019050611fe6565b5050565b601f8211156120495761201a81611ee9565b61202384611efe565b81016020851015612032578190505b61204661203e85611efe565b830182611fe5565b50505b505050565b600082821c905092915050565b600061206c6000198460080261204e565b1980831691505092915050565b6000612085838361205b565b9150826002028217905092915050565b61209e82611651565b67ffffffffffffffff8111156120b7576120b66113eb565b5b6120c18254611eb8565b6120cc828285612008565b600060209050601f8311600181146120ff57600084156120ed578287015190505b6120f78582612079565b86555061215f565b601f19841661210d86611ee9565b60005b8281101561213557848901518255600182019150602085019450602081019050612110565b86831015612152578489015161214e601f89168261205b565b8355505b6001600288020188555050505b505050505050565b7f55736572206e6f74207265676973746572656400000000000000000000000000600082015250565b600061219d60138361165c565b91506121a882612167565b602082019050919050565b600060208201905081810360008301526121cc81612190565b9050919050565b7f4e6f7420656e6f7567682066756e647300000000000000000000000000000000600082015250565b600061220960108361165c565b9150612214826121d3565b602082019050919050565b60006020820190508181036000830152612238816121fc565b9050919050565b7f50726f64756374206f7574206f662073746f636b000000000000000000000000600082015250565b600061227560148361165c565b91506122808261223f565b602082019050919050565b600060208201905081810360008301526122a481612268565b9050919050565b60006122b68261135c565b9150600082036122c9576122c8611e12565b5b600182039050919050565b7f4e487b7100000000000000000000000000000000000000000000000000000000600052603260045260246000fd5b600081905092915050565b60008190508160005260206000209050919050565b6000815461233081611eb8565b61233a8186612303565b94506001821660008114612355576001811461236a5761239d565b60ff198316865281151582028601935061239d565b6123738561230e565b60005b8381101561239557815481890152600182019150602081019050612376565b838801955050505b50505092915050565b60006123b28284612323565b91508190509291505056fea26469706673582212206f4b9430392e77a167c24e3f0c5b3bb4b6db7affdb1d415f99bbd015f0f6611664736f6c63430008110033",
  "linkReferences": {},
  "deployedLinkReferences": {}
}