{
  "_format": "hh-sol-artifact-1",
  "contractName": "Marketplace",
  "sourceName": "contracts/Marketplace.sol",
  "abi": [
    {
      "inputs": [
        {
          "internalType": "uint256",
          "name": "id",
          "type": "uint256"
        },
        {
          "internalType": "string",
          "name": "title",
          "type": "string"
        },
        {
          "internalType": "string",
          "name": "content",
          "type": "string"
        },
        {
          "internalType": "string",
          "name": "image",
          "type": "string"
        },
        {
          "internalType": "uint256",
          "name": "createAt",
          "type": "uint256"
        },
        {
          "internalType": "uint256",
          "name": "updateAt",
          "type": "uint256"
        }
      ],
      "name": "addNews",
      "outputs": [],
      "stateMutability": "nonpayable",
      "type": "function"
    },
    {
      "inputs": [
        {
          "internalType": "string",
          "name": "_name",
          "type": "string"
        },
        {
          "internalType": "string",
          "name": "_description",
          "type": "string"
        },
        {
          "internalType": "uint256",
          "name": "_price",
          "type": "uint256"
        },
        {
          "internalType": "uint256",
          "name": "_stock",
          "type": "uint256"
        },
        {
          "internalType": "string",
          "name": "_imageURL",
          "type": "string"
        },
        {
          "internalType": "string",
          "name": "_category",
          "type": "string"
        }
      ],
      "name": "addProduct",
      "outputs": [],
      "stateMutability": "nonpayable",
      "type": "function"
    },
    {
      "inputs": [
        {
          "internalType": "uint256",
          "name": "_productId",
          "type": "uint256"
        },
        {
          "internalType": "uint256",
          "name": "_userId",
          "type": "uint256"
        },
        {
          "internalType": "uint256",
          "name": "_rating",
          "type": "uint256"
        },
        {
          "internalType": "string",
          "name": "_comment",
          "type": "string"
        }
      ],
      "name": "addReview",
      "outputs": [],
      "stateMutability": "nonpayable",
      "type": "function"
    },
    {
      "inputs": [
        {
          "internalType": "uint256[]",
          "name": "_productIds",
          "type": "uint256[]"
        }
      ],
      "name": "buyMultipleProducts",
      "outputs": [],
      "stateMutability": "payable",
      "type": "function"
    },
    {
      "inputs": [
        {
          "internalType": "uint256",
          "name": "_productId",
          "type": "uint256"
        }
      ],
      "name": "buyProduct",
      "outputs": [],
      "stateMutability": "payable",
      "type": "function"
    },
    {
      "inputs": [
        {
          "internalType": "uint256",
          "name": "_productId",
          "type": "uint256"
        }
      ],
      "name": "deleteProduct",
      "outputs": [],
      "stateMutability": "nonpayable",
      "type": "function"
    },
    {
      "inputs": [
        {
          "internalType": "uint256",
          "name": "_id",
          "type": "uint256"
        }
      ],
      "name": "getNews",
      "outputs": [
        {
          "components": [
            {
              "internalType": "uint256",
              "name": "id",
              "type": "uint256"
            },
            {
              "internalType": "string",
              "name": "title",
              "type": "string"
            },
            {
              "internalType": "string",
              "name": "content",
              "type": "string"
            },
            {
              "internalType": "string",
              "name": "image",
              "type": "string"
            },
            {
              "internalType": "uint256",
              "name": "createAt",
              "type": "uint256"
            },
            {
              "internalType": "uint256",
              "name": "updateAt",
              "type": "uint256"
            }
          ],
          "internalType": "struct Marketplace.News",
          "name": "",
          "type": "tuple"
        }
      ],
      "stateMutability": "view",
      "type": "function"
    },
    {
      "inputs": [],
      "name": "getNewsCount",
      "outputs": [
        {
          "internalType": "uint256",
          "name": "",
          "type": "uint256"
        }
      ],
      "stateMutability": "view",
      "type": "function"
    },
    {
      "inputs": [
        {
          "internalType": "uint256",
          "name": "_productId",
          "type": "uint256"
        }
      ],
      "name": "getReviews",
      "outputs": [
        {
          "components": [
            {
              "internalType": "uint256",
              "name": "reviewId",
              "type": "uint256"
            },
            {
              "internalType": "uint256",
              "name": "userId",
              "type": "uint256"
            },
            {
              "internalType": "uint256",
              "name": "productId",
              "type": "uint256"
            },
            {
              "internalType": "uint256",
              "name": "rating",
              "type": "uint256"
            },
            {
              "internalType": "string",
              "name": "comment",
              "type": "string"
            },
            {
              "internalType": "uint256",
              "name": "createdAt",
              "type": "uint256"
            }
          ],
          "internalType": "struct Marketplace.Review[]",
          "name": "",
          "type": "tuple[]"
        }
      ],
      "stateMutability": "view",
      "type": "function"
    },
    {
      "inputs": [
        {
          "internalType": "string",
          "name": "_walletAddress",
          "type": "string"
        }
      ],
      "name": "getUserId",
      "outputs": [
        {
          "internalType": "uint256",
          "name": "",
          "type": "uint256"
        }
      ],
      "stateMutability": "view",
      "type": "function"
    },
    {
      "inputs": [
        {
          "internalType": "uint256",
          "name": "_userId",
          "type": "uint256"
        }
      ],
      "name": "getUsername",
      "outputs": [
        {
          "internalType": "string",
          "name": "",
          "type": "string"
        }
      ],
      "stateMutability": "view",
      "type": "function"
    },
    {
      "inputs": [
        {
          "internalType": "string",
          "name": "_walletAddress",
          "type": "string"
        }
      ],
      "name": "isUserRegistered",
      "outputs": [
        {
          "internalType": "bool",
          "name": "",
          "type": "bool"
        }
      ],
      "stateMutability": "view",
      "type": "function"
    },
    {
      "inputs": [],
      "name": "newsCount",
      "outputs": [
        {
          "internalType": "uint256",
          "name": "",
          "type": "uint256"
        }
      ],
      "stateMutability": "view",
      "type": "function"
    },
    {
      "inputs": [
        {
          "internalType": "uint256",
          "name": "",
          "type": "uint256"
        }
      ],
      "name": "newsList",
      "outputs": [
        {
          "internalType": "uint256",
          "name": "id",
          "type": "uint256"
        },
        {
          "internalType": "string",
          "name": "title",
          "type": "string"
        },
        {
          "internalType": "string",
          "name": "content",
          "type": "string"
        },
        {
          "internalType": "string",
          "name": "image",
          "type": "string"
        },
        {
          "internalType": "uint256",
          "name": "createAt",
          "type": "uint256"
        },
        {
          "internalType": "uint256",
          "name": "updateAt",
          "type": "uint256"
        }
      ],
      "stateMutability": "view",
      "type": "function"
    },
    {
      "inputs": [],
      "name": "productCount",
      "outputs": [
        {
          "internalType": "uint256",
          "name": "",
          "type": "uint256"
        }
      ],
      "stateMutability": "view",
      "type": "function"
    },
    {
      "inputs": [
        {
          "internalType": "uint256",
          "name": "",
          "type": "uint256"
        },
        {
          "internalType": "uint256",
          "name": "",
          "type": "uint256"
        }
      ],
      "name": "productReviews",
      "outputs": [
        {
          "internalType": "uint256",
          "name": "",
          "type": "uint256"
        }
      ],
      "stateMutability": "view",
      "type": "function"
    },
    {
      "inputs": [
        {
          "internalType": "uint256",
          "name": "",
          "type": "uint256"
        }
      ],
      "name": "products",
      "outputs": [
        {
          "internalType": "uint256",
          "name": "productId",
          "type": "uint256"
        },
        {
          "internalType": "string",
          "name": "name",
          "type": "string"
        },
        {
          "internalType": "string",
          "name": "description",
          "type": "string"
        },
        {
          "internalType": "uint256",
          "name": "price",
          "type": "uint256"
        },
        {
          "internalType": "uint256",
          "name": "stock",
          "type": "uint256"
        },
        {
          "internalType": "string",
          "name": "imageURL",
          "type": "string"
        },
        {
          "internalType": "string",
          "name": "category",
          "type": "string"
        },
        {
          "internalType": "uint256",
          "name": "createdAt",
          "type": "uint256"
        },
        {
          "internalType": "uint256",
          "name": "updatedAt",
          "type": "uint256"
        },
        {
          "internalType": "address payable",
          "name": "seller",
          "type": "address"
        }
      ],
      "stateMutability": "view",
      "type": "function"
    },
    {
      "inputs": [
        {
          "internalType": "string",
          "name": "_username",
          "type": "string"
        },
        {
          "internalType": "string",
          "name": "_email",
          "type": "string"
        },
        {
          "internalType": "string",
          "name": "_walletAddress",
          "type": "string"
        }
      ],
      "name": "registerUser",
      "outputs": [],
      "stateMutability": "nonpayable",
      "type": "function"
    },
    {
      "inputs": [],
      "name": "reviewCount",
      "outputs": [
        {
          "internalType": "uint256",
          "name": "",
          "type": "uint256"
        }
      ],
      "stateMutability": "view",
      "type": "function"
    },
    {
      "inputs": [
        {
          "internalType": "uint256",
          "name": "",
          "type": "uint256"
        }
      ],
      "name": "reviews",
      "outputs": [
        {
          "internalType": "uint256",
          "name": "reviewId",
          "type": "uint256"
        },
        {
          "internalType": "uint256",
          "name": "userId",
          "type": "uint256"
        },
        {
          "internalType": "uint256",
          "name": "productId",
          "type": "uint256"
        },
        {
          "internalType": "uint256",
          "name": "rating",
          "type": "uint256"
        },
        {
          "internalType": "string",
          "name": "comment",
          "type": "string"
        },
        {
          "internalType": "uint256",
          "name": "createdAt",
          "type": "uint256"
        }
      ],
      "stateMutability": "view",
      "type": "function"
    },
    {
      "inputs": [
        {
          "internalType": "uint256",
          "name": "_productId",
          "type": "uint256"
        },
        {
          "internalType": "string",
          "name": "_name",
          "type": "string"
        },
        {
          "internalType": "string",
          "name": "_description",
          "type": "string"
        },
        {
          "internalType": "uint256",
          "name": "_price",
          "type": "uint256"
        },
        {
          "internalType": "uint256",
          "name": "_stock",
          "type": "uint256"
        },
        {
          "internalType": "string",
          "name": "_imageURL",
          "type": "string"
        },
        {
          "internalType": "string",
          "name": "_category",
          "type": "string"
        }
      ],
      "name": "updateProduct",
      "outputs": [],
      "stateMutability": "nonpayable",
      "type": "function"
    },
    {
      "inputs": [],
      "name": "userCount",
      "outputs": [
        {
          "internalType": "uint256",
          "name": "",
          "type": "uint256"
        }
      ],
      "stateMutability": "view",
      "type": "function"
    },
    {
      "inputs": [
        {
          "internalType": "uint256",
          "name": "",
          "type": "uint256"
        }
      ],
      "name": "users",
      "outputs": [
        {
          "internalType": "uint256",
          "name": "userId",
          "type": "uint256"
        },
        {
          "internalType": "string",
          "name": "username",
          "type": "string"
        },
        {
          "internalType": "string",
          "name": "email",
          "type": "string"
        },
        {
          "internalType": "string",
          "name": "walletAddress",
          "type": "string"
        }
      ],
      "stateMutability": "view",
      "type": "function"
    }
  ],
  "bytecode": "0x608060405234801561001057600080fd5b5061314e806100206000396000f3fe6080604052600436106101405760003560e01c8063ba53911b116100b6578063e83ddcea1161006f578063e83ddcea14610496578063ed90c7b7146104d8578063eff5924f14610501578063f18d18cc1461052c578063f2943dce14610569578063fcf6a01b146105a657610140565b8063ba53911b14610376578063c33d392f146103b3578063c4ec4f05146103dc578063d637dcfa14610405578063db1ef71f1461042e578063e0f6ef871461046b57610140565b80635872f039116101085780635872f0391461022d5780637acc0b201461026f5780638642269e146102b55780639981d6d3146102d15780639d4a2255146102fc578063a8cc77841461033957610140565b806307973ccf146101455780630a188dd11461017057806310ed96fa14610199578063184c6aa3146101c2578063365b98b2146101ed575b600080fd5b34801561015157600080fd5b5061015a6105c2565b6040516101679190611c6c565b60405180910390f35b34801561017c57600080fd5b5061019760048036038101906101929190611e0d565b6105c8565b005b3480156101a557600080fd5b506101c060048036038101906101bb9190611eee565b61068d565b005b3480156101ce57600080fd5b506101d76107c7565b6040516101e49190611c6c565b60405180910390f35b3480156101f957600080fd5b50610214600480360381019061020f9190611f71565b6107d1565b604051610224949392919061201d565b60405180910390f35b34801561023957600080fd5b50610254600480360381019061024f9190611f71565b610999565b60405161026696959493929190612077565b60405180910390f35b34801561027b57600080fd5b5061029660048036038101906102919190611f71565b610b6d565b6040516102ac9a9998979695949392919061212e565b60405180910390f35b6102cf60048036038101906102ca9190611f71565b610e01565b005b3480156102dd57600080fd5b506102e6610f38565b6040516102f39190611c6c565b60405180910390f35b34801561030857600080fd5b50610323600480360381019061031e9190611f71565b610f3e565b604051610330919061238a565b60405180910390f35b34801561034557600080fd5b50610360600480360381019061035b91906123ac565b611143565b60405161036d9190612410565b60405180910390f35b34801561038257600080fd5b5061039d60048036038101906103989190611f71565b6111b4565b6040516103aa91906124c2565b60405180910390f35b3480156103bf57600080fd5b506103da60048036038101906103d591906124e4565b6113b5565b005b3480156103e857600080fd5b5061040360048036038101906103fe91906125f6565b611439565b005b34801561041157600080fd5b5061042c600480360381019061042791906126f3565b6115a0565b005b34801561043a57600080fd5b50610455600480360381019061045091906123ac565b611644565b6040516104629190611c6c565b60405180910390f35b34801561047757600080fd5b50610480611700565b60405161048d9190611c6c565b60405180910390f35b3480156104a257600080fd5b506104bd60048036038101906104b89190611f71565b611706565b6040516104cf9695949392919061279a565b60405180910390f35b3480156104e457600080fd5b506104ff60048036038101906104fa9190611f71565b6117ca565b005b34801561050d57600080fd5b50610516611872565b6040516105239190611c6c565b60405180910390f35b34801561053857600080fd5b50610553600480360381019061054e9190611f71565b611878565b6040516105609190612802565b60405180910390f35b34801561057557600080fd5b50610590600480360381019061058b9190612824565b611920565b60405161059d9190611c6c565b60405180910390f35b6105c060048036038101906105bb919061292c565b611951565b005b60035481565b600760008154809291906105db906129a4565b91905055506040518060c00160405280878152602001868152602001858152602001848152602001838152602001828152506008600060075481526020019081526020016000206000820151816000015560208201518160010190816106419190612bf8565b5060408201518160020190816106579190612bf8565b50606082015181600301908161066d9190612bf8565b506080820151816004015560a08201518160050155905050505050505050565b6001821015801561069f575060058211155b6106de576040517f08c379a00000000000000000000000000000000000000000000000000000000081526004016106d590612d16565b60405180910390fd5b600460008154809291906106f1906129a4565b91905055506040518060c001604052806004548152602001848152602001858152602001838152602001828152602001428152506005600060045481526020019081526020016000206000820151816000015560208201518160010155604082015181600201556060820151816003015560808201518160040190816107779190612bf8565b5060a0820151816005015590505060066000858152602001908152602001600020600454908060018154018082558091505060019003906000526020600020016000909190919091505550505050565b6000600754905090565b60026020528060005260406000206000915090508060000154908060010180546107fa90612a1b565b80601f016020809104026020016040519081016040528092919081815260200182805461082690612a1b565b80156108735780601f1061084857610100808354040283529160200191610873565b820191906000526020600020905b81548152906001019060200180831161085657829003601f168201915b50505050509080600201805461088890612a1b565b80601f01602080910402602001604051908101604052809291908181526020018280546108b490612a1b565b80156109015780601f106108d657610100808354040283529160200191610901565b820191906000526020600020905b8154815290600101906020018083116108e457829003601f168201915b50505050509080600301805461091690612a1b565b80601f016020809104026020016040519081016040528092919081815260200182805461094290612a1b565b801561098f5780601f106109645761010080835404028352916020019161098f565b820191906000526020600020905b81548152906001019060200180831161097257829003601f168201915b5050505050905084565b60086020528060005260406000206000915090508060000154908060010180546109c290612a1b565b80601f01602080910402602001604051908101604052809291908181526020018280546109ee90612a1b565b8015610a3b5780601f10610a1057610100808354040283529160200191610a3b565b820191906000526020600020905b815481529060010190602001808311610a1e57829003601f168201915b505050505090806002018054610a5090612a1b565b80601f0160208091040260200160405190810160405280929190818152602001828054610a7c90612a1b565b8015610ac95780601f10610a9e57610100808354040283529160200191610ac9565b820191906000526020600020905b815481529060010190602001808311610aac57829003601f168201915b505050505090806003018054610ade90612a1b565b80601f0160208091040260200160405190810160405280929190818152602001828054610b0a90612a1b565b8015610b575780601f10610b2c57610100808354040283529160200191610b57565b820191906000526020600020905b815481529060010190602001808311610b3a57829003601f168201915b5050505050908060040154908060050154905086565b6001602052806000526040600020600091509050806000015490806001018054610b9690612a1b565b80601f0160208091040260200160405190810160405280929190818152602001828054610bc290612a1b565b8015610c0f5780601f10610be457610100808354040283529160200191610c0f565b820191906000526020600020905b815481529060010190602001808311610bf257829003601f168201915b505050505090806002018054610c2490612a1b565b80601f0160208091040260200160405190810160405280929190818152602001828054610c5090612a1b565b8015610c9d5780601f10610c7257610100808354040283529160200191610c9d565b820191906000526020600020905b815481529060010190602001808311610c8057829003601f168201915b505050505090806003015490806004015490806005018054610cbe90612a1b565b80601f0160208091040260200160405190810160405280929190818152602001828054610cea90612a1b565b8015610d375780601f10610d0c57610100808354040283529160200191610d37565b820191906000526020600020905b815481529060010190602001808311610d1a57829003601f168201915b505050505090806006018054610d4c90612a1b565b80601f0160208091040260200160405190810160405280929190818152602001828054610d7890612a1b565b8015610dc55780601f10610d9a57610100808354040283529160200191610dc5565b820191906000526020600020905b815481529060010190602001808311610da857829003601f168201915b5050505050908060070154908060080154908060090160009054906101000a900473ffffffffffffffffffffffffffffffffffffffff1690508a565b60006001600083815260200190815260200160002090508060030154341015610e5f576040517f08c379a0000000000000000000000000000000000000000000000000000000008152600401610e5690612d82565b60405180910390fd5b6000816004015411610ea6576040517f08c379a0000000000000000000000000000000000000000000000000000000008152600401610e9d90612dee565b60405180910390fd5b806004016000815480929190610ebb90612e0e565b91905055508060090160009054906101000a900473ffffffffffffffffffffffffffffffffffffffff1673ffffffffffffffffffffffffffffffffffffffff166108fc349081150290604051600060405180830381858888f19350505050158015610f2a573d6000803e3d6000fd5b504281600801819055505050565b60075481565b6060600060066000848152602001908152602001600020805480602002602001604051908101604052809291908181526020018280548015610f9f57602002820191906000526020600020905b815481526020019060010190808311610f8b575b505050505090506000815167ffffffffffffffff811115610fc357610fc2611ce2565b5b604051908082528060200260200182016040528015610ffc57816020015b610fe9611b8a565b815260200190600190039081610fe15790505b50905060005b8251811015611138576005600084838151811061102257611021612e37565b5b602002602001015181526020019081526020016000206040518060c00160405290816000820154815260200160018201548152602001600282015481526020016003820154815260200160048201805461107b90612a1b565b80601f01602080910402602001604051908101604052809291908181526020018280546110a790612a1b565b80156110f45780601f106110c9576101008083540402835291602001916110f4565b820191906000526020600020905b8154815290600101906020018083116110d757829003601f168201915b5050505050815260200160058201548152505082828151811061111a57611119612e37565b5b60200260200101819052508080611130906129a4565b915050611002565b508092505050919050565b600080600190505b60035481116111a95782805190602001206002600083815260200190815260200160002060030160405161117f9190612f09565b6040518091039020036111965760019150506111af565b80806111a1906129a4565b91505061114b565b50600090505b919050565b6111bc611bc0565b600860008381526020019081526020016000206040518060c0016040529081600082015481526020016001820180546111f490612a1b565b80601f016020809104026020016040519081016040528092919081815260200182805461122090612a1b565b801561126d5780601f106112425761010080835404028352916020019161126d565b820191906000526020600020905b81548152906001019060200180831161125057829003601f168201915b5050505050815260200160028201805461128690612a1b565b80601f01602080910402602001604051908101604052809291908181526020018280546112b290612a1b565b80156112ff5780601f106112d4576101008083540402835291602001916112ff565b820191906000526020600020905b8154815290600101906020018083116112e257829003601f168201915b5050505050815260200160038201805461131890612a1b565b80601f016020809104026020016040519081016040528092919081815260200182805461134490612a1b565b80156113915780601f1061136657610100808354040283529160200191611391565b820191906000526020600020905b81548152906001019060200180831161137457829003601f168201915b50505050508152602001600482015481526020016005820154815250509050919050565b6000600160008981526020019081526020016000209050868160010190816113dd9190612bf8565b50858160020190816113ef9190612bf8565b50848160030181905550838160040181905550828160050190816114139190612bf8565b50818160060190816114259190612bf8565b504281600801819055505050505050505050565b60008081548092919061144b906129a4565b919050555060405180610140016040528060005481526020018781526020018681526020018581526020018481526020018381526020018281526020014281526020014281526020013373ffffffffffffffffffffffffffffffffffffffff1681525060016000805481526020019081526020016000206000820151816000015560208201518160010190816114e19190612bf8565b5060408201518160020190816114f79190612bf8565b50606082015181600301556080820151816004015560a08201518160050190816115219190612bf8565b5060c08201518160060190816115379190612bf8565b5060e0820151816007015561010082015181600801556101208201518160090160006101000a81548173ffffffffffffffffffffffffffffffffffffffff021916908373ffffffffffffffffffffffffffffffffffffffff160217905550905050505050505050565b600360008154809291906115b3906129a4565b9190505550604051806080016040528060035481526020018481526020018381526020018281525060026000600354815260200190815260200160002060008201518160000155602082015181600101908161160f9190612bf8565b5060408201518160020190816116259190612bf8565b50606082015181600301908161163b9190612bf8565b50905050505050565b600080600190505b60035481116116bf578280519060200120600260008381526020019081526020016000206003016040516116809190612f09565b6040518091039020036116ac5760026000828152602001908152602001600020600001549150506116fb565b80806116b7906129a4565b91505061164c565b506040517f08c379a00000000000000000000000000000000000000000000000000000000081526004016116f290612f6c565b60405180910390fd5b919050565b60005481565b600560205280600052604060002060009150905080600001549080600101549080600201549080600301549080600401805461174190612a1b565b80601f016020809104026020016040519081016040528092919081815260200182805461176d90612a1b565b80156117ba5780601f1061178f576101008083540402835291602001916117ba565b820191906000526020600020905b81548152906001019060200180831161179d57829003601f168201915b5050505050908060050154905086565b600160008281526020019081526020016000206000808201600090556001820160006117f69190611bf6565b6002820160006118069190611bf6565b600382016000905560048201600090556005820160006118269190611bf6565b6006820160006118369190611bf6565b600782016000905560088201600090556009820160006101000a81549073ffffffffffffffffffffffffffffffffffffffff0219169055505050565b60045481565b606060026000838152602001908152602001600020600101805461189b90612a1b565b80601f01602080910402602001604051908101604052809291908181526020018280546118c790612a1b565b80156119145780601f106118e957610100808354040283529160200191611914565b820191906000526020600020905b8154815290600101906020018083116118f757829003601f168201915b50505050509050919050565b6006602052816000526040600020818154811061193c57600080fd5b90600052602060002001600091509150505481565b6000805b82518110156119fc5760006001600085848151811061197757611976612e37565b5b60200260200101518152602001908152602001600020905060008160040154116119d6576040517f08c379a00000000000000000000000000000000000000000000000000000000081526004016119cd90612ffe565b60405180910390fd5b8060030154836119e6919061301e565b92505080806119f4906129a4565b915050611955565b5080341015611a40576040517f08c379a0000000000000000000000000000000000000000000000000000000008152600401611a37906130c4565b60405180910390fd5b60005b8251811015611b2357600060016000858481518110611a6557611a64612e37565b5b602002602001015181526020019081526020016000209050806004016000815480929190611a9290612e0e565b91905055508060090160009054906101000a900473ffffffffffffffffffffffffffffffffffffffff1673ffffffffffffffffffffffffffffffffffffffff166108fc82600301549081150290604051600060405180830381858888f19350505050158015611b05573d6000803e3d6000fd5b50428160080181905550508080611b1b906129a4565b915050611a43565b5060008134611b3291906130e4565b90506000811115611b85573373ffffffffffffffffffffffffffffffffffffffff166108fc829081150290604051600060405180830381858888f19350505050158015611b83573d6000803e3d6000fd5b505b505050565b6040518060c001604052806000815260200160008152602001600081526020016000815260200160608152602001600081525090565b6040518060c001604052806000815260200160608152602001606081526020016060815260200160008152602001600081525090565b508054611c0290612a1b565b6000825580601f10611c145750611c33565b601f016020900490600052602060002090810190611c329190611c36565b5b50565b5b80821115611c4f576000816000905550600101611c37565b5090565b6000819050919050565b611c6681611c53565b82525050565b6000602082019050611c816000830184611c5d565b92915050565b6000604051905090565b600080fd5b600080fd5b611ca481611c53565b8114611caf57600080fd5b50565b600081359050611cc181611c9b565b92915050565b600080fd5b600080fd5b6000601f19601f8301169050919050565b7f4e487b7100000000000000000000000000000000000000000000000000000000600052604160045260246000fd5b611d1a82611cd1565b810181811067ffffffffffffffff82111715611d3957611d38611ce2565b5b80604052505050565b6000611d4c611c87565b9050611d588282611d11565b919050565b600067ffffffffffffffff821115611d7857611d77611ce2565b5b611d8182611cd1565b9050602081019050919050565b82818337600083830152505050565b6000611db0611dab84611d5d565b611d42565b905082815260208101848484011115611dcc57611dcb611ccc565b5b611dd7848285611d8e565b509392505050565b600082601f830112611df457611df3611cc7565b5b8135611e04848260208601611d9d565b91505092915050565b60008060008060008060c08789031215611e2a57611e29611c91565b5b6000611e3889828a01611cb2565b965050602087013567ffffffffffffffff811115611e5957611e58611c96565b5b611e6589828a01611ddf565b955050604087013567ffffffffffffffff811115611e8657611e85611c96565b5b611e9289828a01611ddf565b945050606087013567ffffffffffffffff811115611eb357611eb2611c96565b5b611ebf89828a01611ddf565b9350506080611ed089828a01611cb2565b92505060a0611ee189828a01611cb2565b9150509295509295509295565b60008060008060808587031215611f0857611f07611c91565b5b6000611f1687828801611cb2565b9450506020611f2787828801611cb2565b9350506040611f3887828801611cb2565b925050606085013567ffffffffffffffff811115611f5957611f58611c96565b5b611f6587828801611ddf565b91505092959194509250565b600060208284031215611f8757611f86611c91565b5b6000611f9584828501611cb2565b91505092915050565b600081519050919050565b600082825260208201905092915050565b60005b83811015611fd8578082015181840152602081019050611fbd565b60008484015250505050565b6000611fef82611f9e565b611ff98185611fa9565b9350612009818560208601611fba565b61201281611cd1565b840191505092915050565b60006080820190506120326000830187611c5d565b81810360208301526120448186611fe4565b905081810360408301526120588185611fe4565b9050818103606083015261206c8184611fe4565b905095945050505050565b600060c08201905061208c6000830189611c5d565b818103602083015261209e8188611fe4565b905081810360408301526120b28187611fe4565b905081810360608301526120c68186611fe4565b90506120d56080830185611c5d565b6120e260a0830184611c5d565b979650505050505050565b600073ffffffffffffffffffffffffffffffffffffffff82169050919050565b6000612118826120ed565b9050919050565b6121288161210d565b82525050565b600061014082019050612144600083018d611c5d565b8181036020830152612156818c611fe4565b9050818103604083015261216a818b611fe4565b9050612179606083018a611c5d565b6121866080830189611c5d565b81810360a08301526121988188611fe4565b905081810360c08301526121ac8187611fe4565b90506121bb60e0830186611c5d565b6121c9610100830185611c5d565b6121d761012083018461211f565b9b9a5050505050505050505050565b600081519050919050565b600082825260208201905092915050565b6000819050602082019050919050565b61221b81611c53565b82525050565b600082825260208201905092915050565b600061223d82611f9e565b6122478185612221565b9350612257818560208601611fba565b61226081611cd1565b840191505092915050565b600060c0830160008301516122836000860182612212565b5060208301516122966020860182612212565b5060408301516122a96040860182612212565b5060608301516122bc6060860182612212565b50608083015184820360808601526122d48282612232565b91505060a08301516122e960a0860182612212565b508091505092915050565b6000612300838361226b565b905092915050565b6000602082019050919050565b6000612320826121e6565b61232a81856121f1565b93508360208202850161233c85612202565b8060005b85811015612378578484038952815161235985826122f4565b945061236483612308565b925060208a01995050600181019050612340565b50829750879550505050505092915050565b600060208201905081810360008301526123a48184612315565b905092915050565b6000602082840312156123c2576123c1611c91565b5b600082013567ffffffffffffffff8111156123e0576123df611c96565b5b6123ec84828501611ddf565b91505092915050565b60008115159050919050565b61240a816123f5565b82525050565b60006020820190506124256000830184612401565b92915050565b600060c0830160008301516124436000860182612212565b506020830151848203602086015261245b8282612232565b915050604083015184820360408601526124758282612232565b9150506060830151848203606086015261248f8282612232565b91505060808301516124a46080860182612212565b5060a08301516124b760a0860182612212565b508091505092915050565b600060208201905081810360008301526124dc818461242b565b905092915050565b600080600080600080600060e0888a03121561250357612502611c91565b5b60006125118a828b01611cb2565b975050602088013567ffffffffffffffff81111561253257612531611c96565b5b61253e8a828b01611ddf565b965050604088013567ffffffffffffffff81111561255f5761255e611c96565b5b61256b8a828b01611ddf565b955050606061257c8a828b01611cb2565b945050608061258d8a828b01611cb2565b93505060a088013567ffffffffffffffff8111156125ae576125ad611c96565b5b6125ba8a828b01611ddf565b92505060c088013567ffffffffffffffff8111156125db576125da611c96565b5b6125e78a828b01611ddf565b91505092959891949750929550565b60008060008060008060c0878903121561261357612612611c91565b5b600087013567ffffffffffffffff81111561263157612630611c96565b5b61263d89828a01611ddf565b965050602087013567ffffffffffffffff81111561265e5761265d611c96565b5b61266a89828a01611ddf565b955050604061267b89828a01611cb2565b945050606061268c89828a01611cb2565b935050608087013567ffffffffffffffff8111156126ad576126ac611c96565b5b6126b989828a01611ddf565b92505060a087013567ffffffffffffffff8111156126da576126d9611c96565b5b6126e689828a01611ddf565b9150509295509295509295565b60008060006060848603121561270c5761270b611c91565b5b600084013567ffffffffffffffff81111561272a57612729611c96565b5b61273686828701611ddf565b935050602084013567ffffffffffffffff81111561275757612756611c96565b5b61276386828701611ddf565b925050604084013567ffffffffffffffff81111561278457612783611c96565b5b61279086828701611ddf565b9150509250925092565b600060c0820190506127af6000830189611c5d565b6127bc6020830188611c5d565b6127c96040830187611c5d565b6127d66060830186611c5d565b81810360808301526127e88185611fe4565b90506127f760a0830184611c5d565b979650505050505050565b6000602082019050818103600083015261281c8184611fe4565b905092915050565b6000806040838503121561283b5761283a611c91565b5b600061284985828601611cb2565b925050602061285a85828601611cb2565b9150509250929050565b600067ffffffffffffffff82111561287f5761287e611ce2565b5b602082029050602081019050919050565b600080fd5b60006128a86128a384612864565b611d42565b905080838252602082019050602084028301858111156128cb576128ca612890565b5b835b818110156128f457806128e08882611cb2565b8452602084019350506020810190506128cd565b5050509392505050565b600082601f83011261291357612912611cc7565b5b8135612923848260208601612895565b91505092915050565b60006020828403121561294257612941611c91565b5b600082013567ffffffffffffffff8111156129605761295f611c96565b5b61296c848285016128fe565b91505092915050565b7f4e487b7100000000000000000000000000000000000000000000000000000000600052601160045260246000fd5b60006129af82611c53565b91507fffffffffffffffffffffffffffffffffffffffffffffffffffffffffffffffff82036129e1576129e0612975565b5b600182019050919050565b7f4e487b7100000000000000000000000000000000000000000000000000000000600052602260045260246000fd5b60006002820490506001821680612a3357607f821691505b602082108103612a4657612a456129ec565b5b50919050565b60008190508160005260206000209050919050565b60006020601f8301049050919050565b600082821b905092915050565b600060088302612aae7fffffffffffffffffffffffffffffffffffffffffffffffffffffffffffffffff82612a71565b612ab88683612a71565b95508019841693508086168417925050509392505050565b6000819050919050565b6000612af5612af0612aeb84611c53565b612ad0565b611c53565b9050919050565b6000819050919050565b612b0f83612ada565b612b23612b1b82612afc565b848454612a7e565b825550505050565b600090565b612b38612b2b565b612b43818484612b06565b505050565b5b81811015612b6757612b5c600082612b30565b600181019050612b49565b5050565b601f821115612bac57612b7d81612a4c565b612b8684612a61565b81016020851015612b95578190505b612ba9612ba185612a61565b830182612b48565b50505b505050565b600082821c905092915050565b6000612bcf60001984600802612bb1565b1980831691505092915050565b6000612be88383612bbe565b9150826002028217905092915050565b612c0182611f9e565b67ffffffffffffffff811115612c1a57612c19611ce2565b5b612c248254612a1b565b612c2f828285612b6b565b600060209050601f831160018114612c625760008415612c50578287015190505b612c5a8582612bdc565b865550612cc2565b601f198416612c7086612a4c565b60005b82811015612c9857848901518255600182019150602085019450602081019050612c73565b86831015612cb55784890151612cb1601f891682612bbe565b8355505b6001600288020188555050505b505050505050565b7f496e76616c696420726174696e672076616c7565000000000000000000000000600082015250565b6000612d00601483611fa9565b9150612d0b82612cca565b602082019050919050565b60006020820190508181036000830152612d2f81612cf3565b9050919050565b7f4e6f7420656e6f7567682066756e647300000000000000000000000000000000600082015250565b6000612d6c601083611fa9565b9150612d7782612d36565b602082019050919050565b60006020820190508181036000830152612d9b81612d5f565b9050919050565b7f50726f64756374206f7574206f662073746f636b000000000000000000000000600082015250565b6000612dd8601483611fa9565b9150612de382612da2565b602082019050919050565b60006020820190508181036000830152612e0781612dcb565b9050919050565b6000612e1982611c53565b915060008203612e2c57612e2b612975565b5b600182039050919050565b7f4e487b7100000000000000000000000000000000000000000000000000000000600052603260045260246000fd5b600081905092915050565b60008190508160005260206000209050919050565b60008154612e9381612a1b565b612e9d8186612e66565b94506001821660008114612eb85760018114612ecd57612f00565b60ff1983168652811515820286019350612f00565b612ed685612e71565b60005b83811015612ef857815481890152600182019150602081019050612ed9565b838801955050505b50505092915050565b6000612f158284612e86565b915081905092915050565b7f55736572206e6f7420666f756e64000000000000000000000000000000000000600082015250565b6000612f56600e83611fa9565b9150612f6182612f20565b602082019050919050565b60006020820190508181036000830152612f8581612f49565b9050919050565b7f4f6e65206f72206d6f72652070726f647563747320617265206f7574206f662060008201527f73746f636b000000000000000000000000000000000000000000000000000000602082015250565b6000612fe8602583611fa9565b9150612ff382612f8c565b604082019050919050565b6000602082019050818103600083015261301781612fdb565b9050919050565b600061302982611c53565b915061303483611c53565b925082820190508082111561304c5761304b612975565b5b92915050565b7f4e6f7420656e6f7567682066756e647320746f2062757920616c6c2070726f6460008201527f7563747300000000000000000000000000000000000000000000000000000000602082015250565b60006130ae602483611fa9565b91506130b982613052565b604082019050919050565b600060208201905081810360008301526130dd816130a1565b9050919050565b60006130ef82611c53565b91506130fa83611c53565b925082820390508181111561311257613111612975565b5b9291505056fea26469706673582212209b2425d5e2f6f8baf7b5ca843a859207a702e49c303529c2ce932f3f19dc079964736f6c63430008110033",
  "linkReferences": {},
  "deployedLinkReferences": {}
}