{
  "_format": "hh-sol-artifact-1",
  "contractName": "Marketplace",
  "sourceName": "contracts/Marketplace.sol",
  "abi": [
    {
      "inputs": [
        {
          "internalType": "uint256",
          "name": "id",
          "type": "uint256"
        },
        {
          "internalType": "string",
          "name": "title",
          "type": "string"
        },
        {
          "internalType": "string",
          "name": "content",
          "type": "string"
        },
        {
          "internalType": "string",
          "name": "image",
          "type": "string"
        },
        {
          "internalType": "uint256",
          "name": "createAt",
          "type": "uint256"
        },
        {
          "internalType": "uint256",
          "name": "updateAt",
          "type": "uint256"
        }
      ],
      "name": "addNews",
      "outputs": [],
      "stateMutability": "nonpayable",
      "type": "function"
    },
    {
      "inputs": [
        {
          "internalType": "string",
          "name": "_name",
          "type": "string"
        },
        {
          "internalType": "string",
          "name": "_description",
          "type": "string"
        },
        {
          "internalType": "uint256",
          "name": "_price",
          "type": "uint256"
        },
        {
          "internalType": "uint256",
          "name": "_stock",
          "type": "uint256"
        },
        {
          "internalType": "string",
          "name": "_imageURL",
          "type": "string"
        },
        {
          "internalType": "string",
          "name": "_category",
          "type": "string"
        }
      ],
      "name": "addProduct",
      "outputs": [],
      "stateMutability": "nonpayable",
      "type": "function"
    },
    {
      "inputs": [
        {
          "internalType": "uint256",
          "name": "_productId",
          "type": "uint256"
        },
        {
          "internalType": "uint256",
          "name": "_userId",
          "type": "uint256"
        },
        {
          "internalType": "uint256",
          "name": "_rating",
          "type": "uint256"
        },
        {
          "internalType": "string",
          "name": "_comment",
          "type": "string"
        }
      ],
      "name": "addReview",
      "outputs": [],
      "stateMutability": "nonpayable",
      "type": "function"
    },
    {
      "inputs": [
        {
          "internalType": "uint256",
          "name": "_productId",
          "type": "uint256"
        }
      ],
      "name": "buyProduct",
      "outputs": [],
      "stateMutability": "payable",
      "type": "function"
    },
    {
      "inputs": [
        {
          "internalType": "uint256",
          "name": "_productId",
          "type": "uint256"
        }
      ],
      "name": "deleteProduct",
      "outputs": [],
      "stateMutability": "nonpayable",
      "type": "function"
    },
    {
      "inputs": [
        {
          "internalType": "uint256",
          "name": "_id",
          "type": "uint256"
        }
      ],
      "name": "getNews",
      "outputs": [
        {
          "components": [
            {
              "internalType": "uint256",
              "name": "id",
              "type": "uint256"
            },
            {
              "internalType": "string",
              "name": "title",
              "type": "string"
            },
            {
              "internalType": "string",
              "name": "content",
              "type": "string"
            },
            {
              "internalType": "string",
              "name": "image",
              "type": "string"
            },
            {
              "internalType": "uint256",
              "name": "createAt",
              "type": "uint256"
            },
            {
              "internalType": "uint256",
              "name": "updateAt",
              "type": "uint256"
            }
          ],
          "internalType": "struct Marketplace.News",
          "name": "",
          "type": "tuple"
        }
      ],
      "stateMutability": "view",
      "type": "function"
    },
    {
      "inputs": [],
      "name": "getNewsCount",
      "outputs": [
        {
          "internalType": "uint256",
          "name": "",
          "type": "uint256"
        }
      ],
      "stateMutability": "view",
      "type": "function"
    },
    {
      "inputs": [
        {
          "internalType": "uint256",
          "name": "_productId",
          "type": "uint256"
        }
      ],
      "name": "getReviews",
      "outputs": [
        {
          "components": [
            {
              "internalType": "uint256",
              "name": "reviewId",
              "type": "uint256"
            },
            {
              "internalType": "uint256",
              "name": "userId",
              "type": "uint256"
            },
            {
              "internalType": "uint256",
              "name": "productId",
              "type": "uint256"
            },
            {
              "internalType": "uint256",
              "name": "rating",
              "type": "uint256"
            },
            {
              "internalType": "string",
              "name": "comment",
              "type": "string"
            },
            {
              "internalType": "uint256",
              "name": "createdAt",
              "type": "uint256"
            }
          ],
          "internalType": "struct Marketplace.Review[]",
          "name": "",
          "type": "tuple[]"
        }
      ],
      "stateMutability": "view",
      "type": "function"
    },
    {
      "inputs": [
        {
          "internalType": "string",
          "name": "_walletAddress",
          "type": "string"
        }
      ],
      "name": "getUserId",
      "outputs": [
        {
          "internalType": "uint256",
          "name": "",
          "type": "uint256"
        }
      ],
      "stateMutability": "view",
      "type": "function"
    },
    {
      "inputs": [
        {
          "internalType": "uint256",
          "name": "_userId",
          "type": "uint256"
        }
      ],
      "name": "getUsername",
      "outputs": [
        {
          "internalType": "string",
          "name": "",
          "type": "string"
        }
      ],
      "stateMutability": "view",
      "type": "function"
    },
    {
      "inputs": [
        {
          "internalType": "string",
          "name": "_walletAddress",
          "type": "string"
        }
      ],
      "name": "isUserRegistered",
      "outputs": [
        {
          "internalType": "bool",
          "name": "",
          "type": "bool"
        }
      ],
      "stateMutability": "view",
      "type": "function"
    },
    {
      "inputs": [],
      "name": "newsCount",
      "outputs": [
        {
          "internalType": "uint256",
          "name": "",
          "type": "uint256"
        }
      ],
      "stateMutability": "view",
      "type": "function"
    },
    {
      "inputs": [
        {
          "internalType": "uint256",
          "name": "",
          "type": "uint256"
        }
      ],
      "name": "newsList",
      "outputs": [
        {
          "internalType": "uint256",
          "name": "id",
          "type": "uint256"
        },
        {
          "internalType": "string",
          "name": "title",
          "type": "string"
        },
        {
          "internalType": "string",
          "name": "content",
          "type": "string"
        },
        {
          "internalType": "string",
          "name": "image",
          "type": "string"
        },
        {
          "internalType": "uint256",
          "name": "createAt",
          "type": "uint256"
        },
        {
          "internalType": "uint256",
          "name": "updateAt",
          "type": "uint256"
        }
      ],
      "stateMutability": "view",
      "type": "function"
    },
    {
      "inputs": [],
      "name": "productCount",
      "outputs": [
        {
          "internalType": "uint256",
          "name": "",
          "type": "uint256"
        }
      ],
      "stateMutability": "view",
      "type": "function"
    },
    {
      "inputs": [
        {
          "internalType": "uint256",
          "name": "",
          "type": "uint256"
        },
        {
          "internalType": "uint256",
          "name": "",
          "type": "uint256"
        }
      ],
      "name": "productReviews",
      "outputs": [
        {
          "internalType": "uint256",
          "name": "",
          "type": "uint256"
        }
      ],
      "stateMutability": "view",
      "type": "function"
    },
    {
      "inputs": [
        {
          "internalType": "uint256",
          "name": "",
          "type": "uint256"
        }
      ],
      "name": "products",
      "outputs": [
        {
          "internalType": "uint256",
          "name": "productId",
          "type": "uint256"
        },
        {
          "internalType": "string",
          "name": "name",
          "type": "string"
        },
        {
          "internalType": "string",
          "name": "description",
          "type": "string"
        },
        {
          "internalType": "uint256",
          "name": "price",
          "type": "uint256"
        },
        {
          "internalType": "uint256",
          "name": "stock",
          "type": "uint256"
        },
        {
          "internalType": "string",
          "name": "imageURL",
          "type": "string"
        },
        {
          "internalType": "string",
          "name": "category",
          "type": "string"
        },
        {
          "internalType": "uint256",
          "name": "createdAt",
          "type": "uint256"
        },
        {
          "internalType": "uint256",
          "name": "updatedAt",
          "type": "uint256"
        },
        {
          "internalType": "address payable",
          "name": "seller",
          "type": "address"
        }
      ],
      "stateMutability": "view",
      "type": "function"
    },
    {
      "inputs": [
        {
          "internalType": "string",
          "name": "_username",
          "type": "string"
        },
        {
          "internalType": "string",
          "name": "_email",
          "type": "string"
        },
        {
          "internalType": "string",
          "name": "_walletAddress",
          "type": "string"
        }
      ],
      "name": "registerUser",
      "outputs": [],
      "stateMutability": "nonpayable",
      "type": "function"
    },
    {
      "inputs": [],
      "name": "reviewCount",
      "outputs": [
        {
          "internalType": "uint256",
          "name": "",
          "type": "uint256"
        }
      ],
      "stateMutability": "view",
      "type": "function"
    },
    {
      "inputs": [
        {
          "internalType": "uint256",
          "name": "",
          "type": "uint256"
        }
      ],
      "name": "reviews",
      "outputs": [
        {
          "internalType": "uint256",
          "name": "reviewId",
          "type": "uint256"
        },
        {
          "internalType": "uint256",
          "name": "userId",
          "type": "uint256"
        },
        {
          "internalType": "uint256",
          "name": "productId",
          "type": "uint256"
        },
        {
          "internalType": "uint256",
          "name": "rating",
          "type": "uint256"
        },
        {
          "internalType": "string",
          "name": "comment",
          "type": "string"
        },
        {
          "internalType": "uint256",
          "name": "createdAt",
          "type": "uint256"
        }
      ],
      "stateMutability": "view",
      "type": "function"
    },
    {
      "inputs": [
        {
          "internalType": "uint256",
          "name": "_productId",
          "type": "uint256"
        },
        {
          "internalType": "string",
          "name": "_name",
          "type": "string"
        },
        {
          "internalType": "string",
          "name": "_description",
          "type": "string"
        },
        {
          "internalType": "uint256",
          "name": "_price",
          "type": "uint256"
        },
        {
          "internalType": "uint256",
          "name": "_stock",
          "type": "uint256"
        },
        {
          "internalType": "string",
          "name": "_imageURL",
          "type": "string"
        },
        {
          "internalType": "string",
          "name": "_category",
          "type": "string"
        }
      ],
      "name": "updateProduct",
      "outputs": [],
      "stateMutability": "nonpayable",
      "type": "function"
    },
    {
      "inputs": [],
      "name": "userCount",
      "outputs": [
        {
          "internalType": "uint256",
          "name": "",
          "type": "uint256"
        }
      ],
      "stateMutability": "view",
      "type": "function"
    },
    {
      "inputs": [
        {
          "internalType": "uint256",
          "name": "",
          "type": "uint256"
        }
      ],
      "name": "users",
      "outputs": [
        {
          "internalType": "uint256",
          "name": "userId",
          "type": "uint256"
        },
        {
          "internalType": "string",
          "name": "username",
          "type": "string"
        },
        {
          "internalType": "string",
          "name": "email",
          "type": "string"
        },
        {
          "internalType": "string",
          "name": "walletAddress",
          "type": "string"
        }
      ],
      "stateMutability": "view",
      "type": "function"
    }
  ],
  "bytecode": "0x608060405234801561001057600080fd5b50612c51806100206000396000f3fe6080604052600436106101355760003560e01c8063ba53911b116100ab578063e0f6ef871161006f578063e0f6ef8714610460578063e83ddcea1461048b578063ed90c7b7146104cd578063eff5924f146104f6578063f18d18cc14610521578063f2943dce1461055e57610135565b8063ba53911b1461036b578063c33d392f146103a8578063c4ec4f05146103d1578063d637dcfa146103fa578063db1ef71f1461042357610135565b80635872f039116100fd5780635872f039146102225780637acc0b20146102645780638642269e146102aa5780639981d6d3146102c65780639d4a2255146102f1578063a8cc77841461032e57610135565b806307973ccf1461013a5780630a188dd11461016557806310ed96fa1461018e578063184c6aa3146101b7578063365b98b2146101e2575b600080fd5b34801561014657600080fd5b5061014f61059b565b60405161015c9190611a0c565b60405180910390f35b34801561017157600080fd5b5061018c60048036038101906101879190611bad565b6105a1565b005b34801561019a57600080fd5b506101b560048036038101906101b09190611c8e565b610666565b005b3480156101c357600080fd5b506101cc6107a0565b6040516101d99190611a0c565b60405180910390f35b3480156101ee57600080fd5b5061020960048036038101906102049190611d11565b6107aa565b6040516102199493929190611dbd565b60405180910390f35b34801561022e57600080fd5b5061024960048036038101906102449190611d11565b610972565b60405161025b96959493929190611e17565b60405180910390f35b34801561027057600080fd5b5061028b60048036038101906102869190611d11565b610b46565b6040516102a19a99989796959493929190611ece565b60405180910390f35b6102c460048036038101906102bf9190611d11565b610dda565b005b3480156102d257600080fd5b506102db610f11565b6040516102e89190611a0c565b60405180910390f35b3480156102fd57600080fd5b5061031860048036038101906103139190611d11565b610f17565b604051610325919061212a565b60405180910390f35b34801561033a57600080fd5b506103556004803603810190610350919061214c565b61111c565b60405161036291906121b0565b60405180910390f35b34801561037757600080fd5b50610392600480360381019061038d9190611d11565b61118d565b60405161039f9190612262565b60405180910390f35b3480156103b457600080fd5b506103cf60048036038101906103ca9190612284565b61138e565b005b3480156103dd57600080fd5b506103f860048036038101906103f39190612396565b611412565b005b34801561040657600080fd5b50610421600480360381019061041c9190612493565b611579565b005b34801561042f57600080fd5b5061044a6004803603810190610445919061214c565b61161d565b6040516104579190611a0c565b60405180910390f35b34801561046c57600080fd5b506104756116d9565b6040516104829190611a0c565b60405180910390f35b34801561049757600080fd5b506104b260048036038101906104ad9190611d11565b6116df565b6040516104c49695949392919061253a565b60405180910390f35b3480156104d957600080fd5b506104f460048036038101906104ef9190611d11565b6117a3565b005b34801561050257600080fd5b5061050b61184b565b6040516105189190611a0c565b60405180910390f35b34801561052d57600080fd5b5061054860048036038101906105439190611d11565b611851565b60405161055591906125a2565b60405180910390f35b34801561056a57600080fd5b50610585600480360381019061058091906125c4565b6118f9565b6040516105929190611a0c565b60405180910390f35b60035481565b600760008154809291906105b490612633565b91905055506040518060c001604052808781526020018681526020018581526020018481526020018381526020018281525060086000600754815260200190815260200160002060008201518160000155602082015181600101908161061a9190612887565b5060408201518160020190816106309190612887565b5060608201518160030190816106469190612887565b506080820151816004015560a08201518160050155905050505050505050565b60018210158015610678575060058211155b6106b7576040517f08c379a00000000000000000000000000000000000000000000000000000000081526004016106ae906129a5565b60405180910390fd5b600460008154809291906106ca90612633565b91905055506040518060c001604052806004548152602001848152602001858152602001838152602001828152602001428152506005600060045481526020019081526020016000206000820151816000015560208201518160010155604082015181600201556060820151816003015560808201518160040190816107509190612887565b5060a0820151816005015590505060066000858152602001908152602001600020600454908060018154018082558091505060019003906000526020600020016000909190919091505550505050565b6000600754905090565b60026020528060005260406000206000915090508060000154908060010180546107d3906126aa565b80601f01602080910402602001604051908101604052809291908181526020018280546107ff906126aa565b801561084c5780601f106108215761010080835404028352916020019161084c565b820191906000526020600020905b81548152906001019060200180831161082f57829003601f168201915b505050505090806002018054610861906126aa565b80601f016020809104026020016040519081016040528092919081815260200182805461088d906126aa565b80156108da5780601f106108af576101008083540402835291602001916108da565b820191906000526020600020905b8154815290600101906020018083116108bd57829003601f168201915b5050505050908060030180546108ef906126aa565b80601f016020809104026020016040519081016040528092919081815260200182805461091b906126aa565b80156109685780601f1061093d57610100808354040283529160200191610968565b820191906000526020600020905b81548152906001019060200180831161094b57829003601f168201915b5050505050905084565b600860205280600052604060002060009150905080600001549080600101805461099b906126aa565b80601f01602080910402602001604051908101604052809291908181526020018280546109c7906126aa565b8015610a145780601f106109e957610100808354040283529160200191610a14565b820191906000526020600020905b8154815290600101906020018083116109f757829003601f168201915b505050505090806002018054610a29906126aa565b80601f0160208091040260200160405190810160405280929190818152602001828054610a55906126aa565b8015610aa25780601f10610a7757610100808354040283529160200191610aa2565b820191906000526020600020905b815481529060010190602001808311610a8557829003601f168201915b505050505090806003018054610ab7906126aa565b80601f0160208091040260200160405190810160405280929190818152602001828054610ae3906126aa565b8015610b305780601f10610b0557610100808354040283529160200191610b30565b820191906000526020600020905b815481529060010190602001808311610b1357829003601f168201915b5050505050908060040154908060050154905086565b6001602052806000526040600020600091509050806000015490806001018054610b6f906126aa565b80601f0160208091040260200160405190810160405280929190818152602001828054610b9b906126aa565b8015610be85780601f10610bbd57610100808354040283529160200191610be8565b820191906000526020600020905b815481529060010190602001808311610bcb57829003601f168201915b505050505090806002018054610bfd906126aa565b80601f0160208091040260200160405190810160405280929190818152602001828054610c29906126aa565b8015610c765780601f10610c4b57610100808354040283529160200191610c76565b820191906000526020600020905b815481529060010190602001808311610c5957829003601f168201915b505050505090806003015490806004015490806005018054610c97906126aa565b80601f0160208091040260200160405190810160405280929190818152602001828054610cc3906126aa565b8015610d105780601f10610ce557610100808354040283529160200191610d10565b820191906000526020600020905b815481529060010190602001808311610cf357829003601f168201915b505050505090806006018054610d25906126aa565b80601f0160208091040260200160405190810160405280929190818152602001828054610d51906126aa565b8015610d9e5780601f10610d7357610100808354040283529160200191610d9e565b820191906000526020600020905b815481529060010190602001808311610d8157829003601f168201915b5050505050908060070154908060080154908060090160009054906101000a900473ffffffffffffffffffffffffffffffffffffffff1690508a565b60006001600083815260200190815260200160002090508060030154341015610e38576040517f08c379a0000000000000000000000000000000000000000000000000000000008152600401610e2f90612a11565b60405180910390fd5b6000816004015411610e7f576040517f08c379a0000000000000000000000000000000000000000000000000000000008152600401610e7690612a7d565b60405180910390fd5b806004016000815480929190610e9490612a9d565b91905055508060090160009054906101000a900473ffffffffffffffffffffffffffffffffffffffff1673ffffffffffffffffffffffffffffffffffffffff166108fc349081150290604051600060405180830381858888f19350505050158015610f03573d6000803e3d6000fd5b504281600801819055505050565b60075481565b6060600060066000848152602001908152602001600020805480602002602001604051908101604052809291908181526020018280548015610f7857602002820191906000526020600020905b815481526020019060010190808311610f64575b505050505090506000815167ffffffffffffffff811115610f9c57610f9b611a82565b5b604051908082528060200260200182016040528015610fd557816020015b610fc261192a565b815260200190600190039081610fba5790505b50905060005b82518110156111115760056000848381518110610ffb57610ffa612ac6565b5b602002602001015181526020019081526020016000206040518060c001604052908160008201548152602001600182015481526020016002820154815260200160038201548152602001600482018054611054906126aa565b80601f0160208091040260200160405190810160405280929190818152602001828054611080906126aa565b80156110cd5780601f106110a2576101008083540402835291602001916110cd565b820191906000526020600020905b8154815290600101906020018083116110b057829003601f168201915b505050505081526020016005820154815250508282815181106110f3576110f2612ac6565b5b6020026020010181905250808061110990612633565b915050610fdb565b508092505050919050565b600080600190505b6003548111611182578280519060200120600260008381526020019081526020016000206003016040516111589190612b98565b60405180910390200361116f576001915050611188565b808061117a90612633565b915050611124565b50600090505b919050565b611195611960565b600860008381526020019081526020016000206040518060c0016040529081600082015481526020016001820180546111cd906126aa565b80601f01602080910402602001604051908101604052809291908181526020018280546111f9906126aa565b80156112465780601f1061121b57610100808354040283529160200191611246565b820191906000526020600020905b81548152906001019060200180831161122957829003601f168201915b5050505050815260200160028201805461125f906126aa565b80601f016020809104026020016040519081016040528092919081815260200182805461128b906126aa565b80156112d85780601f106112ad576101008083540402835291602001916112d8565b820191906000526020600020905b8154815290600101906020018083116112bb57829003601f168201915b505050505081526020016003820180546112f1906126aa565b80601f016020809104026020016040519081016040528092919081815260200182805461131d906126aa565b801561136a5780601f1061133f5761010080835404028352916020019161136a565b820191906000526020600020905b81548152906001019060200180831161134d57829003601f168201915b50505050508152602001600482015481526020016005820154815250509050919050565b6000600160008981526020019081526020016000209050868160010190816113b69190612887565b50858160020190816113c89190612887565b50848160030181905550838160040181905550828160050190816113ec9190612887565b50818160060190816113fe9190612887565b504281600801819055505050505050505050565b60008081548092919061142490612633565b919050555060405180610140016040528060005481526020018781526020018681526020018581526020018481526020018381526020018281526020014281526020014281526020013373ffffffffffffffffffffffffffffffffffffffff1681525060016000805481526020019081526020016000206000820151816000015560208201518160010190816114ba9190612887565b5060408201518160020190816114d09190612887565b50606082015181600301556080820151816004015560a08201518160050190816114fa9190612887565b5060c08201518160060190816115109190612887565b5060e0820151816007015561010082015181600801556101208201518160090160006101000a81548173ffffffffffffffffffffffffffffffffffffffff021916908373ffffffffffffffffffffffffffffffffffffffff160217905550905050505050505050565b6003600081548092919061158c90612633565b919050555060405180608001604052806003548152602001848152602001838152602001828152506002600060035481526020019081526020016000206000820151816000015560208201518160010190816115e89190612887565b5060408201518160020190816115fe9190612887565b5060608201518160030190816116149190612887565b50905050505050565b600080600190505b6003548111611698578280519060200120600260008381526020019081526020016000206003016040516116599190612b98565b6040518091039020036116855760026000828152602001908152602001600020600001549150506116d4565b808061169090612633565b915050611625565b506040517f08c379a00000000000000000000000000000000000000000000000000000000081526004016116cb90612bfb565b60405180910390fd5b919050565b60005481565b600560205280600052604060002060009150905080600001549080600101549080600201549080600301549080600401805461171a906126aa565b80601f0160208091040260200160405190810160405280929190818152602001828054611746906126aa565b80156117935780601f1061176857610100808354040283529160200191611793565b820191906000526020600020905b81548152906001019060200180831161177657829003601f168201915b5050505050908060050154905086565b600160008281526020019081526020016000206000808201600090556001820160006117cf9190611996565b6002820160006117df9190611996565b600382016000905560048201600090556005820160006117ff9190611996565b60068201600061180f9190611996565b600782016000905560088201600090556009820160006101000a81549073ffffffffffffffffffffffffffffffffffffffff0219169055505050565b60045481565b6060600260008381526020019081526020016000206001018054611874906126aa565b80601f01602080910402602001604051908101604052809291908181526020018280546118a0906126aa565b80156118ed5780601f106118c2576101008083540402835291602001916118ed565b820191906000526020600020905b8154815290600101906020018083116118d057829003601f168201915b50505050509050919050565b6006602052816000526040600020818154811061191557600080fd5b90600052602060002001600091509150505481565b6040518060c001604052806000815260200160008152602001600081526020016000815260200160608152602001600081525090565b6040518060c001604052806000815260200160608152602001606081526020016060815260200160008152602001600081525090565b5080546119a2906126aa565b6000825580601f106119b457506119d3565b601f0160209004906000526020600020908101906119d291906119d6565b5b50565b5b808211156119ef5760008160009055506001016119d7565b5090565b6000819050919050565b611a06816119f3565b82525050565b6000602082019050611a2160008301846119fd565b92915050565b6000604051905090565b600080fd5b600080fd5b611a44816119f3565b8114611a4f57600080fd5b50565b600081359050611a6181611a3b565b92915050565b600080fd5b600080fd5b6000601f19601f8301169050919050565b7f4e487b7100000000000000000000000000000000000000000000000000000000600052604160045260246000fd5b611aba82611a71565b810181811067ffffffffffffffff82111715611ad957611ad8611a82565b5b80604052505050565b6000611aec611a27565b9050611af88282611ab1565b919050565b600067ffffffffffffffff821115611b1857611b17611a82565b5b611b2182611a71565b9050602081019050919050565b82818337600083830152505050565b6000611b50611b4b84611afd565b611ae2565b905082815260208101848484011115611b6c57611b6b611a6c565b5b611b77848285611b2e565b509392505050565b600082601f830112611b9457611b93611a67565b5b8135611ba4848260208601611b3d565b91505092915050565b60008060008060008060c08789031215611bca57611bc9611a31565b5b6000611bd889828a01611a52565b965050602087013567ffffffffffffffff811115611bf957611bf8611a36565b5b611c0589828a01611b7f565b955050604087013567ffffffffffffffff811115611c2657611c25611a36565b5b611c3289828a01611b7f565b945050606087013567ffffffffffffffff811115611c5357611c52611a36565b5b611c5f89828a01611b7f565b9350506080611c7089828a01611a52565b92505060a0611c8189828a01611a52565b9150509295509295509295565b60008060008060808587031215611ca857611ca7611a31565b5b6000611cb687828801611a52565b9450506020611cc787828801611a52565b9350506040611cd887828801611a52565b925050606085013567ffffffffffffffff811115611cf957611cf8611a36565b5b611d0587828801611b7f565b91505092959194509250565b600060208284031215611d2757611d26611a31565b5b6000611d3584828501611a52565b91505092915050565b600081519050919050565b600082825260208201905092915050565b60005b83811015611d78578082015181840152602081019050611d5d565b60008484015250505050565b6000611d8f82611d3e565b611d998185611d49565b9350611da9818560208601611d5a565b611db281611a71565b840191505092915050565b6000608082019050611dd260008301876119fd565b8181036020830152611de48186611d84565b90508181036040830152611df88185611d84565b90508181036060830152611e0c8184611d84565b905095945050505050565b600060c082019050611e2c60008301896119fd565b8181036020830152611e3e8188611d84565b90508181036040830152611e528187611d84565b90508181036060830152611e668186611d84565b9050611e7560808301856119fd565b611e8260a08301846119fd565b979650505050505050565b600073ffffffffffffffffffffffffffffffffffffffff82169050919050565b6000611eb882611e8d565b9050919050565b611ec881611ead565b82525050565b600061014082019050611ee4600083018d6119fd565b8181036020830152611ef6818c611d84565b90508181036040830152611f0a818b611d84565b9050611f19606083018a6119fd565b611f2660808301896119fd565b81810360a0830152611f388188611d84565b905081810360c0830152611f4c8187611d84565b9050611f5b60e08301866119fd565b611f696101008301856119fd565b611f77610120830184611ebf565b9b9a5050505050505050505050565b600081519050919050565b600082825260208201905092915050565b6000819050602082019050919050565b611fbb816119f3565b82525050565b600082825260208201905092915050565b6000611fdd82611d3e565b611fe78185611fc1565b9350611ff7818560208601611d5a565b61200081611a71565b840191505092915050565b600060c0830160008301516120236000860182611fb2565b5060208301516120366020860182611fb2565b5060408301516120496040860182611fb2565b50606083015161205c6060860182611fb2565b50608083015184820360808601526120748282611fd2565b91505060a083015161208960a0860182611fb2565b508091505092915050565b60006120a0838361200b565b905092915050565b6000602082019050919050565b60006120c082611f86565b6120ca8185611f91565b9350836020820285016120dc85611fa2565b8060005b8581101561211857848403895281516120f98582612094565b9450612104836120a8565b925060208a019950506001810190506120e0565b50829750879550505050505092915050565b6000602082019050818103600083015261214481846120b5565b905092915050565b60006020828403121561216257612161611a31565b5b600082013567ffffffffffffffff8111156121805761217f611a36565b5b61218c84828501611b7f565b91505092915050565b60008115159050919050565b6121aa81612195565b82525050565b60006020820190506121c560008301846121a1565b92915050565b600060c0830160008301516121e36000860182611fb2565b50602083015184820360208601526121fb8282611fd2565b915050604083015184820360408601526122158282611fd2565b9150506060830151848203606086015261222f8282611fd2565b91505060808301516122446080860182611fb2565b5060a083015161225760a0860182611fb2565b508091505092915050565b6000602082019050818103600083015261227c81846121cb565b905092915050565b600080600080600080600060e0888a0312156122a3576122a2611a31565b5b60006122b18a828b01611a52565b975050602088013567ffffffffffffffff8111156122d2576122d1611a36565b5b6122de8a828b01611b7f565b965050604088013567ffffffffffffffff8111156122ff576122fe611a36565b5b61230b8a828b01611b7f565b955050606061231c8a828b01611a52565b945050608061232d8a828b01611a52565b93505060a088013567ffffffffffffffff81111561234e5761234d611a36565b5b61235a8a828b01611b7f565b92505060c088013567ffffffffffffffff81111561237b5761237a611a36565b5b6123878a828b01611b7f565b91505092959891949750929550565b60008060008060008060c087890312156123b3576123b2611a31565b5b600087013567ffffffffffffffff8111156123d1576123d0611a36565b5b6123dd89828a01611b7f565b965050602087013567ffffffffffffffff8111156123fe576123fd611a36565b5b61240a89828a01611b7f565b955050604061241b89828a01611a52565b945050606061242c89828a01611a52565b935050608087013567ffffffffffffffff81111561244d5761244c611a36565b5b61245989828a01611b7f565b92505060a087013567ffffffffffffffff81111561247a57612479611a36565b5b61248689828a01611b7f565b9150509295509295509295565b6000806000606084860312156124ac576124ab611a31565b5b600084013567ffffffffffffffff8111156124ca576124c9611a36565b5b6124d686828701611b7f565b935050602084013567ffffffffffffffff8111156124f7576124f6611a36565b5b61250386828701611b7f565b925050604084013567ffffffffffffffff81111561252457612523611a36565b5b61253086828701611b7f565b9150509250925092565b600060c08201905061254f60008301896119fd565b61255c60208301886119fd565b61256960408301876119fd565b61257660608301866119fd565b81810360808301526125888185611d84565b905061259760a08301846119fd565b979650505050505050565b600060208201905081810360008301526125bc8184611d84565b905092915050565b600080604083850312156125db576125da611a31565b5b60006125e985828601611a52565b92505060206125fa85828601611a52565b9150509250929050565b7f4e487b7100000000000000000000000000000000000000000000000000000000600052601160045260246000fd5b600061263e826119f3565b91507fffffffffffffffffffffffffffffffffffffffffffffffffffffffffffffffff82036126705761266f612604565b5b600182019050919050565b7f4e487b7100000000000000000000000000000000000000000000000000000000600052602260045260246000fd5b600060028204905060018216806126c257607f821691505b6020821081036126d5576126d461267b565b5b50919050565b60008190508160005260206000209050919050565b60006020601f8301049050919050565b600082821b905092915050565b60006008830261273d7fffffffffffffffffffffffffffffffffffffffffffffffffffffffffffffffff82612700565b6127478683612700565b95508019841693508086168417925050509392505050565b6000819050919050565b600061278461277f61277a846119f3565b61275f565b6119f3565b9050919050565b6000819050919050565b61279e83612769565b6127b26127aa8261278b565b84845461270d565b825550505050565b600090565b6127c76127ba565b6127d2818484612795565b505050565b5b818110156127f6576127eb6000826127bf565b6001810190506127d8565b5050565b601f82111561283b5761280c816126db565b612815846126f0565b81016020851015612824578190505b612838612830856126f0565b8301826127d7565b50505b505050565b600082821c905092915050565b600061285e60001984600802612840565b1980831691505092915050565b6000612877838361284d565b9150826002028217905092915050565b61289082611d3e565b67ffffffffffffffff8111156128a9576128a8611a82565b5b6128b382546126aa565b6128be8282856127fa565b600060209050601f8311600181146128f157600084156128df578287015190505b6128e9858261286b565b865550612951565b601f1984166128ff866126db565b60005b8281101561292757848901518255600182019150602085019450602081019050612902565b868310156129445784890151612940601f89168261284d565b8355505b6001600288020188555050505b505050505050565b7f496e76616c696420726174696e672076616c7565000000000000000000000000600082015250565b600061298f601483611d49565b915061299a82612959565b602082019050919050565b600060208201905081810360008301526129be81612982565b9050919050565b7f4e6f7420656e6f7567682066756e647300000000000000000000000000000000600082015250565b60006129fb601083611d49565b9150612a06826129c5565b602082019050919050565b60006020820190508181036000830152612a2a816129ee565b9050919050565b7f50726f64756374206f7574206f662073746f636b000000000000000000000000600082015250565b6000612a67601483611d49565b9150612a7282612a31565b602082019050919050565b60006020820190508181036000830152612a9681612a5a565b9050919050565b6000612aa8826119f3565b915060008203612abb57612aba612604565b5b600182039050919050565b7f4e487b7100000000000000000000000000000000000000000000000000000000600052603260045260246000fd5b600081905092915050565b60008190508160005260206000209050919050565b60008154612b22816126aa565b612b2c8186612af5565b94506001821660008114612b475760018114612b5c57612b8f565b60ff1983168652811515820286019350612b8f565b612b6585612b00565b60005b83811015612b8757815481890152600182019150602081019050612b68565b838801955050505b50505092915050565b6000612ba48284612b15565b915081905092915050565b7f55736572206e6f7420666f756e64000000000000000000000000000000000000600082015250565b6000612be5600e83611d49565b9150612bf082612baf565b602082019050919050565b60006020820190508181036000830152612c1481612bd8565b905091905056fea2646970667358221220e09aea34bb6418a6468caa7f80634b9b9d704d93568a40160dfcd0e4dac8f90164736f6c63430008110033",
  "linkReferences": {},
  "deployedLinkReferences": {}
}