{"contracts/Marketplace.sol":{"Marketplace":{"abi":[{"inputs":[{"internalType":"string","name":"_name","type":"string"},{"internalType":"string","name":"_description","type":"string"},{"internalType":"uint256","name":"_price","type":"uint256"},{"internalType":"uint256","name":"_stock","type":"uint256"},{"internalType":"string","name":"_imageURL","type":"string"},{"internalType":"string","name":"_category","type":"string"}],"name":"addProduct","outputs":[],"stateMutability":"nonpayable","type":"function"},{"inputs":[{"internalType":"uint256","name":"_productId","type":"uint256"},{"internalType":"uint256","name":"_userId","type":"uint256"},{"internalType":"uint256","name":"_rating","type":"uint256"},{"internalType":"string","name":"_comment","type":"string"}],"name":"addReview","outputs":[],"stateMutability":"nonpayable","type":"function"},{"inputs":[{"internalType":"uint256","name":"_productId","type":"uint256"}],"name":"buyProduct","outputs":[],"stateMutability":"payable","type":"function"},{"inputs":[{"internalType":"uint256","name":"_productId","type":"uint256"}],"name":"deleteProduct","outputs":[],"stateMutability":"nonpayable","type":"function"},{"inputs":[{"internalType":"uint256","name":"_productId","type":"uint256"}],"name":"getReviews","outputs":[{"components":[{"internalType":"uint256","name":"reviewId","type":"uint256"},{"internalType":"uint256","name":"userId","type":"uint256"},{"internalType":"uint256","name":"productId","type":"uint256"},{"internalType":"uint256","name":"rating","type":"uint256"},{"internalType":"string","name":"comment","type":"string"},{"internalType":"uint256","name":"createdAt","type":"uint256"}],"internalType":"struct Marketplace.Review[]","name":"","type":"tuple[]"}],"stateMutability":"view","type":"function"},{"inputs":[{"internalType":"address","name":"_walletAddress","type":"address"}],"name":"getUserId","outputs":[{"internalType":"uint256","name":"","type":"uint256"}],"stateMutability":"view","type":"function"},{"inputs":[{"internalType":"string","name":"_walletAddress","type":"string"}],"name":"isUserRegistered","outputs":[{"internalType":"bool","name":"","type":"bool"}],"stateMutability":"view","type":"function"},{"inputs":[],"name":"productCount","outputs":[{"internalType":"uint256","name":"","type":"uint256"}],"stateMutability":"view","type":"function"},{"inputs":[{"internalType":"uint256","name":"","type":"uint256"},{"internalType":"uint256","name":"","type":"uint256"}],"name":"productReviews","outputs":[{"internalType":"uint256","name":"","type":"uint256"}],"stateMutability":"view","type":"function"},{"inputs":[{"internalType":"uint256","name":"","type":"uint256"}],"name":"products","outputs":[{"internalType":"uint256","name":"productId","type":"uint256"},{"internalType":"string","name":"name","type":"string"},{"internalType":"string","name":"description","type":"string"},{"internalType":"uint256","name":"price","type":"uint256"},{"internalType":"uint256","name":"stock","type":"uint256"},{"internalType":"string","name":"imageURL","type":"string"},{"internalType":"string","name":"category","type":"string"},{"internalType":"uint256","name":"createdAt","type":"uint256"},{"internalType":"uint256","name":"updatedAt","type":"uint256"},{"internalType":"address payable","name":"seller","type":"address"}],"stateMutability":"view","type":"function"},{"inputs":[{"internalType":"string","name":"_username","type":"string"},{"internalType":"string","name":"_email","type":"string"},{"internalType":"string","name":"_walletAddress","type":"string"}],"name":"registerUser","outputs":[],"stateMutability":"nonpayable","type":"function"},{"inputs":[],"name":"reviewCount","outputs":[{"internalType":"uint256","name":"","type":"uint256"}],"stateMutability":"view","type":"function"},{"inputs":[{"internalType":"uint256","name":"","type":"uint256"}],"name":"reviews","outputs":[{"internalType":"uint256","name":"reviewId","type":"uint256"},{"internalType":"uint256","name":"userId","type":"uint256"},{"internalType":"uint256","name":"productId","type":"uint256"},{"internalType":"uint256","name":"rating","type":"uint256"},{"internalType":"string","name":"comment","type":"string"},{"internalType":"uint256","name":"createdAt","type":"uint256"}],"stateMutability":"view","type":"function"},{"inputs":[{"internalType":"uint256","name":"_productId","type":"uint256"},{"internalType":"string","name":"_name","type":"string"},{"internalType":"string","name":"_description","type":"string"},{"internalType":"uint256","name":"_price","type":"uint256"},{"internalType":"uint256","name":"_stock","type":"uint256"},{"internalType":"string","name":"_imageURL","type":"string"},{"internalType":"string","name":"_category","type":"string"}],"name":"updateProduct","outputs":[],"stateMutability":"nonpayable","type":"function"},{"inputs":[],"name":"userCount","outputs":[{"internalType":"uint256","name":"","type":"uint256"}],"stateMutability":"view","type":"function"},{"inputs":[{"internalType":"uint256","name":"","type":"uint256"}],"name":"users","outputs":[{"internalType":"uint256","name":"userId","type":"uint256"},{"internalType":"string","name":"username","type":"string"},{"internalType":"string","name":"email","type":"string"},{"internalType":"string","name":"walletAddress","type":"string"}],"stateMutability":"view","type":"function"},{"inputs":[{"internalType":"address","name":"","type":"address"}],"name":"walletToUserId","outputs":[{"internalType":"uint256","name":"","type":"uint256"}],"stateMutability":"view","type":"function"}],"evm":{"bytecode":{"linkReferences":{},"object":"608060405234801561001057600080fd5b506123f3806100206000396000f3fe6080604052600436106100fe5760003560e01c8063a8cc778411610095578063e0f6ef8711610064578063e0f6ef8714610368578063e83ddcea14610393578063ed90c7b7146103d5578063eff5924f146103fe578063f2943dce14610429576100fe565b8063a8cc7784146102b0578063c33d392f146102ed578063c4ec4f0514610316578063d637dcfa1461033f576100fe565b80634bb54384116100d15780634bb54384146101d45780637acc0b20146102115780638642269e146102575780639d4a225514610273576100fe565b806307973ccf1461010357806310ed96fa1461012e5780632b956ff714610157578063365b98b214610194575b600080fd5b34801561010f57600080fd5b50610118610466565b6040516101259190611375565b60405180910390f35b34801561013a57600080fd5b5061015560048036038101906101509190611516565b61046c565b005b34801561016357600080fd5b5061017e600480360381019061017991906115f7565b6105a6565b60405161018b9190611375565b60405180910390f35b3480156101a057600080fd5b506101bb60048036038101906101b69190611624565b610670565b6040516101cb94939291906116d0565b60405180910390f35b3480156101e057600080fd5b506101fb60048036038101906101f691906115f7565b610838565b6040516102089190611375565b60405180910390f35b34801561021d57600080fd5b5061023860048036038101906102339190611624565b610850565b60405161024e9a9998979695949392919061174b565b60405180910390f35b610271600480360381019061026c9190611624565b610ae4565b005b34801561027f57600080fd5b5061029a60048036038101906102959190611624565b610c1b565b6040516102a791906119a7565b60405180910390f35b3480156102bc57600080fd5b506102d760048036038101906102d291906119c9565b610e20565b6040516102e49190611a2d565b60405180910390f35b3480156102f957600080fd5b50610314600480360381019061030f9190611a48565b610e91565b005b34801561032257600080fd5b5061033d60048036038101906103389190611b5a565b610f15565b005b34801561034b57600080fd5b5061036660048036038101906103619190611c57565b61107c565b005b34801561037457600080fd5b5061037d611120565b60405161038a9190611375565b60405180910390f35b34801561039f57600080fd5b506103ba60048036038101906103b59190611624565b611126565b6040516103cc96959493929190611cfe565b60405180910390f35b3480156103e157600080fd5b506103fc60048036038101906103f79190611624565b6111ea565b005b34801561040a57600080fd5b50610413611292565b6040516104209190611375565b60405180910390f35b34801561043557600080fd5b50610450600480360381019061044b9190611d66565b611298565b60405161045d9190611375565b60405180910390f35b60035481565b6001821015801561047e575060058211155b6104bd576040517f08c379a00000000000000000000000000000000000000000000000000000000081526004016104b490611df2565b60405180910390fd5b600460008154809291906104d090611e41565b91905055506040518060c001604052806004548152602001848152602001858152602001838152602001828152602001428152506005600060045481526020019081526020016000206000820151816000015560208201518160010155604082015181600201556060820151816003015560808201518160040190816105569190612095565b5060a0820151816005015590505060066000858152602001908152602001600020600454908060018154018082558091505060019003906000526020600020016000909190919091505550505050565b600080600760008473ffffffffffffffffffffffffffffffffffffffff1673ffffffffffffffffffffffffffffffffffffffff1681526020019081526020016000205403610629576040517f08c379a0000000000000000000000000000000000000000000000000000000008152600401610620906121b3565b60405180910390fd5b600760008373ffffffffffffffffffffffffffffffffffffffff1673ffffffffffffffffffffffffffffffffffffffff168152602001908152602001600020549050919050565b600260205280600052604060002060009150905080600001549080600101805461069990611eb8565b80601f01602080910402602001604051908101604052809291908181526020018280546106c590611eb8565b80156107125780601f106106e757610100808354040283529160200191610712565b820191906000526020600020905b8154815290600101906020018083116106f557829003601f168201915b50505050509080600201805461072790611eb8565b80601f016020809104026020016040519081016040528092919081815260200182805461075390611eb8565b80156107a05780601f10610775576101008083540402835291602001916107a0565b820191906000526020600020905b81548152906001019060200180831161078357829003601f168201915b5050505050908060030180546107b590611eb8565b80601f01602080910402602001604051908101604052809291908181526020018280546107e190611eb8565b801561082e5780601f106108035761010080835404028352916020019161082e565b820191906000526020600020905b81548152906001019060200180831161081157829003601f168201915b5050505050905084565b60076020528060005260406000206000915090505481565b600160205280600052604060002060009150905080600001549080600101805461087990611eb8565b80601f01602080910402602001604051908101604052809291908181526020018280546108a590611eb8565b80156108f25780601f106108c7576101008083540402835291602001916108f2565b820191906000526020600020905b8154815290600101906020018083116108d557829003601f168201915b50505050509080600201805461090790611eb8565b80601f016020809104026020016040519081016040528092919081815260200182805461093390611eb8565b80156109805780601f1061095557610100808354040283529160200191610980565b820191906000526020600020905b81548152906001019060200180831161096357829003601f168201915b5050505050908060030154908060040154908060050180546109a190611eb8565b80601f01602080910402602001604051908101604052809291908181526020018280546109cd90611eb8565b8015610a1a5780601f106109ef57610100808354040283529160200191610a1a565b820191906000526020600020905b8154815290600101906020018083116109fd57829003601f168201915b505050505090806006018054610a2f90611eb8565b80601f0160208091040260200160405190810160405280929190818152602001828054610a5b90611eb8565b8015610aa85780601f10610a7d57610100808354040283529160200191610aa8565b820191906000526020600020905b815481529060010190602001808311610a8b57829003601f168201915b5050505050908060070154908060080154908060090160009054906101000a900473ffffffffffffffffffffffffffffffffffffffff1690508a565b60006001600083815260200190815260200160002090508060030154341015610b42576040517f08c379a0000000000000000000000000000000000000000000000000000000008152600401610b399061221f565b60405180910390fd5b6000816004015411610b89576040517f08c379a0000000000000000000000000000000000000000000000000000000008152600401610b809061228b565b60405180910390fd5b806004016000815480929190610b9e906122ab565b91905055508060090160009054906101000a900473ffffffffffffffffffffffffffffffffffffffff1673ffffffffffffffffffffffffffffffffffffffff166108fc349081150290604051600060405180830381858888f19350505050158015610c0d573d6000803e3d6000fd5b504281600801819055505050565b6060600060066000848152602001908152602001600020805480602002602001604051908101604052809291908181526020018280548015610c7c57602002820191906000526020600020905b815481526020019060010190808311610c68575b505050505090506000815167ffffffffffffffff811115610ca057610c9f6113eb565b5b604051908082528060200260200182016040528015610cd957816020015b610cc66112c9565b815260200190600190039081610cbe5790505b50905060005b8251811015610e155760056000848381518110610cff57610cfe6122d4565b5b602002602001015181526020019081526020016000206040518060c001604052908160008201548152602001600182015481526020016002820154815260200160038201548152602001600482018054610d5890611eb8565b80601f0160208091040260200160405190810160405280929190818152602001828054610d8490611eb8565b8015610dd15780601f10610da657610100808354040283529160200191610dd1565b820191906000526020600020905b815481529060010190602001808311610db457829003601f168201915b50505050508152602001600582015481525050828281518110610df757610df66122d4565b5b60200260200101819052508080610e0d90611e41565b915050610cdf565b508092505050919050565b600080600190505b6003548111610e8657828051906020012060026000838152602001908152602001600020600301604051610e5c91906123a6565b604051809103902003610e73576001915050610e8c565b8080610e7e90611e41565b915050610e28565b50600090505b919050565b600060016000898152602001908152602001600020905086816001019081610eb99190612095565b5085816002019081610ecb9190612095565b5084816003018190555083816004018190555082816005019081610eef9190612095565b5081816006019081610f019190612095565b504281600801819055505050505050505050565b600080815480929190610f2790611e41565b919050555060405180610140016040528060005481526020018781526020018681526020018581526020018481526020018381526020018281526020014281526020014281526020013373ffffffffffffffffffffffffffffffffffffffff168152506001600080548152602001908152602001600020600082015181600001556020820151816001019081610fbd9190612095565b506040820151816002019081610fd39190612095565b50606082015181600301556080820151816004015560a0820151816005019081610ffd9190612095565b5060c08201518160060190816110139190612095565b5060e0820151816007015561010082015181600801556101208201518160090160006101000a81548173ffffffffffffffffffffffffffffffffffffffff021916908373ffffffffffffffffffffffffffffffffffffffff160217905550905050505050505050565b6003600081548092919061108f90611e41565b919050555060405180608001604052806003548152602001848152602001838152602001828152506002600060035481526020019081526020016000206000820151816000015560208201518160010190816110eb9190612095565b5060408201518160020190816111019190612095565b5060608201518160030190816111179190612095565b50905050505050565b60005481565b600560205280600052604060002060009150905080600001549080600101549080600201549080600301549080600401805461116190611eb8565b80601f016020809104026020016040519081016040528092919081815260200182805461118d90611eb8565b80156111da5780601f106111af576101008083540402835291602001916111da565b820191906000526020600020905b8154815290600101906020018083116111bd57829003601f168201915b5050505050908060050154905086565b6001600082815260200190815260200160002060008082016000905560018201600061121691906112ff565b60028201600061122691906112ff565b6003820160009055600482016000905560058201600061124691906112ff565b60068201600061125691906112ff565b600782016000905560088201600090556009820160006101000a81549073ffffffffffffffffffffffffffffffffffffffff0219169055505050565b60045481565b600660205281600052604060002081815481106112b457600080fd5b90600052602060002001600091509150505481565b6040518060c001604052806000815260200160008152602001600081526020016000815260200160608152602001600081525090565b50805461130b90611eb8565b6000825580601f1061131d575061133c565b601f01602090049060005260206000209081019061133b919061133f565b5b50565b5b80821115611358576000816000905550600101611340565b5090565b6000819050919050565b61136f8161135c565b82525050565b600060208201905061138a6000830184611366565b92915050565b6000604051905090565b600080fd5b600080fd5b6113ad8161135c565b81146113b857600080fd5b50565b6000813590506113ca816113a4565b92915050565b600080fd5b600080fd5b6000601f19601f8301169050919050565b7f4e487b7100000000000000000000000000000000000000000000000000000000600052604160045260246000fd5b611423826113da565b810181811067ffffffffffffffff82111715611442576114416113eb565b5b80604052505050565b6000611455611390565b9050611461828261141a565b919050565b600067ffffffffffffffff821115611481576114806113eb565b5b61148a826113da565b9050602081019050919050565b82818337600083830152505050565b60006114b96114b484611466565b61144b565b9050828152602081018484840111156114d5576114d46113d5565b5b6114e0848285611497565b509392505050565b600082601f8301126114fd576114fc6113d0565b5b813561150d8482602086016114a6565b91505092915050565b600080600080608085870312156115305761152f61139a565b5b600061153e878288016113bb565b945050602061154f878288016113bb565b9350506040611560878288016113bb565b925050606085013567ffffffffffffffff8111156115815761158061139f565b5b61158d878288016114e8565b91505092959194509250565b600073ffffffffffffffffffffffffffffffffffffffff82169050919050565b60006115c482611599565b9050919050565b6115d4816115b9565b81146115df57600080fd5b50565b6000813590506115f1816115cb565b92915050565b60006020828403121561160d5761160c61139a565b5b600061161b848285016115e2565b91505092915050565b60006020828403121561163a5761163961139a565b5b6000611648848285016113bb565b91505092915050565b600081519050919050565b600082825260208201905092915050565b60005b8381101561168b578082015181840152602081019050611670565b60008484015250505050565b60006116a282611651565b6116ac818561165c565b93506116bc81856020860161166d565b6116c5816113da565b840191505092915050565b60006080820190506116e56000830187611366565b81810360208301526116f78186611697565b9050818103604083015261170b8185611697565b9050818103606083015261171f8184611697565b905095945050505050565b600061173582611599565b9050919050565b6117458161172a565b82525050565b600061014082019050611761600083018d611366565b8181036020830152611773818c611697565b90508181036040830152611787818b611697565b9050611796606083018a611366565b6117a36080830189611366565b81810360a08301526117b58188611697565b905081810360c08301526117c98187611697565b90506117d860e0830186611366565b6117e6610100830185611366565b6117f461012083018461173c565b9b9a5050505050505050505050565b600081519050919050565b600082825260208201905092915050565b6000819050602082019050919050565b6118388161135c565b82525050565b600082825260208201905092915050565b600061185a82611651565b611864818561183e565b935061187481856020860161166d565b61187d816113da565b840191505092915050565b600060c0830160008301516118a0600086018261182f565b5060208301516118b3602086018261182f565b5060408301516118c6604086018261182f565b5060608301516118d9606086018261182f565b50608083015184820360808601526118f1828261184f565b91505060a083015161190660a086018261182f565b508091505092915050565b600061191d8383611888565b905092915050565b6000602082019050919050565b600061193d82611803565b611947818561180e565b9350836020820285016119598561181f565b8060005b8581101561199557848403895281516119768582611911565b945061198183611925565b925060208a0199505060018101905061195d565b50829750879550505050505092915050565b600060208201905081810360008301526119c18184611932565b905092915050565b6000602082840312156119df576119de61139a565b5b600082013567ffffffffffffffff8111156119fd576119fc61139f565b5b611a09848285016114e8565b91505092915050565b60008115159050919050565b611a2781611a12565b82525050565b6000602082019050611a426000830184611a1e565b92915050565b600080600080600080600060e0888a031215611a6757611a6661139a565b5b6000611a758a828b016113bb565b975050602088013567ffffffffffffffff811115611a9657611a9561139f565b5b611aa28a828b016114e8565b965050604088013567ffffffffffffffff811115611ac357611ac261139f565b5b611acf8a828b016114e8565b9550506060611ae08a828b016113bb565b9450506080611af18a828b016113bb565b93505060a088013567ffffffffffffffff811115611b1257611b1161139f565b5b611b1e8a828b016114e8565b92505060c088013567ffffffffffffffff811115611b3f57611b3e61139f565b5b611b4b8a828b016114e8565b91505092959891949750929550565b60008060008060008060c08789031215611b7757611b7661139a565b5b600087013567ffffffffffffffff811115611b9557611b9461139f565b5b611ba189828a016114e8565b965050602087013567ffffffffffffffff811115611bc257611bc161139f565b5b611bce89828a016114e8565b9550506040611bdf89828a016113bb565b9450506060611bf089828a016113bb565b935050608087013567ffffffffffffffff811115611c1157611c1061139f565b5b611c1d89828a016114e8565b92505060a087013567ffffffffffffffff811115611c3e57611c3d61139f565b5b611c4a89828a016114e8565b9150509295509295509295565b600080600060608486031215611c7057611c6f61139a565b5b600084013567ffffffffffffffff811115611c8e57611c8d61139f565b5b611c9a868287016114e8565b935050602084013567ffffffffffffffff811115611cbb57611cba61139f565b5b611cc7868287016114e8565b925050604084013567ffffffffffffffff811115611ce857611ce761139f565b5b611cf4868287016114e8565b9150509250925092565b600060c082019050611d136000830189611366565b611d206020830188611366565b611d2d6040830187611366565b611d3a6060830186611366565b8181036080830152611d4c8185611697565b9050611d5b60a0830184611366565b979650505050505050565b60008060408385031215611d7d57611d7c61139a565b5b6000611d8b858286016113bb565b9250506020611d9c858286016113bb565b9150509250929050565b7f496e76616c696420726174696e672076616c7565000000000000000000000000600082015250565b6000611ddc60148361165c565b9150611de782611da6565b602082019050919050565b60006020820190508181036000830152611e0b81611dcf565b9050919050565b7f4e487b7100000000000000000000000000000000000000000000000000000000600052601160045260246000fd5b6000611e4c8261135c565b91507fffffffffffffffffffffffffffffffffffffffffffffffffffffffffffffffff8203611e7e57611e7d611e12565b5b600182019050919050565b7f4e487b7100000000000000000000000000000000000000000000000000000000600052602260045260246000fd5b60006002820490506001821680611ed057607f821691505b602082108103611ee357611ee2611e89565b5b50919050565b60008190508160005260206000209050919050565b60006020601f8301049050919050565b600082821b905092915050565b600060088302611f4b7fffffffffffffffffffffffffffffffffffffffffffffffffffffffffffffffff82611f0e565b611f558683611f0e565b95508019841693508086168417925050509392505050565b6000819050919050565b6000611f92611f8d611f888461135c565b611f6d565b61135c565b9050919050565b6000819050919050565b611fac83611f77565b611fc0611fb882611f99565b848454611f1b565b825550505050565b600090565b611fd5611fc8565b611fe0818484611fa3565b505050565b5b8181101561200457611ff9600082611fcd565b600181019050611fe6565b5050565b601f8211156120495761201a81611ee9565b61202384611efe565b81016020851015612032578190505b61204661203e85611efe565b830182611fe5565b50505b505050565b600082821c905092915050565b600061206c6000198460080261204e565b1980831691505092915050565b6000612085838361205b565b9150826002028217905092915050565b61209e82611651565b67ffffffffffffffff8111156120b7576120b66113eb565b5b6120c18254611eb8565b6120cc828285612008565b600060209050601f8311600181146120ff57600084156120ed578287015190505b6120f78582612079565b86555061215f565b601f19841661210d86611ee9565b60005b8281101561213557848901518255600182019150602085019450602081019050612110565b86831015612152578489015161214e601f89168261205b565b8355505b6001600288020188555050505b505050505050565b7f55736572206e6f74207265676973746572656400000000000000000000000000600082015250565b600061219d60138361165c565b91506121a882612167565b602082019050919050565b600060208201905081810360008301526121cc81612190565b9050919050565b7f4e6f7420656e6f7567682066756e647300000000000000000000000000000000600082015250565b600061220960108361165c565b9150612214826121d3565b602082019050919050565b60006020820190508181036000830152612238816121fc565b9050919050565b7f50726f64756374206f7574206f662073746f636b000000000000000000000000600082015250565b600061227560148361165c565b91506122808261223f565b602082019050919050565b600060208201905081810360008301526122a481612268565b9050919050565b60006122b68261135c565b9150600082036122c9576122c8611e12565b5b600182039050919050565b7f4e487b7100000000000000000000000000000000000000000000000000000000600052603260045260246000fd5b600081905092915050565b60008190508160005260206000209050919050565b6000815461233081611eb8565b61233a8186612303565b94506001821660008114612355576001811461236a5761239d565b60ff198316865281151582028601935061239d565b6123738561230e565b60005b8381101561239557815481890152600182019150602081019050612376565b838801955050505b50505092915050565b60006123b28284612323565b91508190509291505056fea26469706673582212206f4b9430392e77a167c24e3f0c5b3bb4b6db7affdb1d415f99bbd015f0f6611664736f6c63430008110033","opcodes":"PUSH1 0x80 PUSH1 0x40 MSTORE CALLVALUE DUP1 ISZERO PUSH2 0x10 JUMPI PUSH1 0x0 DUP1 REVERT JUMPDEST POP PUSH2 0x23F3 DUP1 PUSH2 0x20 PUSH1 0x0 CODECOPY PUSH1 0x0 RETURN INVALID PUSH1 0x80 PUSH1 0x40 MSTORE PUSH1 0x4 CALLDATASIZE LT PUSH2 0xFE JUMPI PUSH1 0x0 CALLDATALOAD PUSH1 0xE0 SHR DUP1 PUSH4 0xA8CC7784 GT PUSH2 0x95 JUMPI DUP1 PUSH4 0xE0F6EF87 GT PUSH2 0x64 JUMPI DUP1 PUSH4 0xE0F6EF87 EQ PUSH2 0x368 JUMPI DUP1 PUSH4 0xE83DDCEA EQ PUSH2 0x393 JUMPI DUP1 PUSH4 0xED90C7B7 EQ PUSH2 0x3D5 JUMPI DUP1 PUSH4 0xEFF5924F EQ PUSH2 0x3FE JUMPI DUP1 PUSH4 0xF2943DCE EQ PUSH2 0x429 JUMPI PUSH2 0xFE JUMP JUMPDEST DUP1 PUSH4 0xA8CC7784 EQ PUSH2 0x2B0 JUMPI DUP1 PUSH4 0xC33D392F EQ PUSH2 0x2ED JUMPI DUP1 PUSH4 0xC4EC4F05 EQ PUSH2 0x316 JUMPI DUP1 PUSH4 0xD637DCFA EQ PUSH2 0x33F JUMPI PUSH2 0xFE JUMP JUMPDEST DUP1 PUSH4 0x4BB54384 GT PUSH2 0xD1 JUMPI DUP1 PUSH4 0x4BB54384 EQ PUSH2 0x1D4 JUMPI DUP1 PUSH4 0x7ACC0B20 EQ PUSH2 0x211 JUMPI DUP1 PUSH4 0x8642269E EQ PUSH2 0x257 JUMPI DUP1 PUSH4 0x9D4A2255 EQ PUSH2 0x273 JUMPI PUSH2 0xFE JUMP JUMPDEST DUP1 PUSH4 0x7973CCF EQ PUSH2 0x103 JUMPI DUP1 PUSH4 0x10ED96FA EQ PUSH2 0x12E JUMPI DUP1 PUSH4 0x2B956FF7 EQ PUSH2 0x157 JUMPI DUP1 PUSH4 0x365B98B2 EQ PUSH2 0x194 JUMPI JUMPDEST PUSH1 0x0 DUP1 REVERT JUMPDEST CALLVALUE DUP1 ISZERO PUSH2 0x10F JUMPI PUSH1 0x0 DUP1 REVERT JUMPDEST POP PUSH2 0x118 PUSH2 0x466 JUMP JUMPDEST PUSH1 0x40 MLOAD PUSH2 0x125 SWAP2 SWAP1 PUSH2 0x1375 JUMP JUMPDEST PUSH1 0x40 MLOAD DUP1 SWAP2 SUB SWAP1 RETURN JUMPDEST CALLVALUE DUP1 ISZERO PUSH2 0x13A JUMPI PUSH1 0x0 DUP1 REVERT JUMPDEST POP PUSH2 0x155 PUSH1 0x4 DUP1 CALLDATASIZE SUB DUP2 ADD SWAP1 PUSH2 0x150 SWAP2 SWAP1 PUSH2 0x1516 JUMP JUMPDEST PUSH2 0x46C JUMP JUMPDEST STOP JUMPDEST CALLVALUE DUP1 ISZERO PUSH2 0x163 JUMPI PUSH1 0x0 DUP1 REVERT JUMPDEST POP PUSH2 0x17E PUSH1 0x4 DUP1 CALLDATASIZE SUB DUP2 ADD SWAP1 PUSH2 0x179 SWAP2 SWAP1 PUSH2 0x15F7 JUMP JUMPDEST PUSH2 0x5A6 JUMP JUMPDEST PUSH1 0x40 MLOAD PUSH2 0x18B SWAP2 SWAP1 PUSH2 0x1375 JUMP JUMPDEST PUSH1 0x40 MLOAD DUP1 SWAP2 SUB SWAP1 RETURN JUMPDEST CALLVALUE DUP1 ISZERO PUSH2 0x1A0 JUMPI PUSH1 0x0 DUP1 REVERT JUMPDEST POP PUSH2 0x1BB PUSH1 0x4 DUP1 CALLDATASIZE SUB DUP2 ADD SWAP1 PUSH2 0x1B6 SWAP2 SWAP1 PUSH2 0x1624 JUMP JUMPDEST PUSH2 0x670 JUMP JUMPDEST PUSH1 0x40 MLOAD PUSH2 0x1CB SWAP5 SWAP4 SWAP3 SWAP2 SWAP1 PUSH2 0x16D0 JUMP JUMPDEST PUSH1 0x40 MLOAD DUP1 SWAP2 SUB SWAP1 RETURN JUMPDEST CALLVALUE DUP1 ISZERO PUSH2 0x1E0 JUMPI PUSH1 0x0 DUP1 REVERT JUMPDEST POP PUSH2 0x1FB PUSH1 0x4 DUP1 CALLDATASIZE SUB DUP2 ADD SWAP1 PUSH2 0x1F6 SWAP2 SWAP1 PUSH2 0x15F7 JUMP JUMPDEST PUSH2 0x838 JUMP JUMPDEST PUSH1 0x40 MLOAD PUSH2 0x208 SWAP2 SWAP1 PUSH2 0x1375 JUMP JUMPDEST PUSH1 0x40 MLOAD DUP1 SWAP2 SUB SWAP1 RETURN JUMPDEST CALLVALUE DUP1 ISZERO PUSH2 0x21D JUMPI PUSH1 0x0 DUP1 REVERT JUMPDEST POP PUSH2 0x238 PUSH1 0x4 DUP1 CALLDATASIZE SUB DUP2 ADD SWAP1 PUSH2 0x233 SWAP2 SWAP1 PUSH2 0x1624 JUMP JUMPDEST PUSH2 0x850 JUMP JUMPDEST PUSH1 0x40 MLOAD PUSH2 0x24E SWAP11 SWAP10 SWAP9 SWAP8 SWAP7 SWAP6 SWAP5 SWAP4 SWAP3 SWAP2 SWAP1 PUSH2 0x174B JUMP JUMPDEST PUSH1 0x40 MLOAD DUP1 SWAP2 SUB SWAP1 RETURN JUMPDEST PUSH2 0x271 PUSH1 0x4 DUP1 CALLDATASIZE SUB DUP2 ADD SWAP1 PUSH2 0x26C SWAP2 SWAP1 PUSH2 0x1624 JUMP JUMPDEST PUSH2 0xAE4 JUMP JUMPDEST STOP JUMPDEST CALLVALUE DUP1 ISZERO PUSH2 0x27F JUMPI PUSH1 0x0 DUP1 REVERT JUMPDEST POP PUSH2 0x29A PUSH1 0x4 DUP1 CALLDATASIZE SUB DUP2 ADD SWAP1 PUSH2 0x295 SWAP2 SWAP1 PUSH2 0x1624 JUMP JUMPDEST PUSH2 0xC1B JUMP JUMPDEST PUSH1 0x40 MLOAD PUSH2 0x2A7 SWAP2 SWAP1 PUSH2 0x19A7 JUMP JUMPDEST PUSH1 0x40 MLOAD DUP1 SWAP2 SUB SWAP1 RETURN JUMPDEST CALLVALUE DUP1 ISZERO PUSH2 0x2BC JUMPI PUSH1 0x0 DUP1 REVERT JUMPDEST POP PUSH2 0x2D7 PUSH1 0x4 DUP1 CALLDATASIZE SUB DUP2 ADD SWAP1 PUSH2 0x2D2 SWAP2 SWAP1 PUSH2 0x19C9 JUMP JUMPDEST PUSH2 0xE20 JUMP JUMPDEST PUSH1 0x40 MLOAD PUSH2 0x2E4 SWAP2 SWAP1 PUSH2 0x1A2D JUMP JUMPDEST PUSH1 0x40 MLOAD DUP1 SWAP2 SUB SWAP1 RETURN JUMPDEST CALLVALUE DUP1 ISZERO PUSH2 0x2F9 JUMPI PUSH1 0x0 DUP1 REVERT JUMPDEST POP PUSH2 0x314 PUSH1 0x4 DUP1 CALLDATASIZE SUB DUP2 ADD SWAP1 PUSH2 0x30F SWAP2 SWAP1 PUSH2 0x1A48 JUMP JUMPDEST PUSH2 0xE91 JUMP JUMPDEST STOP JUMPDEST CALLVALUE DUP1 ISZERO PUSH2 0x322 JUMPI PUSH1 0x0 DUP1 REVERT JUMPDEST POP PUSH2 0x33D PUSH1 0x4 DUP1 CALLDATASIZE SUB DUP2 ADD SWAP1 PUSH2 0x338 SWAP2 SWAP1 PUSH2 0x1B5A JUMP JUMPDEST PUSH2 0xF15 JUMP JUMPDEST STOP JUMPDEST CALLVALUE DUP1 ISZERO PUSH2 0x34B JUMPI PUSH1 0x0 DUP1 REVERT JUMPDEST POP PUSH2 0x366 PUSH1 0x4 DUP1 CALLDATASIZE SUB DUP2 ADD SWAP1 PUSH2 0x361 SWAP2 SWAP1 PUSH2 0x1C57 JUMP JUMPDEST PUSH2 0x107C JUMP JUMPDEST STOP JUMPDEST CALLVALUE DUP1 ISZERO PUSH2 0x374 JUMPI PUSH1 0x0 DUP1 REVERT JUMPDEST POP PUSH2 0x37D PUSH2 0x1120 JUMP JUMPDEST PUSH1 0x40 MLOAD PUSH2 0x38A SWAP2 SWAP1 PUSH2 0x1375 JUMP JUMPDEST PUSH1 0x40 MLOAD DUP1 SWAP2 SUB SWAP1 RETURN JUMPDEST CALLVALUE DUP1 ISZERO PUSH2 0x39F JUMPI PUSH1 0x0 DUP1 REVERT JUMPDEST POP PUSH2 0x3BA PUSH1 0x4 DUP1 CALLDATASIZE SUB DUP2 ADD SWAP1 PUSH2 0x3B5 SWAP2 SWAP1 PUSH2 0x1624 JUMP JUMPDEST PUSH2 0x1126 JUMP JUMPDEST PUSH1 0x40 MLOAD PUSH2 0x3CC SWAP7 SWAP6 SWAP5 SWAP4 SWAP3 SWAP2 SWAP1 PUSH2 0x1CFE JUMP JUMPDEST PUSH1 0x40 MLOAD DUP1 SWAP2 SUB SWAP1 RETURN JUMPDEST CALLVALUE DUP1 ISZERO PUSH2 0x3E1 JUMPI PUSH1 0x0 DUP1 REVERT JUMPDEST POP PUSH2 0x3FC PUSH1 0x4 DUP1 CALLDATASIZE SUB DUP2 ADD SWAP1 PUSH2 0x3F7 SWAP2 SWAP1 PUSH2 0x1624 JUMP JUMPDEST PUSH2 0x11EA JUMP JUMPDEST STOP JUMPDEST CALLVALUE DUP1 ISZERO PUSH2 0x40A JUMPI PUSH1 0x0 DUP1 REVERT JUMPDEST POP PUSH2 0x413 PUSH2 0x1292 JUMP JUMPDEST PUSH1 0x40 MLOAD PUSH2 0x420 SWAP2 SWAP1 PUSH2 0x1375 JUMP JUMPDEST PUSH1 0x40 MLOAD DUP1 SWAP2 SUB SWAP1 RETURN JUMPDEST CALLVALUE DUP1 ISZERO PUSH2 0x435 JUMPI PUSH1 0x0 DUP1 REVERT JUMPDEST POP PUSH2 0x450 PUSH1 0x4 DUP1 CALLDATASIZE SUB DUP2 ADD SWAP1 PUSH2 0x44B SWAP2 SWAP1 PUSH2 0x1D66 JUMP JUMPDEST PUSH2 0x1298 JUMP JUMPDEST PUSH1 0x40 MLOAD PUSH2 0x45D SWAP2 SWAP1 PUSH2 0x1375 JUMP JUMPDEST PUSH1 0x40 MLOAD DUP1 SWAP2 SUB SWAP1 RETURN JUMPDEST PUSH1 0x3 SLOAD DUP2 JUMP JUMPDEST PUSH1 0x1 DUP3 LT ISZERO DUP1 ISZERO PUSH2 0x47E JUMPI POP PUSH1 0x5 DUP3 GT ISZERO JUMPDEST PUSH2 0x4BD JUMPI PUSH1 0x40 MLOAD PUSH32 0x8C379A000000000000000000000000000000000000000000000000000000000 DUP2 MSTORE PUSH1 0x4 ADD PUSH2 0x4B4 SWAP1 PUSH2 0x1DF2 JUMP JUMPDEST PUSH1 0x40 MLOAD DUP1 SWAP2 SUB SWAP1 REVERT JUMPDEST PUSH1 0x4 PUSH1 0x0 DUP2 SLOAD DUP1 SWAP3 SWAP2 SWAP1 PUSH2 0x4D0 SWAP1 PUSH2 0x1E41 JUMP JUMPDEST SWAP2 SWAP1 POP SSTORE POP PUSH1 0x40 MLOAD DUP1 PUSH1 0xC0 ADD PUSH1 0x40 MSTORE DUP1 PUSH1 0x4 SLOAD DUP2 MSTORE PUSH1 0x20 ADD DUP5 DUP2 MSTORE PUSH1 0x20 ADD DUP6 DUP2 MSTORE PUSH1 0x20 ADD DUP4 DUP2 MSTORE PUSH1 0x20 ADD DUP3 DUP2 MSTORE PUSH1 0x20 ADD TIMESTAMP DUP2 MSTORE POP PUSH1 0x5 PUSH1 0x0 PUSH1 0x4 SLOAD DUP2 MSTORE PUSH1 0x20 ADD SWAP1 DUP2 MSTORE PUSH1 0x20 ADD PUSH1 0x0 KECCAK256 PUSH1 0x0 DUP3 ADD MLOAD DUP2 PUSH1 0x0 ADD SSTORE PUSH1 0x20 DUP3 ADD MLOAD DUP2 PUSH1 0x1 ADD SSTORE PUSH1 0x40 DUP3 ADD MLOAD DUP2 PUSH1 0x2 ADD SSTORE PUSH1 0x60 DUP3 ADD MLOAD DUP2 PUSH1 0x3 ADD SSTORE PUSH1 0x80 DUP3 ADD MLOAD DUP2 PUSH1 0x4 ADD SWAP1 DUP2 PUSH2 0x556 SWAP2 SWAP1 PUSH2 0x2095 JUMP JUMPDEST POP PUSH1 0xA0 DUP3 ADD MLOAD DUP2 PUSH1 0x5 ADD SSTORE SWAP1 POP POP PUSH1 0x6 PUSH1 0x0 DUP6 DUP2 MSTORE PUSH1 0x20 ADD SWAP1 DUP2 MSTORE PUSH1 0x20 ADD PUSH1 0x0 KECCAK256 PUSH1 0x4 SLOAD SWAP1 DUP1 PUSH1 0x1 DUP2 SLOAD ADD DUP1 DUP3 SSTORE DUP1 SWAP2 POP POP PUSH1 0x1 SWAP1 SUB SWAP1 PUSH1 0x0 MSTORE PUSH1 0x20 PUSH1 0x0 KECCAK256 ADD PUSH1 0x0 SWAP1 SWAP2 SWAP1 SWAP2 SWAP1 SWAP2 POP SSTORE POP POP POP POP JUMP JUMPDEST PUSH1 0x0 DUP1 PUSH1 0x7 PUSH1 0x0 DUP5 PUSH20 0xFFFFFFFFFFFFFFFFFFFFFFFFFFFFFFFFFFFFFFFF AND PUSH20 0xFFFFFFFFFFFFFFFFFFFFFFFFFFFFFFFFFFFFFFFF AND DUP2 MSTORE PUSH1 0x20 ADD SWAP1 DUP2 MSTORE PUSH1 0x20 ADD PUSH1 0x0 KECCAK256 SLOAD SUB PUSH2 0x629 JUMPI PUSH1 0x40 MLOAD PUSH32 0x8C379A000000000000000000000000000000000000000000000000000000000 DUP2 MSTORE PUSH1 0x4 ADD PUSH2 0x620 SWAP1 PUSH2 0x21B3 JUMP JUMPDEST PUSH1 0x40 MLOAD DUP1 SWAP2 SUB SWAP1 REVERT JUMPDEST PUSH1 0x7 PUSH1 0x0 DUP4 PUSH20 0xFFFFFFFFFFFFFFFFFFFFFFFFFFFFFFFFFFFFFFFF AND PUSH20 0xFFFFFFFFFFFFFFFFFFFFFFFFFFFFFFFFFFFFFFFF AND DUP2 MSTORE PUSH1 0x20 ADD SWAP1 DUP2 MSTORE PUSH1 0x20 ADD PUSH1 0x0 KECCAK256 SLOAD SWAP1 POP SWAP2 SWAP1 POP JUMP JUMPDEST PUSH1 0x2 PUSH1 0x20 MSTORE DUP1 PUSH1 0x0 MSTORE PUSH1 0x40 PUSH1 0x0 KECCAK256 PUSH1 0x0 SWAP2 POP SWAP1 POP DUP1 PUSH1 0x0 ADD SLOAD SWAP1 DUP1 PUSH1 0x1 ADD DUP1 SLOAD PUSH2 0x699 SWAP1 PUSH2 0x1EB8 JUMP JUMPDEST DUP1 PUSH1 0x1F ADD PUSH1 0x20 DUP1 SWAP2 DIV MUL PUSH1 0x20 ADD PUSH1 0x40 MLOAD SWAP1 DUP2 ADD PUSH1 0x40 MSTORE DUP1 SWAP3 SWAP2 SWAP1 DUP2 DUP2 MSTORE PUSH1 0x20 ADD DUP3 DUP1 SLOAD PUSH2 0x6C5 SWAP1 PUSH2 0x1EB8 JUMP JUMPDEST DUP1 ISZERO PUSH2 0x712 JUMPI DUP1 PUSH1 0x1F LT PUSH2 0x6E7 JUMPI PUSH2 0x100 DUP1 DUP4 SLOAD DIV MUL DUP4 MSTORE SWAP2 PUSH1 0x20 ADD SWAP2 PUSH2 0x712 JUMP JUMPDEST DUP3 ADD SWAP2 SWAP1 PUSH1 0x0 MSTORE PUSH1 0x20 PUSH1 0x0 KECCAK256 SWAP1 JUMPDEST DUP2 SLOAD DUP2 MSTORE SWAP1 PUSH1 0x1 ADD SWAP1 PUSH1 0x20 ADD DUP1 DUP4 GT PUSH2 0x6F5 JUMPI DUP3 SWAP1 SUB PUSH1 0x1F AND DUP3 ADD SWAP2 JUMPDEST POP POP POP POP POP SWAP1 DUP1 PUSH1 0x2 ADD DUP1 SLOAD PUSH2 0x727 SWAP1 PUSH2 0x1EB8 JUMP JUMPDEST DUP1 PUSH1 0x1F ADD PUSH1 0x20 DUP1 SWAP2 DIV MUL PUSH1 0x20 ADD PUSH1 0x40 MLOAD SWAP1 DUP2 ADD PUSH1 0x40 MSTORE DUP1 SWAP3 SWAP2 SWAP1 DUP2 DUP2 MSTORE PUSH1 0x20 ADD DUP3 DUP1 SLOAD PUSH2 0x753 SWAP1 PUSH2 0x1EB8 JUMP JUMPDEST DUP1 ISZERO PUSH2 0x7A0 JUMPI DUP1 PUSH1 0x1F LT PUSH2 0x775 JUMPI PUSH2 0x100 DUP1 DUP4 SLOAD DIV MUL DUP4 MSTORE SWAP2 PUSH1 0x20 ADD SWAP2 PUSH2 0x7A0 JUMP JUMPDEST DUP3 ADD SWAP2 SWAP1 PUSH1 0x0 MSTORE PUSH1 0x20 PUSH1 0x0 KECCAK256 SWAP1 JUMPDEST DUP2 SLOAD DUP2 MSTORE SWAP1 PUSH1 0x1 ADD SWAP1 PUSH1 0x20 ADD DUP1 DUP4 GT PUSH2 0x783 JUMPI DUP3 SWAP1 SUB PUSH1 0x1F AND DUP3 ADD SWAP2 JUMPDEST POP POP POP POP POP SWAP1 DUP1 PUSH1 0x3 ADD DUP1 SLOAD PUSH2 0x7B5 SWAP1 PUSH2 0x1EB8 JUMP JUMPDEST DUP1 PUSH1 0x1F ADD PUSH1 0x20 DUP1 SWAP2 DIV MUL PUSH1 0x20 ADD PUSH1 0x40 MLOAD SWAP1 DUP2 ADD PUSH1 0x40 MSTORE DUP1 SWAP3 SWAP2 SWAP1 DUP2 DUP2 MSTORE PUSH1 0x20 ADD DUP3 DUP1 SLOAD PUSH2 0x7E1 SWAP1 PUSH2 0x1EB8 JUMP JUMPDEST DUP1 ISZERO PUSH2 0x82E JUMPI DUP1 PUSH1 0x1F LT PUSH2 0x803 JUMPI PUSH2 0x100 DUP1 DUP4 SLOAD DIV MUL DUP4 MSTORE SWAP2 PUSH1 0x20 ADD SWAP2 PUSH2 0x82E JUMP JUMPDEST DUP3 ADD SWAP2 SWAP1 PUSH1 0x0 MSTORE PUSH1 0x20 PUSH1 0x0 KECCAK256 SWAP1 JUMPDEST DUP2 SLOAD DUP2 MSTORE SWAP1 PUSH1 0x1 ADD SWAP1 PUSH1 0x20 ADD DUP1 DUP4 GT PUSH2 0x811 JUMPI DUP3 SWAP1 SUB PUSH1 0x1F AND DUP3 ADD SWAP2 JUMPDEST POP POP POP POP POP SWAP1 POP DUP5 JUMP JUMPDEST PUSH1 0x7 PUSH1 0x20 MSTORE DUP1 PUSH1 0x0 MSTORE PUSH1 0x40 PUSH1 0x0 KECCAK256 PUSH1 0x0 SWAP2 POP SWAP1 POP SLOAD DUP2 JUMP JUMPDEST PUSH1 0x1 PUSH1 0x20 MSTORE DUP1 PUSH1 0x0 MSTORE PUSH1 0x40 PUSH1 0x0 KECCAK256 PUSH1 0x0 SWAP2 POP SWAP1 POP DUP1 PUSH1 0x0 ADD SLOAD SWAP1 DUP1 PUSH1 0x1 ADD DUP1 SLOAD PUSH2 0x879 SWAP1 PUSH2 0x1EB8 JUMP JUMPDEST DUP1 PUSH1 0x1F ADD PUSH1 0x20 DUP1 SWAP2 DIV MUL PUSH1 0x20 ADD PUSH1 0x40 MLOAD SWAP1 DUP2 ADD PUSH1 0x40 MSTORE DUP1 SWAP3 SWAP2 SWAP1 DUP2 DUP2 MSTORE PUSH1 0x20 ADD DUP3 DUP1 SLOAD PUSH2 0x8A5 SWAP1 PUSH2 0x1EB8 JUMP JUMPDEST DUP1 ISZERO PUSH2 0x8F2 JUMPI DUP1 PUSH1 0x1F LT PUSH2 0x8C7 JUMPI PUSH2 0x100 DUP1 DUP4 SLOAD DIV MUL DUP4 MSTORE SWAP2 PUSH1 0x20 ADD SWAP2 PUSH2 0x8F2 JUMP JUMPDEST DUP3 ADD SWAP2 SWAP1 PUSH1 0x0 MSTORE PUSH1 0x20 PUSH1 0x0 KECCAK256 SWAP1 JUMPDEST DUP2 SLOAD DUP2 MSTORE SWAP1 PUSH1 0x1 ADD SWAP1 PUSH1 0x20 ADD DUP1 DUP4 GT PUSH2 0x8D5 JUMPI DUP3 SWAP1 SUB PUSH1 0x1F AND DUP3 ADD SWAP2 JUMPDEST POP POP POP POP POP SWAP1 DUP1 PUSH1 0x2 ADD DUP1 SLOAD PUSH2 0x907 SWAP1 PUSH2 0x1EB8 JUMP JUMPDEST DUP1 PUSH1 0x1F ADD PUSH1 0x20 DUP1 SWAP2 DIV MUL PUSH1 0x20 ADD PUSH1 0x40 MLOAD SWAP1 DUP2 ADD PUSH1 0x40 MSTORE DUP1 SWAP3 SWAP2 SWAP1 DUP2 DUP2 MSTORE PUSH1 0x20 ADD DUP3 DUP1 SLOAD PUSH2 0x933 SWAP1 PUSH2 0x1EB8 JUMP JUMPDEST DUP1 ISZERO PUSH2 0x980 JUMPI DUP1 PUSH1 0x1F LT PUSH2 0x955 JUMPI PUSH2 0x100 DUP1 DUP4 SLOAD DIV MUL DUP4 MSTORE SWAP2 PUSH1 0x20 ADD SWAP2 PUSH2 0x980 JUMP JUMPDEST DUP3 ADD SWAP2 SWAP1 PUSH1 0x0 MSTORE PUSH1 0x20 PUSH1 0x0 KECCAK256 SWAP1 JUMPDEST DUP2 SLOAD DUP2 MSTORE SWAP1 PUSH1 0x1 ADD SWAP1 PUSH1 0x20 ADD DUP1 DUP4 GT PUSH2 0x963 JUMPI DUP3 SWAP1 SUB PUSH1 0x1F AND DUP3 ADD SWAP2 JUMPDEST POP POP POP POP POP SWAP1 DUP1 PUSH1 0x3 ADD SLOAD SWAP1 DUP1 PUSH1 0x4 ADD SLOAD SWAP1 DUP1 PUSH1 0x5 ADD DUP1 SLOAD PUSH2 0x9A1 SWAP1 PUSH2 0x1EB8 JUMP JUMPDEST DUP1 PUSH1 0x1F ADD PUSH1 0x20 DUP1 SWAP2 DIV MUL PUSH1 0x20 ADD PUSH1 0x40 MLOAD SWAP1 DUP2 ADD PUSH1 0x40 MSTORE DUP1 SWAP3 SWAP2 SWAP1 DUP2 DUP2 MSTORE PUSH1 0x20 ADD DUP3 DUP1 SLOAD PUSH2 0x9CD SWAP1 PUSH2 0x1EB8 JUMP JUMPDEST DUP1 ISZERO PUSH2 0xA1A JUMPI DUP1 PUSH1 0x1F LT PUSH2 0x9EF JUMPI PUSH2 0x100 DUP1 DUP4 SLOAD DIV MUL DUP4 MSTORE SWAP2 PUSH1 0x20 ADD SWAP2 PUSH2 0xA1A JUMP JUMPDEST DUP3 ADD SWAP2 SWAP1 PUSH1 0x0 MSTORE PUSH1 0x20 PUSH1 0x0 KECCAK256 SWAP1 JUMPDEST DUP2 SLOAD DUP2 MSTORE SWAP1 PUSH1 0x1 ADD SWAP1 PUSH1 0x20 ADD DUP1 DUP4 GT PUSH2 0x9FD JUMPI DUP3 SWAP1 SUB PUSH1 0x1F AND DUP3 ADD SWAP2 JUMPDEST POP POP POP POP POP SWAP1 DUP1 PUSH1 0x6 ADD DUP1 SLOAD PUSH2 0xA2F SWAP1 PUSH2 0x1EB8 JUMP JUMPDEST DUP1 PUSH1 0x1F ADD PUSH1 0x20 DUP1 SWAP2 DIV MUL PUSH1 0x20 ADD PUSH1 0x40 MLOAD SWAP1 DUP2 ADD PUSH1 0x40 MSTORE DUP1 SWAP3 SWAP2 SWAP1 DUP2 DUP2 MSTORE PUSH1 0x20 ADD DUP3 DUP1 SLOAD PUSH2 0xA5B SWAP1 PUSH2 0x1EB8 JUMP JUMPDEST DUP1 ISZERO PUSH2 0xAA8 JUMPI DUP1 PUSH1 0x1F LT PUSH2 0xA7D JUMPI PUSH2 0x100 DUP1 DUP4 SLOAD DIV MUL DUP4 MSTORE SWAP2 PUSH1 0x20 ADD SWAP2 PUSH2 0xAA8 JUMP JUMPDEST DUP3 ADD SWAP2 SWAP1 PUSH1 0x0 MSTORE PUSH1 0x20 PUSH1 0x0 KECCAK256 SWAP1 JUMPDEST DUP2 SLOAD DUP2 MSTORE SWAP1 PUSH1 0x1 ADD SWAP1 PUSH1 0x20 ADD DUP1 DUP4 GT PUSH2 0xA8B JUMPI DUP3 SWAP1 SUB PUSH1 0x1F AND DUP3 ADD SWAP2 JUMPDEST POP POP POP POP POP SWAP1 DUP1 PUSH1 0x7 ADD SLOAD SWAP1 DUP1 PUSH1 0x8 ADD SLOAD SWAP1 DUP1 PUSH1 0x9 ADD PUSH1 0x0 SWAP1 SLOAD SWAP1 PUSH2 0x100 EXP SWAP1 DIV PUSH20 0xFFFFFFFFFFFFFFFFFFFFFFFFFFFFFFFFFFFFFFFF AND SWAP1 POP DUP11 JUMP JUMPDEST PUSH1 0x0 PUSH1 0x1 PUSH1 0x0 DUP4 DUP2 MSTORE PUSH1 0x20 ADD SWAP1 DUP2 MSTORE PUSH1 0x20 ADD PUSH1 0x0 KECCAK256 SWAP1 POP DUP1 PUSH1 0x3 ADD SLOAD CALLVALUE LT ISZERO PUSH2 0xB42 JUMPI PUSH1 0x40 MLOAD PUSH32 0x8C379A000000000000000000000000000000000000000000000000000000000 DUP2 MSTORE PUSH1 0x4 ADD PUSH2 0xB39 SWAP1 PUSH2 0x221F JUMP JUMPDEST PUSH1 0x40 MLOAD DUP1 SWAP2 SUB SWAP1 REVERT JUMPDEST PUSH1 0x0 DUP2 PUSH1 0x4 ADD SLOAD GT PUSH2 0xB89 JUMPI PUSH1 0x40 MLOAD PUSH32 0x8C379A000000000000000000000000000000000000000000000000000000000 DUP2 MSTORE PUSH1 0x4 ADD PUSH2 0xB80 SWAP1 PUSH2 0x228B JUMP JUMPDEST PUSH1 0x40 MLOAD DUP1 SWAP2 SUB SWAP1 REVERT JUMPDEST DUP1 PUSH1 0x4 ADD PUSH1 0x0 DUP2 SLOAD DUP1 SWAP3 SWAP2 SWAP1 PUSH2 0xB9E SWAP1 PUSH2 0x22AB JUMP JUMPDEST SWAP2 SWAP1 POP SSTORE POP DUP1 PUSH1 0x9 ADD PUSH1 0x0 SWAP1 SLOAD SWAP1 PUSH2 0x100 EXP SWAP1 DIV PUSH20 0xFFFFFFFFFFFFFFFFFFFFFFFFFFFFFFFFFFFFFFFF AND PUSH20 0xFFFFFFFFFFFFFFFFFFFFFFFFFFFFFFFFFFFFFFFF AND PUSH2 0x8FC CALLVALUE SWAP1 DUP2 ISZERO MUL SWAP1 PUSH1 0x40 MLOAD PUSH1 0x0 PUSH1 0x40 MLOAD DUP1 DUP4 SUB DUP2 DUP6 DUP9 DUP9 CALL SWAP4 POP POP POP POP ISZERO DUP1 ISZERO PUSH2 0xC0D JUMPI RETURNDATASIZE PUSH1 0x0 DUP1 RETURNDATACOPY RETURNDATASIZE PUSH1 0x0 REVERT JUMPDEST POP TIMESTAMP DUP2 PUSH1 0x8 ADD DUP2 SWAP1 SSTORE POP POP POP JUMP JUMPDEST PUSH1 0x60 PUSH1 0x0 PUSH1 0x6 PUSH1 0x0 DUP5 DUP2 MSTORE PUSH1 0x20 ADD SWAP1 DUP2 MSTORE PUSH1 0x20 ADD PUSH1 0x0 KECCAK256 DUP1 SLOAD DUP1 PUSH1 0x20 MUL PUSH1 0x20 ADD PUSH1 0x40 MLOAD SWAP1 DUP2 ADD PUSH1 0x40 MSTORE DUP1 SWAP3 SWAP2 SWAP1 DUP2 DUP2 MSTORE PUSH1 0x20 ADD DUP3 DUP1 SLOAD DUP1 ISZERO PUSH2 0xC7C JUMPI PUSH1 0x20 MUL DUP3 ADD SWAP2 SWAP1 PUSH1 0x0 MSTORE PUSH1 0x20 PUSH1 0x0 KECCAK256 SWAP1 JUMPDEST DUP2 SLOAD DUP2 MSTORE PUSH1 0x20 ADD SWAP1 PUSH1 0x1 ADD SWAP1 DUP1 DUP4 GT PUSH2 0xC68 JUMPI JUMPDEST POP POP POP POP POP SWAP1 POP PUSH1 0x0 DUP2 MLOAD PUSH8 0xFFFFFFFFFFFFFFFF DUP2 GT ISZERO PUSH2 0xCA0 JUMPI PUSH2 0xC9F PUSH2 0x13EB JUMP JUMPDEST JUMPDEST PUSH1 0x40 MLOAD SWAP1 DUP1 DUP3 MSTORE DUP1 PUSH1 0x20 MUL PUSH1 0x20 ADD DUP3 ADD PUSH1 0x40 MSTORE DUP1 ISZERO PUSH2 0xCD9 JUMPI DUP2 PUSH1 0x20 ADD JUMPDEST PUSH2 0xCC6 PUSH2 0x12C9 JUMP JUMPDEST DUP2 MSTORE PUSH1 0x20 ADD SWAP1 PUSH1 0x1 SWAP1 SUB SWAP1 DUP2 PUSH2 0xCBE JUMPI SWAP1 POP JUMPDEST POP SWAP1 POP PUSH1 0x0 JUMPDEST DUP3 MLOAD DUP2 LT ISZERO PUSH2 0xE15 JUMPI PUSH1 0x5 PUSH1 0x0 DUP5 DUP4 DUP2 MLOAD DUP2 LT PUSH2 0xCFF JUMPI PUSH2 0xCFE PUSH2 0x22D4 JUMP JUMPDEST JUMPDEST PUSH1 0x20 MUL PUSH1 0x20 ADD ADD MLOAD DUP2 MSTORE PUSH1 0x20 ADD SWAP1 DUP2 MSTORE PUSH1 0x20 ADD PUSH1 0x0 KECCAK256 PUSH1 0x40 MLOAD DUP1 PUSH1 0xC0 ADD PUSH1 0x40 MSTORE SWAP1 DUP2 PUSH1 0x0 DUP3 ADD SLOAD DUP2 MSTORE PUSH1 0x20 ADD PUSH1 0x1 DUP3 ADD SLOAD DUP2 MSTORE PUSH1 0x20 ADD PUSH1 0x2 DUP3 ADD SLOAD DUP2 MSTORE PUSH1 0x20 ADD PUSH1 0x3 DUP3 ADD SLOAD DUP2 MSTORE PUSH1 0x20 ADD PUSH1 0x4 DUP3 ADD DUP1 SLOAD PUSH2 0xD58 SWAP1 PUSH2 0x1EB8 JUMP JUMPDEST DUP1 PUSH1 0x1F ADD PUSH1 0x20 DUP1 SWAP2 DIV MUL PUSH1 0x20 ADD PUSH1 0x40 MLOAD SWAP1 DUP2 ADD PUSH1 0x40 MSTORE DUP1 SWAP3 SWAP2 SWAP1 DUP2 DUP2 MSTORE PUSH1 0x20 ADD DUP3 DUP1 SLOAD PUSH2 0xD84 SWAP1 PUSH2 0x1EB8 JUMP JUMPDEST DUP1 ISZERO PUSH2 0xDD1 JUMPI DUP1 PUSH1 0x1F LT PUSH2 0xDA6 JUMPI PUSH2 0x100 DUP1 DUP4 SLOAD DIV MUL DUP4 MSTORE SWAP2 PUSH1 0x20 ADD SWAP2 PUSH2 0xDD1 JUMP JUMPDEST DUP3 ADD SWAP2 SWAP1 PUSH1 0x0 MSTORE PUSH1 0x20 PUSH1 0x0 KECCAK256 SWAP1 JUMPDEST DUP2 SLOAD DUP2 MSTORE SWAP1 PUSH1 0x1 ADD SWAP1 PUSH1 0x20 ADD DUP1 DUP4 GT PUSH2 0xDB4 JUMPI DUP3 SWAP1 SUB PUSH1 0x1F AND DUP3 ADD SWAP2 JUMPDEST POP POP POP POP POP DUP2 MSTORE PUSH1 0x20 ADD PUSH1 0x5 DUP3 ADD SLOAD DUP2 MSTORE POP POP DUP3 DUP3 DUP2 MLOAD DUP2 LT PUSH2 0xDF7 JUMPI PUSH2 0xDF6 PUSH2 0x22D4 JUMP JUMPDEST JUMPDEST PUSH1 0x20 MUL PUSH1 0x20 ADD ADD DUP2 SWAP1 MSTORE POP DUP1 DUP1 PUSH2 0xE0D SWAP1 PUSH2 0x1E41 JUMP JUMPDEST SWAP2 POP POP PUSH2 0xCDF JUMP JUMPDEST POP DUP1 SWAP3 POP POP POP SWAP2 SWAP1 POP JUMP JUMPDEST PUSH1 0x0 DUP1 PUSH1 0x1 SWAP1 POP JUMPDEST PUSH1 0x3 SLOAD DUP2 GT PUSH2 0xE86 JUMPI DUP3 DUP1 MLOAD SWAP1 PUSH1 0x20 ADD KECCAK256 PUSH1 0x2 PUSH1 0x0 DUP4 DUP2 MSTORE PUSH1 0x20 ADD SWAP1 DUP2 MSTORE PUSH1 0x20 ADD PUSH1 0x0 KECCAK256 PUSH1 0x3 ADD PUSH1 0x40 MLOAD PUSH2 0xE5C SWAP2 SWAP1 PUSH2 0x23A6 JUMP JUMPDEST PUSH1 0x40 MLOAD DUP1 SWAP2 SUB SWAP1 KECCAK256 SUB PUSH2 0xE73 JUMPI PUSH1 0x1 SWAP2 POP POP PUSH2 0xE8C JUMP JUMPDEST DUP1 DUP1 PUSH2 0xE7E SWAP1 PUSH2 0x1E41 JUMP JUMPDEST SWAP2 POP POP PUSH2 0xE28 JUMP JUMPDEST POP PUSH1 0x0 SWAP1 POP JUMPDEST SWAP2 SWAP1 POP JUMP JUMPDEST PUSH1 0x0 PUSH1 0x1 PUSH1 0x0 DUP10 DUP2 MSTORE PUSH1 0x20 ADD SWAP1 DUP2 MSTORE PUSH1 0x20 ADD PUSH1 0x0 KECCAK256 SWAP1 POP DUP7 DUP2 PUSH1 0x1 ADD SWAP1 DUP2 PUSH2 0xEB9 SWAP2 SWAP1 PUSH2 0x2095 JUMP JUMPDEST POP DUP6 DUP2 PUSH1 0x2 ADD SWAP1 DUP2 PUSH2 0xECB SWAP2 SWAP1 PUSH2 0x2095 JUMP JUMPDEST POP DUP5 DUP2 PUSH1 0x3 ADD DUP2 SWAP1 SSTORE POP DUP4 DUP2 PUSH1 0x4 ADD DUP2 SWAP1 SSTORE POP DUP3 DUP2 PUSH1 0x5 ADD SWAP1 DUP2 PUSH2 0xEEF SWAP2 SWAP1 PUSH2 0x2095 JUMP JUMPDEST POP DUP2 DUP2 PUSH1 0x6 ADD SWAP1 DUP2 PUSH2 0xF01 SWAP2 SWAP1 PUSH2 0x2095 JUMP JUMPDEST POP TIMESTAMP DUP2 PUSH1 0x8 ADD DUP2 SWAP1 SSTORE POP POP POP POP POP POP POP POP POP JUMP JUMPDEST PUSH1 0x0 DUP1 DUP2 SLOAD DUP1 SWAP3 SWAP2 SWAP1 PUSH2 0xF27 SWAP1 PUSH2 0x1E41 JUMP JUMPDEST SWAP2 SWAP1 POP SSTORE POP PUSH1 0x40 MLOAD DUP1 PUSH2 0x140 ADD PUSH1 0x40 MSTORE DUP1 PUSH1 0x0 SLOAD DUP2 MSTORE PUSH1 0x20 ADD DUP8 DUP2 MSTORE PUSH1 0x20 ADD DUP7 DUP2 MSTORE PUSH1 0x20 ADD DUP6 DUP2 MSTORE PUSH1 0x20 ADD DUP5 DUP2 MSTORE PUSH1 0x20 ADD DUP4 DUP2 MSTORE PUSH1 0x20 ADD DUP3 DUP2 MSTORE PUSH1 0x20 ADD TIMESTAMP DUP2 MSTORE PUSH1 0x20 ADD TIMESTAMP DUP2 MSTORE PUSH1 0x20 ADD CALLER PUSH20 0xFFFFFFFFFFFFFFFFFFFFFFFFFFFFFFFFFFFFFFFF AND DUP2 MSTORE POP PUSH1 0x1 PUSH1 0x0 DUP1 SLOAD DUP2 MSTORE PUSH1 0x20 ADD SWAP1 DUP2 MSTORE PUSH1 0x20 ADD PUSH1 0x0 KECCAK256 PUSH1 0x0 DUP3 ADD MLOAD DUP2 PUSH1 0x0 ADD SSTORE PUSH1 0x20 DUP3 ADD MLOAD DUP2 PUSH1 0x1 ADD SWAP1 DUP2 PUSH2 0xFBD SWAP2 SWAP1 PUSH2 0x2095 JUMP JUMPDEST POP PUSH1 0x40 DUP3 ADD MLOAD DUP2 PUSH1 0x2 ADD SWAP1 DUP2 PUSH2 0xFD3 SWAP2 SWAP1 PUSH2 0x2095 JUMP JUMPDEST POP PUSH1 0x60 DUP3 ADD MLOAD DUP2 PUSH1 0x3 ADD SSTORE PUSH1 0x80 DUP3 ADD MLOAD DUP2 PUSH1 0x4 ADD SSTORE PUSH1 0xA0 DUP3 ADD MLOAD DUP2 PUSH1 0x5 ADD SWAP1 DUP2 PUSH2 0xFFD SWAP2 SWAP1 PUSH2 0x2095 JUMP JUMPDEST POP PUSH1 0xC0 DUP3 ADD MLOAD DUP2 PUSH1 0x6 ADD SWAP1 DUP2 PUSH2 0x1013 SWAP2 SWAP1 PUSH2 0x2095 JUMP JUMPDEST POP PUSH1 0xE0 DUP3 ADD MLOAD DUP2 PUSH1 0x7 ADD SSTORE PUSH2 0x100 DUP3 ADD MLOAD DUP2 PUSH1 0x8 ADD SSTORE PUSH2 0x120 DUP3 ADD MLOAD DUP2 PUSH1 0x9 ADD PUSH1 0x0 PUSH2 0x100 EXP DUP2 SLOAD DUP2 PUSH20 0xFFFFFFFFFFFFFFFFFFFFFFFFFFFFFFFFFFFFFFFF MUL NOT AND SWAP1 DUP4 PUSH20 0xFFFFFFFFFFFFFFFFFFFFFFFFFFFFFFFFFFFFFFFF AND MUL OR SWAP1 SSTORE POP SWAP1 POP POP POP POP POP POP POP POP JUMP JUMPDEST PUSH1 0x3 PUSH1 0x0 DUP2 SLOAD DUP1 SWAP3 SWAP2 SWAP1 PUSH2 0x108F SWAP1 PUSH2 0x1E41 JUMP JUMPDEST SWAP2 SWAP1 POP SSTORE POP PUSH1 0x40 MLOAD DUP1 PUSH1 0x80 ADD PUSH1 0x40 MSTORE DUP1 PUSH1 0x3 SLOAD DUP2 MSTORE PUSH1 0x20 ADD DUP5 DUP2 MSTORE PUSH1 0x20 ADD DUP4 DUP2 MSTORE PUSH1 0x20 ADD DUP3 DUP2 MSTORE POP PUSH1 0x2 PUSH1 0x0 PUSH1 0x3 SLOAD DUP2 MSTORE PUSH1 0x20 ADD SWAP1 DUP2 MSTORE PUSH1 0x20 ADD PUSH1 0x0 KECCAK256 PUSH1 0x0 DUP3 ADD MLOAD DUP2 PUSH1 0x0 ADD SSTORE PUSH1 0x20 DUP3 ADD MLOAD DUP2 PUSH1 0x1 ADD SWAP1 DUP2 PUSH2 0x10EB SWAP2 SWAP1 PUSH2 0x2095 JUMP JUMPDEST POP PUSH1 0x40 DUP3 ADD MLOAD DUP2 PUSH1 0x2 ADD SWAP1 DUP2 PUSH2 0x1101 SWAP2 SWAP1 PUSH2 0x2095 JUMP JUMPDEST POP PUSH1 0x60 DUP3 ADD MLOAD DUP2 PUSH1 0x3 ADD SWAP1 DUP2 PUSH2 0x1117 SWAP2 SWAP1 PUSH2 0x2095 JUMP JUMPDEST POP SWAP1 POP POP POP POP POP JUMP JUMPDEST PUSH1 0x0 SLOAD DUP2 JUMP JUMPDEST PUSH1 0x5 PUSH1 0x20 MSTORE DUP1 PUSH1 0x0 MSTORE PUSH1 0x40 PUSH1 0x0 KECCAK256 PUSH1 0x0 SWAP2 POP SWAP1 POP DUP1 PUSH1 0x0 ADD SLOAD SWAP1 DUP1 PUSH1 0x1 ADD SLOAD SWAP1 DUP1 PUSH1 0x2 ADD SLOAD SWAP1 DUP1 PUSH1 0x3 ADD SLOAD SWAP1 DUP1 PUSH1 0x4 ADD DUP1 SLOAD PUSH2 0x1161 SWAP1 PUSH2 0x1EB8 JUMP JUMPDEST DUP1 PUSH1 0x1F ADD PUSH1 0x20 DUP1 SWAP2 DIV MUL PUSH1 0x20 ADD PUSH1 0x40 MLOAD SWAP1 DUP2 ADD PUSH1 0x40 MSTORE DUP1 SWAP3 SWAP2 SWAP1 DUP2 DUP2 MSTORE PUSH1 0x20 ADD DUP3 DUP1 SLOAD PUSH2 0x118D SWAP1 PUSH2 0x1EB8 JUMP JUMPDEST DUP1 ISZERO PUSH2 0x11DA JUMPI DUP1 PUSH1 0x1F LT PUSH2 0x11AF JUMPI PUSH2 0x100 DUP1 DUP4 SLOAD DIV MUL DUP4 MSTORE SWAP2 PUSH1 0x20 ADD SWAP2 PUSH2 0x11DA JUMP JUMPDEST DUP3 ADD SWAP2 SWAP1 PUSH1 0x0 MSTORE PUSH1 0x20 PUSH1 0x0 KECCAK256 SWAP1 JUMPDEST DUP2 SLOAD DUP2 MSTORE SWAP1 PUSH1 0x1 ADD SWAP1 PUSH1 0x20 ADD DUP1 DUP4 GT PUSH2 0x11BD JUMPI DUP3 SWAP1 SUB PUSH1 0x1F AND DUP3 ADD SWAP2 JUMPDEST POP POP POP POP POP SWAP1 DUP1 PUSH1 0x5 ADD SLOAD SWAP1 POP DUP7 JUMP JUMPDEST PUSH1 0x1 PUSH1 0x0 DUP3 DUP2 MSTORE PUSH1 0x20 ADD SWAP1 DUP2 MSTORE PUSH1 0x20 ADD PUSH1 0x0 KECCAK256 PUSH1 0x0 DUP1 DUP3 ADD PUSH1 0x0 SWAP1 SSTORE PUSH1 0x1 DUP3 ADD PUSH1 0x0 PUSH2 0x1216 SWAP2 SWAP1 PUSH2 0x12FF JUMP JUMPDEST PUSH1 0x2 DUP3 ADD PUSH1 0x0 PUSH2 0x1226 SWAP2 SWAP1 PUSH2 0x12FF JUMP JUMPDEST PUSH1 0x3 DUP3 ADD PUSH1 0x0 SWAP1 SSTORE PUSH1 0x4 DUP3 ADD PUSH1 0x0 SWAP1 SSTORE PUSH1 0x5 DUP3 ADD PUSH1 0x0 PUSH2 0x1246 SWAP2 SWAP1 PUSH2 0x12FF JUMP JUMPDEST PUSH1 0x6 DUP3 ADD PUSH1 0x0 PUSH2 0x1256 SWAP2 SWAP1 PUSH2 0x12FF JUMP JUMPDEST PUSH1 0x7 DUP3 ADD PUSH1 0x0 SWAP1 SSTORE PUSH1 0x8 DUP3 ADD PUSH1 0x0 SWAP1 SSTORE PUSH1 0x9 DUP3 ADD PUSH1 0x0 PUSH2 0x100 EXP DUP2 SLOAD SWAP1 PUSH20 0xFFFFFFFFFFFFFFFFFFFFFFFFFFFFFFFFFFFFFFFF MUL NOT AND SWAP1 SSTORE POP POP POP JUMP JUMPDEST PUSH1 0x4 SLOAD DUP2 JUMP JUMPDEST PUSH1 0x6 PUSH1 0x20 MSTORE DUP2 PUSH1 0x0 MSTORE PUSH1 0x40 PUSH1 0x0 KECCAK256 DUP2 DUP2 SLOAD DUP2 LT PUSH2 0x12B4 JUMPI PUSH1 0x0 DUP1 REVERT JUMPDEST SWAP1 PUSH1 0x0 MSTORE PUSH1 0x20 PUSH1 0x0 KECCAK256 ADD PUSH1 0x0 SWAP2 POP SWAP2 POP POP SLOAD DUP2 JUMP JUMPDEST PUSH1 0x40 MLOAD DUP1 PUSH1 0xC0 ADD PUSH1 0x40 MSTORE DUP1 PUSH1 0x0 DUP2 MSTORE PUSH1 0x20 ADD PUSH1 0x0 DUP2 MSTORE PUSH1 0x20 ADD PUSH1 0x0 DUP2 MSTORE PUSH1 0x20 ADD PUSH1 0x0 DUP2 MSTORE PUSH1 0x20 ADD PUSH1 0x60 DUP2 MSTORE PUSH1 0x20 ADD PUSH1 0x0 DUP2 MSTORE POP SWAP1 JUMP JUMPDEST POP DUP1 SLOAD PUSH2 0x130B SWAP1 PUSH2 0x1EB8 JUMP JUMPDEST PUSH1 0x0 DUP3 SSTORE DUP1 PUSH1 0x1F LT PUSH2 0x131D JUMPI POP PUSH2 0x133C JUMP JUMPDEST PUSH1 0x1F ADD PUSH1 0x20 SWAP1 DIV SWAP1 PUSH1 0x0 MSTORE PUSH1 0x20 PUSH1 0x0 KECCAK256 SWAP1 DUP2 ADD SWAP1 PUSH2 0x133B SWAP2 SWAP1 PUSH2 0x133F JUMP JUMPDEST JUMPDEST POP JUMP JUMPDEST JUMPDEST DUP1 DUP3 GT ISZERO PUSH2 0x1358 JUMPI PUSH1 0x0 DUP2 PUSH1 0x0 SWAP1 SSTORE POP PUSH1 0x1 ADD PUSH2 0x1340 JUMP JUMPDEST POP SWAP1 JUMP JUMPDEST PUSH1 0x0 DUP2 SWAP1 POP SWAP2 SWAP1 POP JUMP JUMPDEST PUSH2 0x136F DUP2 PUSH2 0x135C JUMP JUMPDEST DUP3 MSTORE POP POP JUMP JUMPDEST PUSH1 0x0 PUSH1 0x20 DUP3 ADD SWAP1 POP PUSH2 0x138A PUSH1 0x0 DUP4 ADD DUP5 PUSH2 0x1366 JUMP JUMPDEST SWAP3 SWAP2 POP POP JUMP JUMPDEST PUSH1 0x0 PUSH1 0x40 MLOAD SWAP1 POP SWAP1 JUMP JUMPDEST PUSH1 0x0 DUP1 REVERT JUMPDEST PUSH1 0x0 DUP1 REVERT JUMPDEST PUSH2 0x13AD DUP2 PUSH2 0x135C JUMP JUMPDEST DUP2 EQ PUSH2 0x13B8 JUMPI PUSH1 0x0 DUP1 REVERT JUMPDEST POP JUMP JUMPDEST PUSH1 0x0 DUP2 CALLDATALOAD SWAP1 POP PUSH2 0x13CA DUP2 PUSH2 0x13A4 JUMP JUMPDEST SWAP3 SWAP2 POP POP JUMP JUMPDEST PUSH1 0x0 DUP1 REVERT JUMPDEST PUSH1 0x0 DUP1 REVERT JUMPDEST PUSH1 0x0 PUSH1 0x1F NOT PUSH1 0x1F DUP4 ADD AND SWAP1 POP SWAP2 SWAP1 POP JUMP JUMPDEST PUSH32 0x4E487B7100000000000000000000000000000000000000000000000000000000 PUSH1 0x0 MSTORE PUSH1 0x41 PUSH1 0x4 MSTORE PUSH1 0x24 PUSH1 0x0 REVERT JUMPDEST PUSH2 0x1423 DUP3 PUSH2 0x13DA JUMP JUMPDEST DUP2 ADD DUP2 DUP2 LT PUSH8 0xFFFFFFFFFFFFFFFF DUP3 GT OR ISZERO PUSH2 0x1442 JUMPI PUSH2 0x1441 PUSH2 0x13EB JUMP JUMPDEST JUMPDEST DUP1 PUSH1 0x40 MSTORE POP POP POP JUMP JUMPDEST PUSH1 0x0 PUSH2 0x1455 PUSH2 0x1390 JUMP JUMPDEST SWAP1 POP PUSH2 0x1461 DUP3 DUP3 PUSH2 0x141A JUMP JUMPDEST SWAP2 SWAP1 POP JUMP JUMPDEST PUSH1 0x0 PUSH8 0xFFFFFFFFFFFFFFFF DUP3 GT ISZERO PUSH2 0x1481 JUMPI PUSH2 0x1480 PUSH2 0x13EB JUMP JUMPDEST JUMPDEST PUSH2 0x148A DUP3 PUSH2 0x13DA JUMP JUMPDEST SWAP1 POP PUSH1 0x20 DUP2 ADD SWAP1 POP SWAP2 SWAP1 POP JUMP JUMPDEST DUP3 DUP2 DUP4 CALLDATACOPY PUSH1 0x0 DUP4 DUP4 ADD MSTORE POP POP POP JUMP JUMPDEST PUSH1 0x0 PUSH2 0x14B9 PUSH2 0x14B4 DUP5 PUSH2 0x1466 JUMP JUMPDEST PUSH2 0x144B JUMP JUMPDEST SWAP1 POP DUP3 DUP2 MSTORE PUSH1 0x20 DUP2 ADD DUP5 DUP5 DUP5 ADD GT ISZERO PUSH2 0x14D5 JUMPI PUSH2 0x14D4 PUSH2 0x13D5 JUMP JUMPDEST JUMPDEST PUSH2 0x14E0 DUP5 DUP3 DUP6 PUSH2 0x1497 JUMP JUMPDEST POP SWAP4 SWAP3 POP POP POP JUMP JUMPDEST PUSH1 0x0 DUP3 PUSH1 0x1F DUP4 ADD SLT PUSH2 0x14FD JUMPI PUSH2 0x14FC PUSH2 0x13D0 JUMP JUMPDEST JUMPDEST DUP2 CALLDATALOAD PUSH2 0x150D DUP5 DUP3 PUSH1 0x20 DUP7 ADD PUSH2 0x14A6 JUMP JUMPDEST SWAP2 POP POP SWAP3 SWAP2 POP POP JUMP JUMPDEST PUSH1 0x0 DUP1 PUSH1 0x0 DUP1 PUSH1 0x80 DUP6 DUP8 SUB SLT ISZERO PUSH2 0x1530 JUMPI PUSH2 0x152F PUSH2 0x139A JUMP JUMPDEST JUMPDEST PUSH1 0x0 PUSH2 0x153E DUP8 DUP3 DUP9 ADD PUSH2 0x13BB JUMP JUMPDEST SWAP5 POP POP PUSH1 0x20 PUSH2 0x154F DUP8 DUP3 DUP9 ADD PUSH2 0x13BB JUMP JUMPDEST SWAP4 POP POP PUSH1 0x40 PUSH2 0x1560 DUP8 DUP3 DUP9 ADD PUSH2 0x13BB JUMP JUMPDEST SWAP3 POP POP PUSH1 0x60 DUP6 ADD CALLDATALOAD PUSH8 0xFFFFFFFFFFFFFFFF DUP2 GT ISZERO PUSH2 0x1581 JUMPI PUSH2 0x1580 PUSH2 0x139F JUMP JUMPDEST JUMPDEST PUSH2 0x158D DUP8 DUP3 DUP9 ADD PUSH2 0x14E8 JUMP JUMPDEST SWAP2 POP POP SWAP3 SWAP6 SWAP2 SWAP5 POP SWAP3 POP JUMP JUMPDEST PUSH1 0x0 PUSH20 0xFFFFFFFFFFFFFFFFFFFFFFFFFFFFFFFFFFFFFFFF DUP3 AND SWAP1 POP SWAP2 SWAP1 POP JUMP JUMPDEST PUSH1 0x0 PUSH2 0x15C4 DUP3 PUSH2 0x1599 JUMP JUMPDEST SWAP1 POP SWAP2 SWAP1 POP JUMP JUMPDEST PUSH2 0x15D4 DUP2 PUSH2 0x15B9 JUMP JUMPDEST DUP2 EQ PUSH2 0x15DF JUMPI PUSH1 0x0 DUP1 REVERT JUMPDEST POP JUMP JUMPDEST PUSH1 0x0 DUP2 CALLDATALOAD SWAP1 POP PUSH2 0x15F1 DUP2 PUSH2 0x15CB JUMP JUMPDEST SWAP3 SWAP2 POP POP JUMP JUMPDEST PUSH1 0x0 PUSH1 0x20 DUP3 DUP5 SUB SLT ISZERO PUSH2 0x160D JUMPI PUSH2 0x160C PUSH2 0x139A JUMP JUMPDEST JUMPDEST PUSH1 0x0 PUSH2 0x161B DUP5 DUP3 DUP6 ADD PUSH2 0x15E2 JUMP JUMPDEST SWAP2 POP POP SWAP3 SWAP2 POP POP JUMP JUMPDEST PUSH1 0x0 PUSH1 0x20 DUP3 DUP5 SUB SLT ISZERO PUSH2 0x163A JUMPI PUSH2 0x1639 PUSH2 0x139A JUMP JUMPDEST JUMPDEST PUSH1 0x0 PUSH2 0x1648 DUP5 DUP3 DUP6 ADD PUSH2 0x13BB JUMP JUMPDEST SWAP2 POP POP SWAP3 SWAP2 POP POP JUMP JUMPDEST PUSH1 0x0 DUP2 MLOAD SWAP1 POP SWAP2 SWAP1 POP JUMP JUMPDEST PUSH1 0x0 DUP3 DUP3 MSTORE PUSH1 0x20 DUP3 ADD SWAP1 POP SWAP3 SWAP2 POP POP JUMP JUMPDEST PUSH1 0x0 JUMPDEST DUP4 DUP2 LT ISZERO PUSH2 0x168B JUMPI DUP1 DUP3 ADD MLOAD DUP2 DUP5 ADD MSTORE PUSH1 0x20 DUP2 ADD SWAP1 POP PUSH2 0x1670 JUMP JUMPDEST PUSH1 0x0 DUP5 DUP5 ADD MSTORE POP POP POP POP JUMP JUMPDEST PUSH1 0x0 PUSH2 0x16A2 DUP3 PUSH2 0x1651 JUMP JUMPDEST PUSH2 0x16AC DUP2 DUP6 PUSH2 0x165C JUMP JUMPDEST SWAP4 POP PUSH2 0x16BC DUP2 DUP6 PUSH1 0x20 DUP7 ADD PUSH2 0x166D JUMP JUMPDEST PUSH2 0x16C5 DUP2 PUSH2 0x13DA JUMP JUMPDEST DUP5 ADD SWAP2 POP POP SWAP3 SWAP2 POP POP JUMP JUMPDEST PUSH1 0x0 PUSH1 0x80 DUP3 ADD SWAP1 POP PUSH2 0x16E5 PUSH1 0x0 DUP4 ADD DUP8 PUSH2 0x1366 JUMP JUMPDEST DUP2 DUP2 SUB PUSH1 0x20 DUP4 ADD MSTORE PUSH2 0x16F7 DUP2 DUP7 PUSH2 0x1697 JUMP JUMPDEST SWAP1 POP DUP2 DUP2 SUB PUSH1 0x40 DUP4 ADD MSTORE PUSH2 0x170B DUP2 DUP6 PUSH2 0x1697 JUMP JUMPDEST SWAP1 POP DUP2 DUP2 SUB PUSH1 0x60 DUP4 ADD MSTORE PUSH2 0x171F DUP2 DUP5 PUSH2 0x1697 JUMP JUMPDEST SWAP1 POP SWAP6 SWAP5 POP POP POP POP POP JUMP JUMPDEST PUSH1 0x0 PUSH2 0x1735 DUP3 PUSH2 0x1599 JUMP JUMPDEST SWAP1 POP SWAP2 SWAP1 POP JUMP JUMPDEST PUSH2 0x1745 DUP2 PUSH2 0x172A JUMP JUMPDEST DUP3 MSTORE POP POP JUMP JUMPDEST PUSH1 0x0 PUSH2 0x140 DUP3 ADD SWAP1 POP PUSH2 0x1761 PUSH1 0x0 DUP4 ADD DUP14 PUSH2 0x1366 JUMP JUMPDEST DUP2 DUP2 SUB PUSH1 0x20 DUP4 ADD MSTORE PUSH2 0x1773 DUP2 DUP13 PUSH2 0x1697 JUMP JUMPDEST SWAP1 POP DUP2 DUP2 SUB PUSH1 0x40 DUP4 ADD MSTORE PUSH2 0x1787 DUP2 DUP12 PUSH2 0x1697 JUMP JUMPDEST SWAP1 POP PUSH2 0x1796 PUSH1 0x60 DUP4 ADD DUP11 PUSH2 0x1366 JUMP JUMPDEST PUSH2 0x17A3 PUSH1 0x80 DUP4 ADD DUP10 PUSH2 0x1366 JUMP JUMPDEST DUP2 DUP2 SUB PUSH1 0xA0 DUP4 ADD MSTORE PUSH2 0x17B5 DUP2 DUP9 PUSH2 0x1697 JUMP JUMPDEST SWAP1 POP DUP2 DUP2 SUB PUSH1 0xC0 DUP4 ADD MSTORE PUSH2 0x17C9 DUP2 DUP8 PUSH2 0x1697 JUMP JUMPDEST SWAP1 POP PUSH2 0x17D8 PUSH1 0xE0 DUP4 ADD DUP7 PUSH2 0x1366 JUMP JUMPDEST PUSH2 0x17E6 PUSH2 0x100 DUP4 ADD DUP6 PUSH2 0x1366 JUMP JUMPDEST PUSH2 0x17F4 PUSH2 0x120 DUP4 ADD DUP5 PUSH2 0x173C JUMP JUMPDEST SWAP12 SWAP11 POP POP POP POP POP POP POP POP POP POP POP JUMP JUMPDEST PUSH1 0x0 DUP2 MLOAD SWAP1 POP SWAP2 SWAP1 POP JUMP JUMPDEST PUSH1 0x0 DUP3 DUP3 MSTORE PUSH1 0x20 DUP3 ADD SWAP1 POP SWAP3 SWAP2 POP POP JUMP JUMPDEST PUSH1 0x0 DUP2 SWAP1 POP PUSH1 0x20 DUP3 ADD SWAP1 POP SWAP2 SWAP1 POP JUMP JUMPDEST PUSH2 0x1838 DUP2 PUSH2 0x135C JUMP JUMPDEST DUP3 MSTORE POP POP JUMP JUMPDEST PUSH1 0x0 DUP3 DUP3 MSTORE PUSH1 0x20 DUP3 ADD SWAP1 POP SWAP3 SWAP2 POP POP JUMP JUMPDEST PUSH1 0x0 PUSH2 0x185A DUP3 PUSH2 0x1651 JUMP JUMPDEST PUSH2 0x1864 DUP2 DUP6 PUSH2 0x183E JUMP JUMPDEST SWAP4 POP PUSH2 0x1874 DUP2 DUP6 PUSH1 0x20 DUP7 ADD PUSH2 0x166D JUMP JUMPDEST PUSH2 0x187D DUP2 PUSH2 0x13DA JUMP JUMPDEST DUP5 ADD SWAP2 POP POP SWAP3 SWAP2 POP POP JUMP JUMPDEST PUSH1 0x0 PUSH1 0xC0 DUP4 ADD PUSH1 0x0 DUP4 ADD MLOAD PUSH2 0x18A0 PUSH1 0x0 DUP7 ADD DUP3 PUSH2 0x182F JUMP JUMPDEST POP PUSH1 0x20 DUP4 ADD MLOAD PUSH2 0x18B3 PUSH1 0x20 DUP7 ADD DUP3 PUSH2 0x182F JUMP JUMPDEST POP PUSH1 0x40 DUP4 ADD MLOAD PUSH2 0x18C6 PUSH1 0x40 DUP7 ADD DUP3 PUSH2 0x182F JUMP JUMPDEST POP PUSH1 0x60 DUP4 ADD MLOAD PUSH2 0x18D9 PUSH1 0x60 DUP7 ADD DUP3 PUSH2 0x182F JUMP JUMPDEST POP PUSH1 0x80 DUP4 ADD MLOAD DUP5 DUP3 SUB PUSH1 0x80 DUP7 ADD MSTORE PUSH2 0x18F1 DUP3 DUP3 PUSH2 0x184F JUMP JUMPDEST SWAP2 POP POP PUSH1 0xA0 DUP4 ADD MLOAD PUSH2 0x1906 PUSH1 0xA0 DUP7 ADD DUP3 PUSH2 0x182F JUMP JUMPDEST POP DUP1 SWAP2 POP POP SWAP3 SWAP2 POP POP JUMP JUMPDEST PUSH1 0x0 PUSH2 0x191D DUP4 DUP4 PUSH2 0x1888 JUMP JUMPDEST SWAP1 POP SWAP3 SWAP2 POP POP JUMP JUMPDEST PUSH1 0x0 PUSH1 0x20 DUP3 ADD SWAP1 POP SWAP2 SWAP1 POP JUMP JUMPDEST PUSH1 0x0 PUSH2 0x193D DUP3 PUSH2 0x1803 JUMP JUMPDEST PUSH2 0x1947 DUP2 DUP6 PUSH2 0x180E JUMP JUMPDEST SWAP4 POP DUP4 PUSH1 0x20 DUP3 MUL DUP6 ADD PUSH2 0x1959 DUP6 PUSH2 0x181F JUMP JUMPDEST DUP1 PUSH1 0x0 JUMPDEST DUP6 DUP2 LT ISZERO PUSH2 0x1995 JUMPI DUP5 DUP5 SUB DUP10 MSTORE DUP2 MLOAD PUSH2 0x1976 DUP6 DUP3 PUSH2 0x1911 JUMP JUMPDEST SWAP5 POP PUSH2 0x1981 DUP4 PUSH2 0x1925 JUMP JUMPDEST SWAP3 POP PUSH1 0x20 DUP11 ADD SWAP10 POP POP PUSH1 0x1 DUP2 ADD SWAP1 POP PUSH2 0x195D JUMP JUMPDEST POP DUP3 SWAP8 POP DUP8 SWAP6 POP POP POP POP POP POP SWAP3 SWAP2 POP POP JUMP JUMPDEST PUSH1 0x0 PUSH1 0x20 DUP3 ADD SWAP1 POP DUP2 DUP2 SUB PUSH1 0x0 DUP4 ADD MSTORE PUSH2 0x19C1 DUP2 DUP5 PUSH2 0x1932 JUMP JUMPDEST SWAP1 POP SWAP3 SWAP2 POP POP JUMP JUMPDEST PUSH1 0x0 PUSH1 0x20 DUP3 DUP5 SUB SLT ISZERO PUSH2 0x19DF JUMPI PUSH2 0x19DE PUSH2 0x139A JUMP JUMPDEST JUMPDEST PUSH1 0x0 DUP3 ADD CALLDATALOAD PUSH8 0xFFFFFFFFFFFFFFFF DUP2 GT ISZERO PUSH2 0x19FD JUMPI PUSH2 0x19FC PUSH2 0x139F JUMP JUMPDEST JUMPDEST PUSH2 0x1A09 DUP5 DUP3 DUP6 ADD PUSH2 0x14E8 JUMP JUMPDEST SWAP2 POP POP SWAP3 SWAP2 POP POP JUMP JUMPDEST PUSH1 0x0 DUP2 ISZERO ISZERO SWAP1 POP SWAP2 SWAP1 POP JUMP JUMPDEST PUSH2 0x1A27 DUP2 PUSH2 0x1A12 JUMP JUMPDEST DUP3 MSTORE POP POP JUMP JUMPDEST PUSH1 0x0 PUSH1 0x20 DUP3 ADD SWAP1 POP PUSH2 0x1A42 PUSH1 0x0 DUP4 ADD DUP5 PUSH2 0x1A1E JUMP JUMPDEST SWAP3 SWAP2 POP POP JUMP JUMPDEST PUSH1 0x0 DUP1 PUSH1 0x0 DUP1 PUSH1 0x0 DUP1 PUSH1 0x0 PUSH1 0xE0 DUP9 DUP11 SUB SLT ISZERO PUSH2 0x1A67 JUMPI PUSH2 0x1A66 PUSH2 0x139A JUMP JUMPDEST JUMPDEST PUSH1 0x0 PUSH2 0x1A75 DUP11 DUP3 DUP12 ADD PUSH2 0x13BB JUMP JUMPDEST SWAP8 POP POP PUSH1 0x20 DUP9 ADD CALLDATALOAD PUSH8 0xFFFFFFFFFFFFFFFF DUP2 GT ISZERO PUSH2 0x1A96 JUMPI PUSH2 0x1A95 PUSH2 0x139F JUMP JUMPDEST JUMPDEST PUSH2 0x1AA2 DUP11 DUP3 DUP12 ADD PUSH2 0x14E8 JUMP JUMPDEST SWAP7 POP POP PUSH1 0x40 DUP9 ADD CALLDATALOAD PUSH8 0xFFFFFFFFFFFFFFFF DUP2 GT ISZERO PUSH2 0x1AC3 JUMPI PUSH2 0x1AC2 PUSH2 0x139F JUMP JUMPDEST JUMPDEST PUSH2 0x1ACF DUP11 DUP3 DUP12 ADD PUSH2 0x14E8 JUMP JUMPDEST SWAP6 POP POP PUSH1 0x60 PUSH2 0x1AE0 DUP11 DUP3 DUP12 ADD PUSH2 0x13BB JUMP JUMPDEST SWAP5 POP POP PUSH1 0x80 PUSH2 0x1AF1 DUP11 DUP3 DUP12 ADD PUSH2 0x13BB JUMP JUMPDEST SWAP4 POP POP PUSH1 0xA0 DUP9 ADD CALLDATALOAD PUSH8 0xFFFFFFFFFFFFFFFF DUP2 GT ISZERO PUSH2 0x1B12 JUMPI PUSH2 0x1B11 PUSH2 0x139F JUMP JUMPDEST JUMPDEST PUSH2 0x1B1E DUP11 DUP3 DUP12 ADD PUSH2 0x14E8 JUMP JUMPDEST SWAP3 POP POP PUSH1 0xC0 DUP9 ADD CALLDATALOAD PUSH8 0xFFFFFFFFFFFFFFFF DUP2 GT ISZERO PUSH2 0x1B3F JUMPI PUSH2 0x1B3E PUSH2 0x139F JUMP JUMPDEST JUMPDEST PUSH2 0x1B4B DUP11 DUP3 DUP12 ADD PUSH2 0x14E8 JUMP JUMPDEST SWAP2 POP POP SWAP3 SWAP6 SWAP9 SWAP2 SWAP5 SWAP8 POP SWAP3 SWAP6 POP JUMP JUMPDEST PUSH1 0x0 DUP1 PUSH1 0x0 DUP1 PUSH1 0x0 DUP1 PUSH1 0xC0 DUP8 DUP10 SUB SLT ISZERO PUSH2 0x1B77 JUMPI PUSH2 0x1B76 PUSH2 0x139A JUMP JUMPDEST JUMPDEST PUSH1 0x0 DUP8 ADD CALLDATALOAD PUSH8 0xFFFFFFFFFFFFFFFF DUP2 GT ISZERO PUSH2 0x1B95 JUMPI PUSH2 0x1B94 PUSH2 0x139F JUMP JUMPDEST JUMPDEST PUSH2 0x1BA1 DUP10 DUP3 DUP11 ADD PUSH2 0x14E8 JUMP JUMPDEST SWAP7 POP POP PUSH1 0x20 DUP8 ADD CALLDATALOAD PUSH8 0xFFFFFFFFFFFFFFFF DUP2 GT ISZERO PUSH2 0x1BC2 JUMPI PUSH2 0x1BC1 PUSH2 0x139F JUMP JUMPDEST JUMPDEST PUSH2 0x1BCE DUP10 DUP3 DUP11 ADD PUSH2 0x14E8 JUMP JUMPDEST SWAP6 POP POP PUSH1 0x40 PUSH2 0x1BDF DUP10 DUP3 DUP11 ADD PUSH2 0x13BB JUMP JUMPDEST SWAP5 POP POP PUSH1 0x60 PUSH2 0x1BF0 DUP10 DUP3 DUP11 ADD PUSH2 0x13BB JUMP JUMPDEST SWAP4 POP POP PUSH1 0x80 DUP8 ADD CALLDATALOAD PUSH8 0xFFFFFFFFFFFFFFFF DUP2 GT ISZERO PUSH2 0x1C11 JUMPI PUSH2 0x1C10 PUSH2 0x139F JUMP JUMPDEST JUMPDEST PUSH2 0x1C1D DUP10 DUP3 DUP11 ADD PUSH2 0x14E8 JUMP JUMPDEST SWAP3 POP POP PUSH1 0xA0 DUP8 ADD CALLDATALOAD PUSH8 0xFFFFFFFFFFFFFFFF DUP2 GT ISZERO PUSH2 0x1C3E JUMPI PUSH2 0x1C3D PUSH2 0x139F JUMP JUMPDEST JUMPDEST PUSH2 0x1C4A DUP10 DUP3 DUP11 ADD PUSH2 0x14E8 JUMP JUMPDEST SWAP2 POP POP SWAP3 SWAP6 POP SWAP3 SWAP6 POP SWAP3 SWAP6 JUMP JUMPDEST PUSH1 0x0 DUP1 PUSH1 0x0 PUSH1 0x60 DUP5 DUP7 SUB SLT ISZERO PUSH2 0x1C70 JUMPI PUSH2 0x1C6F PUSH2 0x139A JUMP JUMPDEST JUMPDEST PUSH1 0x0 DUP5 ADD CALLDATALOAD PUSH8 0xFFFFFFFFFFFFFFFF DUP2 GT ISZERO PUSH2 0x1C8E JUMPI PUSH2 0x1C8D PUSH2 0x139F JUMP JUMPDEST JUMPDEST PUSH2 0x1C9A DUP7 DUP3 DUP8 ADD PUSH2 0x14E8 JUMP JUMPDEST SWAP4 POP POP PUSH1 0x20 DUP5 ADD CALLDATALOAD PUSH8 0xFFFFFFFFFFFFFFFF DUP2 GT ISZERO PUSH2 0x1CBB JUMPI PUSH2 0x1CBA PUSH2 0x139F JUMP JUMPDEST JUMPDEST PUSH2 0x1CC7 DUP7 DUP3 DUP8 ADD PUSH2 0x14E8 JUMP JUMPDEST SWAP3 POP POP PUSH1 0x40 DUP5 ADD CALLDATALOAD PUSH8 0xFFFFFFFFFFFFFFFF DUP2 GT ISZERO PUSH2 0x1CE8 JUMPI PUSH2 0x1CE7 PUSH2 0x139F JUMP JUMPDEST JUMPDEST PUSH2 0x1CF4 DUP7 DUP3 DUP8 ADD PUSH2 0x14E8 JUMP JUMPDEST SWAP2 POP POP SWAP3 POP SWAP3 POP SWAP3 JUMP JUMPDEST PUSH1 0x0 PUSH1 0xC0 DUP3 ADD SWAP1 POP PUSH2 0x1D13 PUSH1 0x0 DUP4 ADD DUP10 PUSH2 0x1366 JUMP JUMPDEST PUSH2 0x1D20 PUSH1 0x20 DUP4 ADD DUP9 PUSH2 0x1366 JUMP JUMPDEST PUSH2 0x1D2D PUSH1 0x40 DUP4 ADD DUP8 PUSH2 0x1366 JUMP JUMPDEST PUSH2 0x1D3A PUSH1 0x60 DUP4 ADD DUP7 PUSH2 0x1366 JUMP JUMPDEST DUP2 DUP2 SUB PUSH1 0x80 DUP4 ADD MSTORE PUSH2 0x1D4C DUP2 DUP6 PUSH2 0x1697 JUMP JUMPDEST SWAP1 POP PUSH2 0x1D5B PUSH1 0xA0 DUP4 ADD DUP5 PUSH2 0x1366 JUMP JUMPDEST SWAP8 SWAP7 POP POP POP POP POP POP POP JUMP JUMPDEST PUSH1 0x0 DUP1 PUSH1 0x40 DUP4 DUP6 SUB SLT ISZERO PUSH2 0x1D7D JUMPI PUSH2 0x1D7C PUSH2 0x139A JUMP JUMPDEST JUMPDEST PUSH1 0x0 PUSH2 0x1D8B DUP6 DUP3 DUP7 ADD PUSH2 0x13BB JUMP JUMPDEST SWAP3 POP POP PUSH1 0x20 PUSH2 0x1D9C DUP6 DUP3 DUP7 ADD PUSH2 0x13BB JUMP JUMPDEST SWAP2 POP POP SWAP3 POP SWAP3 SWAP1 POP JUMP JUMPDEST PUSH32 0x496E76616C696420726174696E672076616C7565000000000000000000000000 PUSH1 0x0 DUP3 ADD MSTORE POP JUMP JUMPDEST PUSH1 0x0 PUSH2 0x1DDC PUSH1 0x14 DUP4 PUSH2 0x165C JUMP JUMPDEST SWAP2 POP PUSH2 0x1DE7 DUP3 PUSH2 0x1DA6 JUMP JUMPDEST PUSH1 0x20 DUP3 ADD SWAP1 POP SWAP2 SWAP1 POP JUMP JUMPDEST PUSH1 0x0 PUSH1 0x20 DUP3 ADD SWAP1 POP DUP2 DUP2 SUB PUSH1 0x0 DUP4 ADD MSTORE PUSH2 0x1E0B DUP2 PUSH2 0x1DCF JUMP JUMPDEST SWAP1 POP SWAP2 SWAP1 POP JUMP JUMPDEST PUSH32 0x4E487B7100000000000000000000000000000000000000000000000000000000 PUSH1 0x0 MSTORE PUSH1 0x11 PUSH1 0x4 MSTORE PUSH1 0x24 PUSH1 0x0 REVERT JUMPDEST PUSH1 0x0 PUSH2 0x1E4C DUP3 PUSH2 0x135C JUMP JUMPDEST SWAP2 POP PUSH32 0xFFFFFFFFFFFFFFFFFFFFFFFFFFFFFFFFFFFFFFFFFFFFFFFFFFFFFFFFFFFFFFFF DUP3 SUB PUSH2 0x1E7E JUMPI PUSH2 0x1E7D PUSH2 0x1E12 JUMP JUMPDEST JUMPDEST PUSH1 0x1 DUP3 ADD SWAP1 POP SWAP2 SWAP1 POP JUMP JUMPDEST PUSH32 0x4E487B7100000000000000000000000000000000000000000000000000000000 PUSH1 0x0 MSTORE PUSH1 0x22 PUSH1 0x4 MSTORE PUSH1 0x24 PUSH1 0x0 REVERT JUMPDEST PUSH1 0x0 PUSH1 0x2 DUP3 DIV SWAP1 POP PUSH1 0x1 DUP3 AND DUP1 PUSH2 0x1ED0 JUMPI PUSH1 0x7F DUP3 AND SWAP2 POP JUMPDEST PUSH1 0x20 DUP3 LT DUP2 SUB PUSH2 0x1EE3 JUMPI PUSH2 0x1EE2 PUSH2 0x1E89 JUMP JUMPDEST JUMPDEST POP SWAP2 SWAP1 POP JUMP JUMPDEST PUSH1 0x0 DUP2 SWAP1 POP DUP2 PUSH1 0x0 MSTORE PUSH1 0x20 PUSH1 0x0 KECCAK256 SWAP1 POP SWAP2 SWAP1 POP JUMP JUMPDEST PUSH1 0x0 PUSH1 0x20 PUSH1 0x1F DUP4 ADD DIV SWAP1 POP SWAP2 SWAP1 POP JUMP JUMPDEST PUSH1 0x0 DUP3 DUP3 SHL SWAP1 POP SWAP3 SWAP2 POP POP JUMP JUMPDEST PUSH1 0x0 PUSH1 0x8 DUP4 MUL PUSH2 0x1F4B PUSH32 0xFFFFFFFFFFFFFFFFFFFFFFFFFFFFFFFFFFFFFFFFFFFFFFFFFFFFFFFFFFFFFFFF DUP3 PUSH2 0x1F0E JUMP JUMPDEST PUSH2 0x1F55 DUP7 DUP4 PUSH2 0x1F0E JUMP JUMPDEST SWAP6 POP DUP1 NOT DUP5 AND SWAP4 POP DUP1 DUP7 AND DUP5 OR SWAP3 POP POP POP SWAP4 SWAP3 POP POP POP JUMP JUMPDEST PUSH1 0x0 DUP2 SWAP1 POP SWAP2 SWAP1 POP JUMP JUMPDEST PUSH1 0x0 PUSH2 0x1F92 PUSH2 0x1F8D PUSH2 0x1F88 DUP5 PUSH2 0x135C JUMP JUMPDEST PUSH2 0x1F6D JUMP JUMPDEST PUSH2 0x135C JUMP JUMPDEST SWAP1 POP SWAP2 SWAP1 POP JUMP JUMPDEST PUSH1 0x0 DUP2 SWAP1 POP SWAP2 SWAP1 POP JUMP JUMPDEST PUSH2 0x1FAC DUP4 PUSH2 0x1F77 JUMP JUMPDEST PUSH2 0x1FC0 PUSH2 0x1FB8 DUP3 PUSH2 0x1F99 JUMP JUMPDEST DUP5 DUP5 SLOAD PUSH2 0x1F1B JUMP JUMPDEST DUP3 SSTORE POP POP POP POP JUMP JUMPDEST PUSH1 0x0 SWAP1 JUMP JUMPDEST PUSH2 0x1FD5 PUSH2 0x1FC8 JUMP JUMPDEST PUSH2 0x1FE0 DUP2 DUP5 DUP5 PUSH2 0x1FA3 JUMP JUMPDEST POP POP POP JUMP JUMPDEST JUMPDEST DUP2 DUP2 LT ISZERO PUSH2 0x2004 JUMPI PUSH2 0x1FF9 PUSH1 0x0 DUP3 PUSH2 0x1FCD JUMP JUMPDEST PUSH1 0x1 DUP2 ADD SWAP1 POP PUSH2 0x1FE6 JUMP JUMPDEST POP POP JUMP JUMPDEST PUSH1 0x1F DUP3 GT ISZERO PUSH2 0x2049 JUMPI PUSH2 0x201A DUP2 PUSH2 0x1EE9 JUMP JUMPDEST PUSH2 0x2023 DUP5 PUSH2 0x1EFE JUMP JUMPDEST DUP2 ADD PUSH1 0x20 DUP6 LT ISZERO PUSH2 0x2032 JUMPI DUP2 SWAP1 POP JUMPDEST PUSH2 0x2046 PUSH2 0x203E DUP6 PUSH2 0x1EFE JUMP JUMPDEST DUP4 ADD DUP3 PUSH2 0x1FE5 JUMP JUMPDEST POP POP JUMPDEST POP POP POP JUMP JUMPDEST PUSH1 0x0 DUP3 DUP3 SHR SWAP1 POP SWAP3 SWAP2 POP POP JUMP JUMPDEST PUSH1 0x0 PUSH2 0x206C PUSH1 0x0 NOT DUP5 PUSH1 0x8 MUL PUSH2 0x204E JUMP JUMPDEST NOT DUP1 DUP4 AND SWAP2 POP POP SWAP3 SWAP2 POP POP JUMP JUMPDEST PUSH1 0x0 PUSH2 0x2085 DUP4 DUP4 PUSH2 0x205B JUMP JUMPDEST SWAP2 POP DUP3 PUSH1 0x2 MUL DUP3 OR SWAP1 POP SWAP3 SWAP2 POP POP JUMP JUMPDEST PUSH2 0x209E DUP3 PUSH2 0x1651 JUMP JUMPDEST PUSH8 0xFFFFFFFFFFFFFFFF DUP2 GT ISZERO PUSH2 0x20B7 JUMPI PUSH2 0x20B6 PUSH2 0x13EB JUMP JUMPDEST JUMPDEST PUSH2 0x20C1 DUP3 SLOAD PUSH2 0x1EB8 JUMP JUMPDEST PUSH2 0x20CC DUP3 DUP3 DUP6 PUSH2 0x2008 JUMP JUMPDEST PUSH1 0x0 PUSH1 0x20 SWAP1 POP PUSH1 0x1F DUP4 GT PUSH1 0x1 DUP2 EQ PUSH2 0x20FF JUMPI PUSH1 0x0 DUP5 ISZERO PUSH2 0x20ED JUMPI DUP3 DUP8 ADD MLOAD SWAP1 POP JUMPDEST PUSH2 0x20F7 DUP6 DUP3 PUSH2 0x2079 JUMP JUMPDEST DUP7 SSTORE POP PUSH2 0x215F JUMP JUMPDEST PUSH1 0x1F NOT DUP5 AND PUSH2 0x210D DUP7 PUSH2 0x1EE9 JUMP JUMPDEST PUSH1 0x0 JUMPDEST DUP3 DUP2 LT ISZERO PUSH2 0x2135 JUMPI DUP5 DUP10 ADD MLOAD DUP3 SSTORE PUSH1 0x1 DUP3 ADD SWAP2 POP PUSH1 0x20 DUP6 ADD SWAP5 POP PUSH1 0x20 DUP2 ADD SWAP1 POP PUSH2 0x2110 JUMP JUMPDEST DUP7 DUP4 LT ISZERO PUSH2 0x2152 JUMPI DUP5 DUP10 ADD MLOAD PUSH2 0x214E PUSH1 0x1F DUP10 AND DUP3 PUSH2 0x205B JUMP JUMPDEST DUP4 SSTORE POP JUMPDEST PUSH1 0x1 PUSH1 0x2 DUP9 MUL ADD DUP9 SSTORE POP POP POP JUMPDEST POP POP POP POP POP POP JUMP JUMPDEST PUSH32 0x55736572206E6F74207265676973746572656400000000000000000000000000 PUSH1 0x0 DUP3 ADD MSTORE POP JUMP JUMPDEST PUSH1 0x0 PUSH2 0x219D PUSH1 0x13 DUP4 PUSH2 0x165C JUMP JUMPDEST SWAP2 POP PUSH2 0x21A8 DUP3 PUSH2 0x2167 JUMP JUMPDEST PUSH1 0x20 DUP3 ADD SWAP1 POP SWAP2 SWAP1 POP JUMP JUMPDEST PUSH1 0x0 PUSH1 0x20 DUP3 ADD SWAP1 POP DUP2 DUP2 SUB PUSH1 0x0 DUP4 ADD MSTORE PUSH2 0x21CC DUP2 PUSH2 0x2190 JUMP JUMPDEST SWAP1 POP SWAP2 SWAP1 POP JUMP JUMPDEST PUSH32 0x4E6F7420656E6F7567682066756E647300000000000000000000000000000000 PUSH1 0x0 DUP3 ADD MSTORE POP JUMP JUMPDEST PUSH1 0x0 PUSH2 0x2209 PUSH1 0x10 DUP4 PUSH2 0x165C JUMP JUMPDEST SWAP2 POP PUSH2 0x2214 DUP3 PUSH2 0x21D3 JUMP JUMPDEST PUSH1 0x20 DUP3 ADD SWAP1 POP SWAP2 SWAP1 POP JUMP JUMPDEST PUSH1 0x0 PUSH1 0x20 DUP3 ADD SWAP1 POP DUP2 DUP2 SUB PUSH1 0x0 DUP4 ADD MSTORE PUSH2 0x2238 DUP2 PUSH2 0x21FC JUMP JUMPDEST SWAP1 POP SWAP2 SWAP1 POP JUMP JUMPDEST PUSH32 0x50726F64756374206F7574206F662073746F636B000000000000000000000000 PUSH1 0x0 DUP3 ADD MSTORE POP JUMP JUMPDEST PUSH1 0x0 PUSH2 0x2275 PUSH1 0x14 DUP4 PUSH2 0x165C JUMP JUMPDEST SWAP2 POP PUSH2 0x2280 DUP3 PUSH2 0x223F JUMP JUMPDEST PUSH1 0x20 DUP3 ADD SWAP1 POP SWAP2 SWAP1 POP JUMP JUMPDEST PUSH1 0x0 PUSH1 0x20 DUP3 ADD SWAP1 POP DUP2 DUP2 SUB PUSH1 0x0 DUP4 ADD MSTORE PUSH2 0x22A4 DUP2 PUSH2 0x2268 JUMP JUMPDEST SWAP1 POP SWAP2 SWAP1 POP JUMP JUMPDEST PUSH1 0x0 PUSH2 0x22B6 DUP3 PUSH2 0x135C JUMP JUMPDEST SWAP2 POP PUSH1 0x0 DUP3 SUB PUSH2 0x22C9 JUMPI PUSH2 0x22C8 PUSH2 0x1E12 JUMP JUMPDEST JUMPDEST PUSH1 0x1 DUP3 SUB SWAP1 POP SWAP2 SWAP1 POP JUMP JUMPDEST PUSH32 0x4E487B7100000000000000000000000000000000000000000000000000000000 PUSH1 0x0 MSTORE PUSH1 0x32 PUSH1 0x4 MSTORE PUSH1 0x24 PUSH1 0x0 REVERT JUMPDEST PUSH1 0x0 DUP2 SWAP1 POP SWAP3 SWAP2 POP POP JUMP JUMPDEST PUSH1 0x0 DUP2 SWAP1 POP DUP2 PUSH1 0x0 MSTORE PUSH1 0x20 PUSH1 0x0 KECCAK256 SWAP1 POP SWAP2 SWAP1 POP JUMP JUMPDEST PUSH1 0x0 DUP2 SLOAD PUSH2 0x2330 DUP2 PUSH2 0x1EB8 JUMP JUMPDEST PUSH2 0x233A DUP2 DUP7 PUSH2 0x2303 JUMP JUMPDEST SWAP5 POP PUSH1 0x1 DUP3 AND PUSH1 0x0 DUP2 EQ PUSH2 0x2355 JUMPI PUSH1 0x1 DUP2 EQ PUSH2 0x236A JUMPI PUSH2 0x239D JUMP JUMPDEST PUSH1 0xFF NOT DUP4 AND DUP7 MSTORE DUP2 ISZERO ISZERO DUP3 MUL DUP7 ADD SWAP4 POP PUSH2 0x239D JUMP JUMPDEST PUSH2 0x2373 DUP6 PUSH2 0x230E JUMP JUMPDEST PUSH1 0x0 JUMPDEST DUP4 DUP2 LT ISZERO PUSH2 0x2395 JUMPI DUP2 SLOAD DUP2 DUP10 ADD MSTORE PUSH1 0x1 DUP3 ADD SWAP2 POP PUSH1 0x20 DUP2 ADD SWAP1 POP PUSH2 0x2376 JUMP JUMPDEST DUP4 DUP9 ADD SWAP6 POP POP POP JUMPDEST POP POP POP SWAP3 SWAP2 POP POP JUMP JUMPDEST PUSH1 0x0 PUSH2 0x23B2 DUP3 DUP5 PUSH2 0x2323 JUMP JUMPDEST SWAP2 POP DUP2 SWAP1 POP SWAP3 SWAP2 POP POP JUMP INVALID LOG2 PUSH5 0x6970667358 0x22 SLT KECCAK256 PUSH16 0x4B9430392E77A167C24E3F0C5B3BB4B6 0xDB PUSH27 0xFFDB1D415F99BBD015F0F6611664736F6C63430008110033000000 "},"methodIdentifiers":{"addProduct(string,string,uint256,uint256,string,string)":"c4ec4f05","addReview(uint256,uint256,uint256,string)":"10ed96fa","buyProduct(uint256)":"8642269e","deleteProduct(uint256)":"ed90c7b7","getReviews(uint256)":"9d4a2255","getUserId(address)":"2b956ff7","isUserRegistered(string)":"a8cc7784","productCount()":"e0f6ef87","productReviews(uint256,uint256)":"f2943dce","products(uint256)":"7acc0b20","registerUser(string,string,string)":"d637dcfa","reviewCount()":"eff5924f","reviews(uint256)":"e83ddcea","updateProduct(uint256,string,string,uint256,uint256,string,string)":"c33d392f","userCount()":"07973ccf","users(uint256)":"365b98b2","walletToUserId(address)":"4bb54384"}}}}}