{"contracts/Marketplace.sol":{"Marketplace":{"abi":[{"inputs":[{"internalType":"string","name":"_name","type":"string"},{"internalType":"uint256","name":"_price","type":"uint256"}],"name":"addProduct","outputs":[],"stateMutability":"nonpayable","type":"function"},{"inputs":[{"internalType":"uint256","name":"_id","type":"uint256"}],"name":"buyProduct","outputs":[],"stateMutability":"payable","type":"function"},{"inputs":[],"name":"productCount","outputs":[{"internalType":"uint256","name":"","type":"uint256"}],"stateMutability":"view","type":"function"},{"inputs":[{"internalType":"uint256","name":"","type":"uint256"}],"name":"products","outputs":[{"internalType":"uint256","name":"id","type":"uint256"},{"internalType":"string","name":"name","type":"string"},{"internalType":"uint256","name":"price","type":"uint256"},{"internalType":"address payable","name":"seller","type":"address"},{"internalType":"uint256","name":"soldCount","type":"uint256"}],"stateMutability":"view","type":"function"}],"evm":{"bytecode":{"linkReferences":{},"object":"60806040526000805534801561001457600080fd5b50610b37806100246000396000f3fe60806040526004361061003f5760003560e01c80637acc0b20146100445780638642269e14610085578063b15247d9146100a1578063e0f6ef87146100ca575b600080fd5b34801561005057600080fd5b5061006b600480360381019061006691906103f9565b6100f5565b60405161007c959493929190610506565b60405180910390f35b61009f600480360381019061009a91906103f9565b6101d3565b005b3480156100ad57600080fd5b506100c860048036038101906100c39190610695565b6102bc565b005b3480156100d657600080fd5b506100df6103a9565b6040516100ec91906106f1565b60405180910390f35b600160205280600052604060002060009150905080600001549080600101805461011e9061073b565b80601f016020809104026020016040519081016040528092919081815260200182805461014a9061073b565b80156101975780601f1061016c57610100808354040283529160200191610197565b820191906000526020600020905b81548152906001019060200180831161017a57829003601f168201915b5050505050908060020154908060030160009054906101000a900473ffffffffffffffffffffffffffffffffffffffff16908060040154905085565b60006001600083815260200190815260200160002090508060020154341015610231576040517f08c379a0000000000000000000000000000000000000000000000000000000008152600401610228906107b8565b60405180910390fd5b8060030160009054906101000a900473ffffffffffffffffffffffffffffffffffffffff1673ffffffffffffffffffffffffffffffffffffffff166108fc349081150290604051600060405180830381858888f1935050505015801561029b573d6000803e3d6000fd5b5060018160040160008282546102b19190610807565b925050819055505050565b6000808154809291906102ce9061083b565b91905055506040518060a0016040528060005481526020018381526020018281526020013373ffffffffffffffffffffffffffffffffffffffff168152602001600081525060016000805481526020019081526020016000206000820151816000015560208201518160010190816103469190610a2f565b506040820151816002015560608201518160030160006101000a81548173ffffffffffffffffffffffffffffffffffffffff021916908373ffffffffffffffffffffffffffffffffffffffff160217905550608082015181600401559050505050565b60005481565b6000604051905090565b600080fd5b600080fd5b6000819050919050565b6103d6816103c3565b81146103e157600080fd5b50565b6000813590506103f3816103cd565b92915050565b60006020828403121561040f5761040e6103b9565b5b600061041d848285016103e4565b91505092915050565b61042f816103c3565b82525050565b600081519050919050565b600082825260208201905092915050565b60005b8381101561046f578082015181840152602081019050610454565b60008484015250505050565b6000601f19601f8301169050919050565b600061049782610435565b6104a18185610440565b93506104b1818560208601610451565b6104ba8161047b565b840191505092915050565b600073ffffffffffffffffffffffffffffffffffffffff82169050919050565b60006104f0826104c5565b9050919050565b610500816104e5565b82525050565b600060a08201905061051b6000830188610426565b818103602083015261052d818761048c565b905061053c6040830186610426565b61054960608301856104f7565b6105566080830184610426565b9695505050505050565b600080fd5b600080fd5b7f4e487b7100000000000000000000000000000000000000000000000000000000600052604160045260246000fd5b6105a28261047b565b810181811067ffffffffffffffff821117156105c1576105c061056a565b5b80604052505050565b60006105d46103af565b90506105e08282610599565b919050565b600067ffffffffffffffff821115610600576105ff61056a565b5b6106098261047b565b9050602081019050919050565b82818337600083830152505050565b6000610638610633846105e5565b6105ca565b90508281526020810184848401111561065457610653610565565b5b61065f848285610616565b509392505050565b600082601f83011261067c5761067b610560565b5b813561068c848260208601610625565b91505092915050565b600080604083850312156106ac576106ab6103b9565b5b600083013567ffffffffffffffff8111156106ca576106c96103be565b5b6106d685828601610667565b92505060206106e7858286016103e4565b9150509250929050565b60006020820190506107066000830184610426565b92915050565b7f4e487b7100000000000000000000000000000000000000000000000000000000600052602260045260246000fd5b6000600282049050600182168061075357607f821691505b6020821081036107665761076561070c565b5b50919050565b7f4e6f7420656e6f7567682066756e647300000000000000000000000000000000600082015250565b60006107a2601083610440565b91506107ad8261076c565b602082019050919050565b600060208201905081810360008301526107d181610795565b9050919050565b7f4e487b7100000000000000000000000000000000000000000000000000000000600052601160045260246000fd5b6000610812826103c3565b915061081d836103c3565b9250828201905080821115610835576108346107d8565b5b92915050565b6000610846826103c3565b91507fffffffffffffffffffffffffffffffffffffffffffffffffffffffffffffffff8203610878576108776107d8565b5b600182019050919050565b60008190508160005260206000209050919050565b60006020601f8301049050919050565b600082821b905092915050565b6000600883026108e57fffffffffffffffffffffffffffffffffffffffffffffffffffffffffffffffff826108a8565b6108ef86836108a8565b95508019841693508086168417925050509392505050565b6000819050919050565b600061092c610927610922846103c3565b610907565b6103c3565b9050919050565b6000819050919050565b61094683610911565b61095a61095282610933565b8484546108b5565b825550505050565b600090565b61096f610962565b61097a81848461093d565b505050565b5b8181101561099e57610993600082610967565b600181019050610980565b5050565b601f8211156109e3576109b481610883565b6109bd84610898565b810160208510156109cc578190505b6109e06109d885610898565b83018261097f565b50505b505050565b600082821c905092915050565b6000610a06600019846008026109e8565b1980831691505092915050565b6000610a1f83836109f5565b9150826002028217905092915050565b610a3882610435565b67ffffffffffffffff811115610a5157610a5061056a565b5b610a5b825461073b565b610a668282856109a2565b600060209050601f831160018114610a995760008415610a87578287015190505b610a918582610a13565b865550610af9565b601f198416610aa786610883565b60005b82811015610acf57848901518255600182019150602085019450602081019050610aaa565b86831015610aec5784890151610ae8601f8916826109f5565b8355505b6001600288020188555050505b50505050505056fea264697066735822122029705aa0b74b4d91bfa92c1a36b6a20f3acc9d4ae0fc3db3a50fb6fd45d6d70864736f6c63430008110033","opcodes":"PUSH1 0x80 PUSH1 0x40 MSTORE PUSH1 0x0 DUP1 SSTORE CALLVALUE DUP1 ISZERO PUSH2 0x14 JUMPI PUSH1 0x0 DUP1 REVERT JUMPDEST POP PUSH2 0xB37 DUP1 PUSH2 0x24 PUSH1 0x0 CODECOPY PUSH1 0x0 RETURN INVALID PUSH1 0x80 PUSH1 0x40 MSTORE PUSH1 0x4 CALLDATASIZE LT PUSH2 0x3F JUMPI PUSH1 0x0 CALLDATALOAD PUSH1 0xE0 SHR DUP1 PUSH4 0x7ACC0B20 EQ PUSH2 0x44 JUMPI DUP1 PUSH4 0x8642269E EQ PUSH2 0x85 JUMPI DUP1 PUSH4 0xB15247D9 EQ PUSH2 0xA1 JUMPI DUP1 PUSH4 0xE0F6EF87 EQ PUSH2 0xCA JUMPI JUMPDEST PUSH1 0x0 DUP1 REVERT JUMPDEST CALLVALUE DUP1 ISZERO PUSH2 0x50 JUMPI PUSH1 0x0 DUP1 REVERT JUMPDEST POP PUSH2 0x6B PUSH1 0x4 DUP1 CALLDATASIZE SUB DUP2 ADD SWAP1 PUSH2 0x66 SWAP2 SWAP1 PUSH2 0x3F9 JUMP JUMPDEST PUSH2 0xF5 JUMP JUMPDEST PUSH1 0x40 MLOAD PUSH2 0x7C SWAP6 SWAP5 SWAP4 SWAP3 SWAP2 SWAP1 PUSH2 0x506 JUMP JUMPDEST PUSH1 0x40 MLOAD DUP1 SWAP2 SUB SWAP1 RETURN JUMPDEST PUSH2 0x9F PUSH1 0x4 DUP1 CALLDATASIZE SUB DUP2 ADD SWAP1 PUSH2 0x9A SWAP2 SWAP1 PUSH2 0x3F9 JUMP JUMPDEST PUSH2 0x1D3 JUMP JUMPDEST STOP JUMPDEST CALLVALUE DUP1 ISZERO PUSH2 0xAD JUMPI PUSH1 0x0 DUP1 REVERT JUMPDEST POP PUSH2 0xC8 PUSH1 0x4 DUP1 CALLDATASIZE SUB DUP2 ADD SWAP1 PUSH2 0xC3 SWAP2 SWAP1 PUSH2 0x695 JUMP JUMPDEST PUSH2 0x2BC JUMP JUMPDEST STOP JUMPDEST CALLVALUE DUP1 ISZERO PUSH2 0xD6 JUMPI PUSH1 0x0 DUP1 REVERT JUMPDEST POP PUSH2 0xDF PUSH2 0x3A9 JUMP JUMPDEST PUSH1 0x40 MLOAD PUSH2 0xEC SWAP2 SWAP1 PUSH2 0x6F1 JUMP JUMPDEST PUSH1 0x40 MLOAD DUP1 SWAP2 SUB SWAP1 RETURN JUMPDEST PUSH1 0x1 PUSH1 0x20 MSTORE DUP1 PUSH1 0x0 MSTORE PUSH1 0x40 PUSH1 0x0 KECCAK256 PUSH1 0x0 SWAP2 POP SWAP1 POP DUP1 PUSH1 0x0 ADD SLOAD SWAP1 DUP1 PUSH1 0x1 ADD DUP1 SLOAD PUSH2 0x11E SWAP1 PUSH2 0x73B JUMP JUMPDEST DUP1 PUSH1 0x1F ADD PUSH1 0x20 DUP1 SWAP2 DIV MUL PUSH1 0x20 ADD PUSH1 0x40 MLOAD SWAP1 DUP2 ADD PUSH1 0x40 MSTORE DUP1 SWAP3 SWAP2 SWAP1 DUP2 DUP2 MSTORE PUSH1 0x20 ADD DUP3 DUP1 SLOAD PUSH2 0x14A SWAP1 PUSH2 0x73B JUMP JUMPDEST DUP1 ISZERO PUSH2 0x197 JUMPI DUP1 PUSH1 0x1F LT PUSH2 0x16C JUMPI PUSH2 0x100 DUP1 DUP4 SLOAD DIV MUL DUP4 MSTORE SWAP2 PUSH1 0x20 ADD SWAP2 PUSH2 0x197 JUMP JUMPDEST DUP3 ADD SWAP2 SWAP1 PUSH1 0x0 MSTORE PUSH1 0x20 PUSH1 0x0 KECCAK256 SWAP1 JUMPDEST DUP2 SLOAD DUP2 MSTORE SWAP1 PUSH1 0x1 ADD SWAP1 PUSH1 0x20 ADD DUP1 DUP4 GT PUSH2 0x17A JUMPI DUP3 SWAP1 SUB PUSH1 0x1F AND DUP3 ADD SWAP2 JUMPDEST POP POP POP POP POP SWAP1 DUP1 PUSH1 0x2 ADD SLOAD SWAP1 DUP1 PUSH1 0x3 ADD PUSH1 0x0 SWAP1 SLOAD SWAP1 PUSH2 0x100 EXP SWAP1 DIV PUSH20 0xFFFFFFFFFFFFFFFFFFFFFFFFFFFFFFFFFFFFFFFF AND SWAP1 DUP1 PUSH1 0x4 ADD SLOAD SWAP1 POP DUP6 JUMP JUMPDEST PUSH1 0x0 PUSH1 0x1 PUSH1 0x0 DUP4 DUP2 MSTORE PUSH1 0x20 ADD SWAP1 DUP2 MSTORE PUSH1 0x20 ADD PUSH1 0x0 KECCAK256 SWAP1 POP DUP1 PUSH1 0x2 ADD SLOAD CALLVALUE LT ISZERO PUSH2 0x231 JUMPI PUSH1 0x40 MLOAD PUSH32 0x8C379A000000000000000000000000000000000000000000000000000000000 DUP2 MSTORE PUSH1 0x4 ADD PUSH2 0x228 SWAP1 PUSH2 0x7B8 JUMP JUMPDEST PUSH1 0x40 MLOAD DUP1 SWAP2 SUB SWAP1 REVERT JUMPDEST DUP1 PUSH1 0x3 ADD PUSH1 0x0 SWAP1 SLOAD SWAP1 PUSH2 0x100 EXP SWAP1 DIV PUSH20 0xFFFFFFFFFFFFFFFFFFFFFFFFFFFFFFFFFFFFFFFF AND PUSH20 0xFFFFFFFFFFFFFFFFFFFFFFFFFFFFFFFFFFFFFFFF AND PUSH2 0x8FC CALLVALUE SWAP1 DUP2 ISZERO MUL SWAP1 PUSH1 0x40 MLOAD PUSH1 0x0 PUSH1 0x40 MLOAD DUP1 DUP4 SUB DUP2 DUP6 DUP9 DUP9 CALL SWAP4 POP POP POP POP ISZERO DUP1 ISZERO PUSH2 0x29B JUMPI RETURNDATASIZE PUSH1 0x0 DUP1 RETURNDATACOPY RETURNDATASIZE PUSH1 0x0 REVERT JUMPDEST POP PUSH1 0x1 DUP2 PUSH1 0x4 ADD PUSH1 0x0 DUP3 DUP3 SLOAD PUSH2 0x2B1 SWAP2 SWAP1 PUSH2 0x807 JUMP JUMPDEST SWAP3 POP POP DUP2 SWAP1 SSTORE POP POP POP JUMP JUMPDEST PUSH1 0x0 DUP1 DUP2 SLOAD DUP1 SWAP3 SWAP2 SWAP1 PUSH2 0x2CE SWAP1 PUSH2 0x83B JUMP JUMPDEST SWAP2 SWAP1 POP SSTORE POP PUSH1 0x40 MLOAD DUP1 PUSH1 0xA0 ADD PUSH1 0x40 MSTORE DUP1 PUSH1 0x0 SLOAD DUP2 MSTORE PUSH1 0x20 ADD DUP4 DUP2 MSTORE PUSH1 0x20 ADD DUP3 DUP2 MSTORE PUSH1 0x20 ADD CALLER PUSH20 0xFFFFFFFFFFFFFFFFFFFFFFFFFFFFFFFFFFFFFFFF AND DUP2 MSTORE PUSH1 0x20 ADD PUSH1 0x0 DUP2 MSTORE POP PUSH1 0x1 PUSH1 0x0 DUP1 SLOAD DUP2 MSTORE PUSH1 0x20 ADD SWAP1 DUP2 MSTORE PUSH1 0x20 ADD PUSH1 0x0 KECCAK256 PUSH1 0x0 DUP3 ADD MLOAD DUP2 PUSH1 0x0 ADD SSTORE PUSH1 0x20 DUP3 ADD MLOAD DUP2 PUSH1 0x1 ADD SWAP1 DUP2 PUSH2 0x346 SWAP2 SWAP1 PUSH2 0xA2F JUMP JUMPDEST POP PUSH1 0x40 DUP3 ADD MLOAD DUP2 PUSH1 0x2 ADD SSTORE PUSH1 0x60 DUP3 ADD MLOAD DUP2 PUSH1 0x3 ADD PUSH1 0x0 PUSH2 0x100 EXP DUP2 SLOAD DUP2 PUSH20 0xFFFFFFFFFFFFFFFFFFFFFFFFFFFFFFFFFFFFFFFF MUL NOT AND SWAP1 DUP4 PUSH20 0xFFFFFFFFFFFFFFFFFFFFFFFFFFFFFFFFFFFFFFFF AND MUL OR SWAP1 SSTORE POP PUSH1 0x80 DUP3 ADD MLOAD DUP2 PUSH1 0x4 ADD SSTORE SWAP1 POP POP POP POP JUMP JUMPDEST PUSH1 0x0 SLOAD DUP2 JUMP JUMPDEST PUSH1 0x0 PUSH1 0x40 MLOAD SWAP1 POP SWAP1 JUMP JUMPDEST PUSH1 0x0 DUP1 REVERT JUMPDEST PUSH1 0x0 DUP1 REVERT JUMPDEST PUSH1 0x0 DUP2 SWAP1 POP SWAP2 SWAP1 POP JUMP JUMPDEST PUSH2 0x3D6 DUP2 PUSH2 0x3C3 JUMP JUMPDEST DUP2 EQ PUSH2 0x3E1 JUMPI PUSH1 0x0 DUP1 REVERT JUMPDEST POP JUMP JUMPDEST PUSH1 0x0 DUP2 CALLDATALOAD SWAP1 POP PUSH2 0x3F3 DUP2 PUSH2 0x3CD JUMP JUMPDEST SWAP3 SWAP2 POP POP JUMP JUMPDEST PUSH1 0x0 PUSH1 0x20 DUP3 DUP5 SUB SLT ISZERO PUSH2 0x40F JUMPI PUSH2 0x40E PUSH2 0x3B9 JUMP JUMPDEST JUMPDEST PUSH1 0x0 PUSH2 0x41D DUP5 DUP3 DUP6 ADD PUSH2 0x3E4 JUMP JUMPDEST SWAP2 POP POP SWAP3 SWAP2 POP POP JUMP JUMPDEST PUSH2 0x42F DUP2 PUSH2 0x3C3 JUMP JUMPDEST DUP3 MSTORE POP POP JUMP JUMPDEST PUSH1 0x0 DUP2 MLOAD SWAP1 POP SWAP2 SWAP1 POP JUMP JUMPDEST PUSH1 0x0 DUP3 DUP3 MSTORE PUSH1 0x20 DUP3 ADD SWAP1 POP SWAP3 SWAP2 POP POP JUMP JUMPDEST PUSH1 0x0 JUMPDEST DUP4 DUP2 LT ISZERO PUSH2 0x46F JUMPI DUP1 DUP3 ADD MLOAD DUP2 DUP5 ADD MSTORE PUSH1 0x20 DUP2 ADD SWAP1 POP PUSH2 0x454 JUMP JUMPDEST PUSH1 0x0 DUP5 DUP5 ADD MSTORE POP POP POP POP JUMP JUMPDEST PUSH1 0x0 PUSH1 0x1F NOT PUSH1 0x1F DUP4 ADD AND SWAP1 POP SWAP2 SWAP1 POP JUMP JUMPDEST PUSH1 0x0 PUSH2 0x497 DUP3 PUSH2 0x435 JUMP JUMPDEST PUSH2 0x4A1 DUP2 DUP6 PUSH2 0x440 JUMP JUMPDEST SWAP4 POP PUSH2 0x4B1 DUP2 DUP6 PUSH1 0x20 DUP7 ADD PUSH2 0x451 JUMP JUMPDEST PUSH2 0x4BA DUP2 PUSH2 0x47B JUMP JUMPDEST DUP5 ADD SWAP2 POP POP SWAP3 SWAP2 POP POP JUMP JUMPDEST PUSH1 0x0 PUSH20 0xFFFFFFFFFFFFFFFFFFFFFFFFFFFFFFFFFFFFFFFF DUP3 AND SWAP1 POP SWAP2 SWAP1 POP JUMP JUMPDEST PUSH1 0x0 PUSH2 0x4F0 DUP3 PUSH2 0x4C5 JUMP JUMPDEST SWAP1 POP SWAP2 SWAP1 POP JUMP JUMPDEST PUSH2 0x500 DUP2 PUSH2 0x4E5 JUMP JUMPDEST DUP3 MSTORE POP POP JUMP JUMPDEST PUSH1 0x0 PUSH1 0xA0 DUP3 ADD SWAP1 POP PUSH2 0x51B PUSH1 0x0 DUP4 ADD DUP9 PUSH2 0x426 JUMP JUMPDEST DUP2 DUP2 SUB PUSH1 0x20 DUP4 ADD MSTORE PUSH2 0x52D DUP2 DUP8 PUSH2 0x48C JUMP JUMPDEST SWAP1 POP PUSH2 0x53C PUSH1 0x40 DUP4 ADD DUP7 PUSH2 0x426 JUMP JUMPDEST PUSH2 0x549 PUSH1 0x60 DUP4 ADD DUP6 PUSH2 0x4F7 JUMP JUMPDEST PUSH2 0x556 PUSH1 0x80 DUP4 ADD DUP5 PUSH2 0x426 JUMP JUMPDEST SWAP7 SWAP6 POP POP POP POP POP POP JUMP JUMPDEST PUSH1 0x0 DUP1 REVERT JUMPDEST PUSH1 0x0 DUP1 REVERT JUMPDEST PUSH32 0x4E487B7100000000000000000000000000000000000000000000000000000000 PUSH1 0x0 MSTORE PUSH1 0x41 PUSH1 0x4 MSTORE PUSH1 0x24 PUSH1 0x0 REVERT JUMPDEST PUSH2 0x5A2 DUP3 PUSH2 0x47B JUMP JUMPDEST DUP2 ADD DUP2 DUP2 LT PUSH8 0xFFFFFFFFFFFFFFFF DUP3 GT OR ISZERO PUSH2 0x5C1 JUMPI PUSH2 0x5C0 PUSH2 0x56A JUMP JUMPDEST JUMPDEST DUP1 PUSH1 0x40 MSTORE POP POP POP JUMP JUMPDEST PUSH1 0x0 PUSH2 0x5D4 PUSH2 0x3AF JUMP JUMPDEST SWAP1 POP PUSH2 0x5E0 DUP3 DUP3 PUSH2 0x599 JUMP JUMPDEST SWAP2 SWAP1 POP JUMP JUMPDEST PUSH1 0x0 PUSH8 0xFFFFFFFFFFFFFFFF DUP3 GT ISZERO PUSH2 0x600 JUMPI PUSH2 0x5FF PUSH2 0x56A JUMP JUMPDEST JUMPDEST PUSH2 0x609 DUP3 PUSH2 0x47B JUMP JUMPDEST SWAP1 POP PUSH1 0x20 DUP2 ADD SWAP1 POP SWAP2 SWAP1 POP JUMP JUMPDEST DUP3 DUP2 DUP4 CALLDATACOPY PUSH1 0x0 DUP4 DUP4 ADD MSTORE POP POP POP JUMP JUMPDEST PUSH1 0x0 PUSH2 0x638 PUSH2 0x633 DUP5 PUSH2 0x5E5 JUMP JUMPDEST PUSH2 0x5CA JUMP JUMPDEST SWAP1 POP DUP3 DUP2 MSTORE PUSH1 0x20 DUP2 ADD DUP5 DUP5 DUP5 ADD GT ISZERO PUSH2 0x654 JUMPI PUSH2 0x653 PUSH2 0x565 JUMP JUMPDEST JUMPDEST PUSH2 0x65F DUP5 DUP3 DUP6 PUSH2 0x616 JUMP JUMPDEST POP SWAP4 SWAP3 POP POP POP JUMP JUMPDEST PUSH1 0x0 DUP3 PUSH1 0x1F DUP4 ADD SLT PUSH2 0x67C JUMPI PUSH2 0x67B PUSH2 0x560 JUMP JUMPDEST JUMPDEST DUP2 CALLDATALOAD PUSH2 0x68C DUP5 DUP3 PUSH1 0x20 DUP7 ADD PUSH2 0x625 JUMP JUMPDEST SWAP2 POP POP SWAP3 SWAP2 POP POP JUMP JUMPDEST PUSH1 0x0 DUP1 PUSH1 0x40 DUP4 DUP6 SUB SLT ISZERO PUSH2 0x6AC JUMPI PUSH2 0x6AB PUSH2 0x3B9 JUMP JUMPDEST JUMPDEST PUSH1 0x0 DUP4 ADD CALLDATALOAD PUSH8 0xFFFFFFFFFFFFFFFF DUP2 GT ISZERO PUSH2 0x6CA JUMPI PUSH2 0x6C9 PUSH2 0x3BE JUMP JUMPDEST JUMPDEST PUSH2 0x6D6 DUP6 DUP3 DUP7 ADD PUSH2 0x667 JUMP JUMPDEST SWAP3 POP POP PUSH1 0x20 PUSH2 0x6E7 DUP6 DUP3 DUP7 ADD PUSH2 0x3E4 JUMP JUMPDEST SWAP2 POP POP SWAP3 POP SWAP3 SWAP1 POP JUMP JUMPDEST PUSH1 0x0 PUSH1 0x20 DUP3 ADD SWAP1 POP PUSH2 0x706 PUSH1 0x0 DUP4 ADD DUP5 PUSH2 0x426 JUMP JUMPDEST SWAP3 SWAP2 POP POP JUMP JUMPDEST PUSH32 0x4E487B7100000000000000000000000000000000000000000000000000000000 PUSH1 0x0 MSTORE PUSH1 0x22 PUSH1 0x4 MSTORE PUSH1 0x24 PUSH1 0x0 REVERT JUMPDEST PUSH1 0x0 PUSH1 0x2 DUP3 DIV SWAP1 POP PUSH1 0x1 DUP3 AND DUP1 PUSH2 0x753 JUMPI PUSH1 0x7F DUP3 AND SWAP2 POP JUMPDEST PUSH1 0x20 DUP3 LT DUP2 SUB PUSH2 0x766 JUMPI PUSH2 0x765 PUSH2 0x70C JUMP JUMPDEST JUMPDEST POP SWAP2 SWAP1 POP JUMP JUMPDEST PUSH32 0x4E6F7420656E6F7567682066756E647300000000000000000000000000000000 PUSH1 0x0 DUP3 ADD MSTORE POP JUMP JUMPDEST PUSH1 0x0 PUSH2 0x7A2 PUSH1 0x10 DUP4 PUSH2 0x440 JUMP JUMPDEST SWAP2 POP PUSH2 0x7AD DUP3 PUSH2 0x76C JUMP JUMPDEST PUSH1 0x20 DUP3 ADD SWAP1 POP SWAP2 SWAP1 POP JUMP JUMPDEST PUSH1 0x0 PUSH1 0x20 DUP3 ADD SWAP1 POP DUP2 DUP2 SUB PUSH1 0x0 DUP4 ADD MSTORE PUSH2 0x7D1 DUP2 PUSH2 0x795 JUMP JUMPDEST SWAP1 POP SWAP2 SWAP1 POP JUMP JUMPDEST PUSH32 0x4E487B7100000000000000000000000000000000000000000000000000000000 PUSH1 0x0 MSTORE PUSH1 0x11 PUSH1 0x4 MSTORE PUSH1 0x24 PUSH1 0x0 REVERT JUMPDEST PUSH1 0x0 PUSH2 0x812 DUP3 PUSH2 0x3C3 JUMP JUMPDEST SWAP2 POP PUSH2 0x81D DUP4 PUSH2 0x3C3 JUMP JUMPDEST SWAP3 POP DUP3 DUP3 ADD SWAP1 POP DUP1 DUP3 GT ISZERO PUSH2 0x835 JUMPI PUSH2 0x834 PUSH2 0x7D8 JUMP JUMPDEST JUMPDEST SWAP3 SWAP2 POP POP JUMP JUMPDEST PUSH1 0x0 PUSH2 0x846 DUP3 PUSH2 0x3C3 JUMP JUMPDEST SWAP2 POP PUSH32 0xFFFFFFFFFFFFFFFFFFFFFFFFFFFFFFFFFFFFFFFFFFFFFFFFFFFFFFFFFFFFFFFF DUP3 SUB PUSH2 0x878 JUMPI PUSH2 0x877 PUSH2 0x7D8 JUMP JUMPDEST JUMPDEST PUSH1 0x1 DUP3 ADD SWAP1 POP SWAP2 SWAP1 POP JUMP JUMPDEST PUSH1 0x0 DUP2 SWAP1 POP DUP2 PUSH1 0x0 MSTORE PUSH1 0x20 PUSH1 0x0 KECCAK256 SWAP1 POP SWAP2 SWAP1 POP JUMP JUMPDEST PUSH1 0x0 PUSH1 0x20 PUSH1 0x1F DUP4 ADD DIV SWAP1 POP SWAP2 SWAP1 POP JUMP JUMPDEST PUSH1 0x0 DUP3 DUP3 SHL SWAP1 POP SWAP3 SWAP2 POP POP JUMP JUMPDEST PUSH1 0x0 PUSH1 0x8 DUP4 MUL PUSH2 0x8E5 PUSH32 0xFFFFFFFFFFFFFFFFFFFFFFFFFFFFFFFFFFFFFFFFFFFFFFFFFFFFFFFFFFFFFFFF DUP3 PUSH2 0x8A8 JUMP JUMPDEST PUSH2 0x8EF DUP7 DUP4 PUSH2 0x8A8 JUMP JUMPDEST SWAP6 POP DUP1 NOT DUP5 AND SWAP4 POP DUP1 DUP7 AND DUP5 OR SWAP3 POP POP POP SWAP4 SWAP3 POP POP POP JUMP JUMPDEST PUSH1 0x0 DUP2 SWAP1 POP SWAP2 SWAP1 POP JUMP JUMPDEST PUSH1 0x0 PUSH2 0x92C PUSH2 0x927 PUSH2 0x922 DUP5 PUSH2 0x3C3 JUMP JUMPDEST PUSH2 0x907 JUMP JUMPDEST PUSH2 0x3C3 JUMP JUMPDEST SWAP1 POP SWAP2 SWAP1 POP JUMP JUMPDEST PUSH1 0x0 DUP2 SWAP1 POP SWAP2 SWAP1 POP JUMP JUMPDEST PUSH2 0x946 DUP4 PUSH2 0x911 JUMP JUMPDEST PUSH2 0x95A PUSH2 0x952 DUP3 PUSH2 0x933 JUMP JUMPDEST DUP5 DUP5 SLOAD PUSH2 0x8B5 JUMP JUMPDEST DUP3 SSTORE POP POP POP POP JUMP JUMPDEST PUSH1 0x0 SWAP1 JUMP JUMPDEST PUSH2 0x96F PUSH2 0x962 JUMP JUMPDEST PUSH2 0x97A DUP2 DUP5 DUP5 PUSH2 0x93D JUMP JUMPDEST POP POP POP JUMP JUMPDEST JUMPDEST DUP2 DUP2 LT ISZERO PUSH2 0x99E JUMPI PUSH2 0x993 PUSH1 0x0 DUP3 PUSH2 0x967 JUMP JUMPDEST PUSH1 0x1 DUP2 ADD SWAP1 POP PUSH2 0x980 JUMP JUMPDEST POP POP JUMP JUMPDEST PUSH1 0x1F DUP3 GT ISZERO PUSH2 0x9E3 JUMPI PUSH2 0x9B4 DUP2 PUSH2 0x883 JUMP JUMPDEST PUSH2 0x9BD DUP5 PUSH2 0x898 JUMP JUMPDEST DUP2 ADD PUSH1 0x20 DUP6 LT ISZERO PUSH2 0x9CC JUMPI DUP2 SWAP1 POP JUMPDEST PUSH2 0x9E0 PUSH2 0x9D8 DUP6 PUSH2 0x898 JUMP JUMPDEST DUP4 ADD DUP3 PUSH2 0x97F JUMP JUMPDEST POP POP JUMPDEST POP POP POP JUMP JUMPDEST PUSH1 0x0 DUP3 DUP3 SHR SWAP1 POP SWAP3 SWAP2 POP POP JUMP JUMPDEST PUSH1 0x0 PUSH2 0xA06 PUSH1 0x0 NOT DUP5 PUSH1 0x8 MUL PUSH2 0x9E8 JUMP JUMPDEST NOT DUP1 DUP4 AND SWAP2 POP POP SWAP3 SWAP2 POP POP JUMP JUMPDEST PUSH1 0x0 PUSH2 0xA1F DUP4 DUP4 PUSH2 0x9F5 JUMP JUMPDEST SWAP2 POP DUP3 PUSH1 0x2 MUL DUP3 OR SWAP1 POP SWAP3 SWAP2 POP POP JUMP JUMPDEST PUSH2 0xA38 DUP3 PUSH2 0x435 JUMP JUMPDEST PUSH8 0xFFFFFFFFFFFFFFFF DUP2 GT ISZERO PUSH2 0xA51 JUMPI PUSH2 0xA50 PUSH2 0x56A JUMP JUMPDEST JUMPDEST PUSH2 0xA5B DUP3 SLOAD PUSH2 0x73B JUMP JUMPDEST PUSH2 0xA66 DUP3 DUP3 DUP6 PUSH2 0x9A2 JUMP JUMPDEST PUSH1 0x0 PUSH1 0x20 SWAP1 POP PUSH1 0x1F DUP4 GT PUSH1 0x1 DUP2 EQ PUSH2 0xA99 JUMPI PUSH1 0x0 DUP5 ISZERO PUSH2 0xA87 JUMPI DUP3 DUP8 ADD MLOAD SWAP1 POP JUMPDEST PUSH2 0xA91 DUP6 DUP3 PUSH2 0xA13 JUMP JUMPDEST DUP7 SSTORE POP PUSH2 0xAF9 JUMP JUMPDEST PUSH1 0x1F NOT DUP5 AND PUSH2 0xAA7 DUP7 PUSH2 0x883 JUMP JUMPDEST PUSH1 0x0 JUMPDEST DUP3 DUP2 LT ISZERO PUSH2 0xACF JUMPI DUP5 DUP10 ADD MLOAD DUP3 SSTORE PUSH1 0x1 DUP3 ADD SWAP2 POP PUSH1 0x20 DUP6 ADD SWAP5 POP PUSH1 0x20 DUP2 ADD SWAP1 POP PUSH2 0xAAA JUMP JUMPDEST DUP7 DUP4 LT ISZERO PUSH2 0xAEC JUMPI DUP5 DUP10 ADD MLOAD PUSH2 0xAE8 PUSH1 0x1F DUP10 AND DUP3 PUSH2 0x9F5 JUMP JUMPDEST DUP4 SSTORE POP JUMPDEST PUSH1 0x1 PUSH1 0x2 DUP9 MUL ADD DUP9 SSTORE POP POP POP JUMPDEST POP POP POP POP POP POP JUMP INVALID LOG2 PUSH5 0x6970667358 0x22 SLT KECCAK256 0x29 PUSH17 0x5AA0B74B4D91BFA92C1A36B6A20F3ACC9D 0x4A 0xE0 0xFC RETURNDATASIZE 0xB3 0xA5 0xF 0xB6 REVERT GASLIMIT 0xD6 0xD7 ADDMOD PUSH5 0x736F6C6343 STOP ADDMOD GT STOP CALLER "},"methodIdentifiers":{"addProduct(string,uint256)":"b15247d9","buyProduct(uint256)":"8642269e","productCount()":"e0f6ef87","products(uint256)":"7acc0b20"}}}}}